:0300000002216D6D
:0C216D00787FE4F6D8FD7581220221B4D1
:101DDF00206B65795F7363616E0D0A00204B455967
:101DEF005F325F505245530D0A0074696D65723A48
:101DFF002564200D0A000D0A3D3D3D3D3D3D3D3D15
:101E0F003D3D3D3D3D3D3D3D3D3D3D3D3D3D3D3DF3
:101E1F003D3D3D3D3D3D3D3D3D3D0D0A00736B75E7
:101E2F003A4B2564200D0A00736F66742076657235
:101E3F0073696F6E3A2573200D0A00312E30302EE4
:101E4F00303000676170202564200D0A0074696DC1
:101E5F006572202564200D0A00496E7075745F56F7
:101E6F006F6C746167655F737464203D2025640D2A
:101E7F000A003D3D3D3D3D3D3D3D3D3D3D3D3D3DF3
:101E8F003D3D3D3D3D3D3D3D3D3D3D3D3D3D3D3D73
:071E9F003D3D3D3D0D0A0031
:0D228500420098000041009B0041009A00BB
:101C1000E4900000F090009AE0700A1223649000B3
:101C200000EFF08005E4900000F0900000E0640117
:101C3000702B7BFF7A1D79DF1209AE12279DEF70A2
:101C40000A7F011227A3E4FF0226BAE4FF1227A3AA
:101C50001221F912241190009B7401F02212279D89
:101C6000EF6003021CFC900000E0640270307BFF18
:101C70007A1D79EB1209AE900089E0C394045005F7
:101C8000E004F080069000897401F090009B7401DC
:101C9000F0122411900089E0FF1227B5805B9000BC
:101CA00000E06403705690008AE0C394055005E09C
:101CB00004F08005E490008AF0900089E0D394015C
:101CC0004016A3E0FF70059000888009EFD39403CD
:101CD000400690007B7402F07BFF7A1D79F990003A
:101CE0008AE0FF900034E4F0A3EFF01209AE900018
:0C1CF0008AE0FF1227AF1221F912258EA6
:011CFC0022C5
:0C163D00900006ECF0A3EDF0AB07AA064D
:10164900E4A3F0A3F0A3F0A37428F0A312089F0069
:1016590000000090001012089F00000000C3EB94E6
:1016690032EA94005003021701AE02AF03AD07AC92
:1016790006E412032AE4FBFA797A784412020F90FD
:10168900000C120893900006E0FCA3E0FDE41203AD
:101699002AE4FBFA797A784412020F9000101208B2
:1016A9009390000CE0F8A3E0F9A3E0FAA3E0FBA310
:1016B900E0FCA3E0FDA3E0FEA3E0FF12001190000F
:1016C9000CE0F8A3E0F9A3E0FAA3E0FB12020F7B18
:1016D900007A80793B784412010690000C12089335
:1016E900E4FFFEFDFC90000CE0F8A3E0F9A3E0FAAA
:1016F900A3E0FB1202AC50057E007FFF227F147E1F
:10170900AE7DC37C4290000CE0F8A3E0F9A3E0FAB7
:10171900A3E0FB1202AC603F403D7F147EAE7DC367
:101729007CC290000CE0F8A3E0F9A3E0FAA3E0FB87
:101739001200157BCD7ACC79CC783E12020F1203B8
:1017490063900008EEF0A3EFF090000BE02FF0900B
:10175900000AE03EF0803C90000CE0F8A3E0F9A319
:10176900E0FAA3E0FB7F147EAE7DC37C4212001138
:101779007BCD7ACC79CC783E12020F1203639000AC
:1017890008EEF0A3EFF0C390000BE09FF090000A81
:10179900E09EF0900089E0B4030E90000BE024FB7A
:1017A900F090000AE034FFF090000AE0FEA3E0FFA9
:0117B900220D
:101B1F00E4900000F0A3F0A3F0A3F0A3F0A3F090E3
:101B2F000099E004F07006900098E004F09000989F
:101B3F00E0FEA3E0FFE4FCFD7B507AC3F9F8D3127B
:101B4F00086C4003021C0FE4900098F0A3F07B0197
:101B5F0090000904F0A37400F0A37404F07A0079E4
:101B6F00021217BA900002E0FEA3E0FFA3E0FCA36D
:101B7F00E0FD12163D900000EEF0A3EFF0D39000C1
:101B8F0003E09432900002E09400406B12279DEF27
:101B9F00705790009BE0B40121E4F0D3900001E076
:101BAF009432900000E094004006E490007F80059E
:101BBF0090007F7401F090007EF0900000E0FEA393
:101BCF00E0FF7C007D0A1206E4900077EEF0A3EFB1
:101BDF00F0120DC690008AE0FF1227AF900089E047
:101BEF00FF1227B512244F8008E4FF1226BA1227DE
:101BFF008BE490009AF0221225B490009A7401F0B1
:011C0F0022B2
:101EA60012278112253D12265FD2AF12272B122749
:101EB6003F121A0912263F7FC87E0012261F7F0294
:101EC60012275C1225131227947FB07E041226D2A5
:101ED60012278B12267E7BFF7A1E79051209AE7BAE
:101EE600FF7A1E792C900034741FF0A374A8F012A8
:101EF60009AE90003474FFF0A3741EF0A3744AF088
:101F06007BFF7A1E79371209AE7BFF7A1E795290D3
:101F16000089E0FF900034E4F0A3EFF01209AE7BF5
:101F2600FF7A1E795C90008AE0FF900034E4F0A30B
:101F3600EFF01209AE7BFF7A1E796890008FE0FF02
:101F4600A3E0900034CFF0A3EFF01209AE7BFF7A46
:101F56001E79811209AE121B1F121C101227BB809C
:011F6600F585
:0A278100758E5190FE917401F02254
:10244F007F6490008FE07004A3E06402700D900031
:10245F0073E0C313F0A3E013F07F3290007EE0B47B
:10246F000102800C90007EE07009900073A3E0FFE2
:03247F001226BA68
:012482002237
:10241100900089E024FE601514601D1460252403DA
:10242100702B9000757401F0A374E0F02290007598
:102431007402F0A37458F0229000757402F0A37432
:0E244100BCF0229000757403F0A37420F0220A
:10267E00E4FFFE1220DCD3EF9440EE940690008F20
:0D268E00E44006F0A37402F022F0A304F073
:01269B00221C
:0E274E00EF1F70011E144E6004000080F32285
:1026D2007D407C03ED1D70011C144C70F7EF1F70E0
:0626E200011E144E70EA17
:0126E80022CF
:10265F0090FF037401F090FF07F090FF02F075B444
:0F266F00817F507E0012274E90FE9B7449F0220F
:1026E900E4FFFE75B50743B440E5B430E5FB53B4E8
:0526F900DFAEB7AFB633
:0126FE0022B9
:1026FF00E4FFFE75B50343B440E5B430E5FB53B4D6
:05270F00DFAEB7AFB61C
:0127140022A2
:10271500E4FFFE75B50243B440E5B430E5FB53B4C0
:05272500DFAEB7AFB606
:01272A00228C
:0B17BA00900006EBF0A3EAF0A3E9F0BA
:1017C50090000C12089F00000000E4900010F0F05B
:1017D50090000CE0F8A3E0F9A3E0FAA3E0FB1226E1
:1017E500FFE4FCFDEB2FFFEA3EFEED39FDEC38FC96
:1017F50090000C120893900010E004F0E0C39405EB
:1018050040CE90000CE0FCA3E0FDA3E0FEA3E0FFCA
:10181500E47B05FAF9F81207CC90000C120893E462
:101825007FA07E0FFDFC90000CE0F8A3E0F9A3E09B
:10183500FAA3E0FB120741E4FB7A10F9F81207CC92
:10184500900006E0FBA3E0FAA3E0F9EE8FF01207A3
:10185500227F147E0012274E90000C12089F000074
:101865000000E4900010F090000CE0F8A3E0F9A36C
:10187500E0FAA3E0FB1226E9E4FCFDEB2FFFEA3ECC
:10188500FEED39FDEC38FC90000C12089390001029
:10189500E004F0E0C3940540CE90000CE0FCA3E02A
:1018A500FDA3E0FEA3E0FFE47B05FAF9F81207CCFF
:1018B50090000C120893E47FA07E0FFDFC90000CB5
:1018C500E0F8A3E0F9A3E0FAA3E0FB120741E4FB8B
:1018D5007A10F9F81207CC900009E0FBA3E0FAA30F
:0818E500E0F9EE8FF00207228A
:1020DC0090000012089F00000000E4900004F0F053
:1020EC00900000E0F8A3E0F9A3E0FAA3E0FB1227CC
:1020FC0015E4FCFDEB2FFFEA3EFEED39FDEC38FC60
:10210C00900000120893900004E004F0E0C39405E2
:10211C0040CE900000E0FCA3E0FDA3E0FEA3E0FFB6
:10212C00E47B05FAF9F81207CC900000120893E44E
:10213C007FA07E0FFDFC900000E0F8A3E0F9A3E087
:10214C00FAA3E0FB120741E4FB7A10F9F81207CC72
:10215C00900000120893900000A3A3E0FEA3E0FF00
:01216C002250
:101CFD000D0A3D3D3D3D3D3D3D3D3D3D3D3D3D3D6A
:101D0D003D3D3D3D3D3D3D3D3D3D3D3D3D3D3D3DF6
:101D1D003D3D3D3D3D3D3D3D3D3D0D0A00706F77E7
:101D2D006572206F6E20666C617368206761703A12
:101D3D002564202074696D65723A2564200D0A00B2
:101D4D003D3D3D3D3D3D3D3D3D3D3D3D3D3D3D3DB6
:101D5D003D3D3D3D3D3D3D3D3D3D3D3D3D3D3D3DA6
:101D6D003D3D3D3D3D3D3D3D0D0A003D3D3D3D3D36
:101D7D003D3D3D3D3D3D3D3D666972737420696E4F
:101D8D00697420646174613D3D3D3D3D3D3D3D3D8A
:101D9D003D3D200D0A003078253034582020307814
:101DAD002530345820203078253034582020307894
:101DBD0025303458200D0A00666C61736820676108
:101DCD00703A2564202074696D65723A2564200D82
:021DDD000A00FA
:1022920044008B202005014100910142008F000083
:06279D00900091E0FF2214
:0627A300900091EFF0220E
:1025FD00D310AF01C3C0D075FDF075FC0F8EFA8FEF
:10260D00F975FDD275FC2D75FDE175FC1ED0D092CE
:02261D00AF22EA
:10256600D310AF01C3C0D08FFB75FDF075FC0FAE65
:1025760004AF058EFA8FF975FDB475FC4B75FDE158
:0825860075FC1ED0D092AF22BB
:0C22F7007B017A0079897D027F047E3C27
:10230300D310AF01C3C0D0900001EEF0A3EFF0A350
:0B231300EDF0A3EBF0A3EAF0A3E9F06B
:10231E00E4A3F0C2AFF0900003E0FF900007E0C32B
:10232E009F502C900004E0FBA3E475F00112070C03
:10233E00A9F0FA12068CFF900001E475F001120765
:10234E000CADF0FC122566900007E004F080C7D2B9
:01235E00AFCF
:05235F00D0D092AF2276
:040003008F828E83D7
:03000700E493FF80
:01000A0022D3
:1023D100900001EEF0A3EFF0A3EBF0A3EAF0A3E984
:1023E100F0AF051DEF6028900001E475F0011207C0
:1023F1000C85F082F583E493FF900003E0FBA3E4F6
:1024010075F00112070CA9F0FAEF1206D280D22260
:10248300E4FDFCED2400FFE4343CFE120003748BF6
:102493002DF582E43400F583E0B507030C80037F58
:1024A30000220DEDB404DCECC3940440037F01224D
:0224B3007F00A8
:0124B5002204
:101A0900E4900000F090FE927404F0122483EF70C9
:101A19000790000004F080597BFF7A1C79FD1209B8
:101A2900AE7B017A0079897D027F047E3C1223D145
:101A39007BFF7A1D792A900089E0FF900034E4F059
:101A4900A3EFF090008AE0FF900036E4F0A3EFF0F6
:101A59001209AE7BFF7A1D794D1209AE900089E01B
:101A6900D394045006A3E094054006900000740145
:101A7900F0900000E06401707A7BFF7A1D7978129A
:101A890009AE9000897401F0A3F07F007E3C122515
:101A9900FDFB7A00798B7D041223031222F77B0167
:101AA9007A00798B7D047F007E3C1223D17BFF7AFB
:101AB9001D79A390008BE0FF900034E4F0A3EFF0D0
:101AC90090008CE0FF900036E4F0A3EFF090008DD9
:101AD900E0FF900038E4F0A3EFF090008EE0FF9073
:101AE900003AE4F0A3EFF01209AE7BFF7A1D794DBD
:101AF9001209AE7BFF7A1D79C5900089E0FF90003D
:101B090034E4F0A3EFF090008AE0FF900036E4F0AF
:061B1900A3EFF00209AE8B
:10258E007F047E3C1225FD7B017A00798B7D047FD2
:10259E00001223031222F77B017A0079897D027FD4
:0625AE00047E3C0223D173
:10253D0090FF1674C1F090FF157460F090FFA074B9
:10254D0026F090FFA114F075CEFF75CD9875CC06D1
:09255D00759E02759810D2AC22A3
:0C276900C2AC8F993099FDC299D2AC220D
:0627A900AE0712276922B1
:1025DA004C4F4E475F4B45590D0A0054454D5045E7
:1025EA00525F4B45590D0A0054494D455F4B4559B9
:0325FA000D0A00C7
:1022A20041009200420093000041009501420096D5
:0222B20000002A
:0F273F0090FF177460F090FF00F090FF01F02200
:10202500E4900002F0A28133900001F0900092E06C
:1020350014602614604E1470030220C82403600344
:102045000220D1900001E060030220D6900093F0B9
:10205500A3F090009204F08078900001E0706B90FE
:102065000094E004F07006900093E004F0C3900043
:1020750094E09403900093E09400403E90009274A5
:1020850002F08036900001E0B40106A37404F080EC
:102095003B900094E004F07006900093E004F0C3D8
:1020A500900094E094C8900093E09400400C900058
:1020B500027405F09000927403F07F0A7E001226E8
:1020C500D2800E900001E0B401078000E4900092F8
:0620D500F0900002E0FFA4
:0120DB0022E2
:10236400122025BF050C7BFF7A2579DA1209AE7F8E
:102374000122900095E0603030A70320802A7F324C
:102384007E001226D2E4900095F020A70C7BFF7A01
:102394002579E51209AE7F02222080187BFF7A2579
:1023A40079F21209AE7F032230A70930800690002B
:1023B400957401F0308113D3900097E0940190005C
:0C23C40096E094004004E4F0A3F07F00D9
:0123D00022EA
:0422B4004100A00045
:1026BA007E009000A0E0FD7C00120916E47B64FA1B
:0726CA00F9F81207CC8FDFC5
:0126D10022E6
:10261F00900000EEF0A3EFF090FF1D74C0F090FF5C
:10262F009C7435F09000A074FFF0F5DE75DD9722F5
:0D275C0075BD17EF75F02BA490FEA0F022C4
:0427BB0043BD1022E8
:1024B6007365742074696D65207365636F6E643A25
:1024C60025640D0A0074696D65207365636F6E641B
:1024D6003A2564200D0A0074696D65206F666620D2
:0324E6000D0A00DC
:1022B8004200840000420082000042008600004183
:1022C800007A0041007B004100880041007F004205
:0D22D800007C0000420080000041007E00FC
:10269C00900082EEF0A3EFF0E4A3F0A3F07BFF7ABE
:0E26AC002479B6900034EEF0A3EFF00209AEF0
:1024E90090007FE0B4012290007CE475F0011206AF
:1024F900F6FED3E5F0940EEE9401400DE490007FD2
:0A250900F090007CF0A3F0A3F02294
:1021F900E4900084F0A3F090008AE0FF700890005A
:1022090082F0A3F08052EFB4010C9000827407F0C1
:10221900A304F0E48042EFB4020D900082740EF042
:10222900A37410F0E48031EFB4030D900082741CA4
:10223900F0A37420F0E48020EFB4040D90008274C0
:1022490038F0A37440F0E4800FEFB40517900082D2
:102259007470F0A37480F0E4900086F0A3F090000D
:1022690080F0A3F07BFF7A2479CB900082E0FFA372
:0C227900E0900034CFF0A3EFF00209AEBB
:10272B00E490FE80F0F589758CF5758A9643A802C6
:04273B00438810229D
:03000B000218EDEB
:1018ED00C0E0C0F0C083C082C0D075D000C000C0C1
:1018FD0001C002C003C004C005C006C00712279D69
:10190D00EF60030219EB900085E004F07006900083
:10191D0084E004F0C3900085E094F4900084E0949A
:10192D000150030219EB1224E9900088E0B4022D56
:10193D00900087E004F07006900086E004F0D390EC
:10194D000087E09440900086E09438401090008825
:10195D00E4F0900086F0A3F090007A04F0D39000AC
:10196D0083E09400900082E094004042A3E024FFC5
:10197D00F0900082E034FFF090007BE0640270573D
:10198D00900087E004F07006900086E004F0D3909C
:10199D000087E09440900086E09438403A90007AB9
:1019AD007401F0A3E4F0900086F0A3F0802990007C
:1019BD008AE060237F011227A3900082E4F0A3F058
:1019CD00900086F0A3F090007BF0900088F07BFFF4
:1019DD007A2479DD1209AE900084E4F0A3F0121F91
:1019ED0067D007D006D005D004D003D002D001D0E7
:0C19FD0000D0D0D082D083D0F0D0E032F7
:0D22E50042009E000041009D0041009C0051
:1025130043D1E890FF62E04406F090FF61E0440895
:10252300F090FF60E04410F090FF6AE044F8F0C2DE
:0A25330097C296C295C294C293228B
:09278B0090009E74CEF0A3F02230
:1025B40090009CE0FF700F90009E74CEF0A3F0900A
:1025C400009C7401F022EFB4010B90009E74FFF0A4
:0525D400E490009CF002
:0125D90022DF
:0627AF0090009FEFF022F4
:0627B50090009EEFF022EF
:0927940090009E74CCF0A3F02229
:101F670090009DE0B40800400302201F901F7AF8FC
:101F7700282873021F92021FA2021FB3021FC60264
:101F87001FDB021FEB021FFC02200F53D1EF1214BD
:101F9700A11211EE90009D7401F022C292D291120B
:101FA70014A51211EE90009D7402F022C292C29104
:101FB700D2A31214A71211EE90009D7403F022C24F
:101FC70092C291C2A3D2B41214A91211EE90009D2D
:101FD7007404F02243D1101214A11211EE90009D47
:101FE7007405F022C292D2911214A51211EE90003C
:101FF7009D7406F022C292C291D2A31214A71211A5
:10200700EE90009D7407F022C292C291C2A3D2B48F
:0E2017001214A91211EE8000E490009DF02238
:0511EE0090009EE0FFEF
:1011F300EF1208F0125A0112920212CA03122204C9
:10120300133A0513720613A90713E308141D0913F0
:10121300020A1496CC148BCE1454FF000014A09031
:10122300009DE0FF6003B40404C295C294EF64011F
:101233006004EFB40504D295D294EF64026004EF26
:10124300B40604D295D294EF64036008EF64076098
:10125300030214A002148690009DE0FF6003B4040F
:1012630004C295C294EF64016004EFB40504D295FF
:10127300C294EF64026004EFB40604D295C294EF03
:1012830064036008EF640760030214A00213DE9096
:10129300009DE0FF6003B40404D295C294EF64019F
:1012A3006004EFB40504D295C294EF64026004EFC6
:1012B300B40604C295D294EF64036008EF64076038
:1012C300030214A002141890009DE0FF6003B4040D
:1012D30004D295C294EF64016004EFB40504D2957F
:1012E300C294EF64026004EFB40604D295D294EF83
:1012F30064036008EF640760030214A002144F90B4
:10130300009DE0FF6003B40404C295C294EF64013E
:101313006004EFB40504D295D294EF64026004EF45
:10132300B40604D295D294EF64036008EF640760B7
:10133300030214A00213DE90009DE0FF6003B404D7
:1013430004D295C294EF64016004EFB40504C2951E
:10135300D294EF64026004EFB40604D295D294EF02
:1013630064036008EF640760030214A002144F9043
:10137300009DE0FF6003B40404D295C294EF6401BE
:101383006004EFB40504C295D294EF64026004EFE5
:10139300B40604D295D294EF64036008EF64076047
:1013A300030214A0806F90009DE0FF6003B4040467
:1013B300D295C294EF64016004EFB40504D295C2E0
:1013C30094EF64026004EFB40604D295C294EF6410
:1013D300036008EF640760030214A0C295C294225D
:1013E30090009DE0FF6003B40404D295C294EF64BF
:1013F300016004EFB40504D295D294EF6402600453
:10140300EFB40604D295D294EF64036008EF640747
:1014130060030214A0D295D2942290009DE0FF6055
:1014230003B40404D295C294EF64016004EFB405DD
:1014330004D295D294EF64026004EFB40604D2950B
:10144300D294EF64036005EF64077051D295C294A0
:101453002290009DE0FF6003B40404D295C294EF90
:1014630064016004EFB40504C295D294EF64026092
:1014730004EFB40604C295D294EF64036005EF64ED
:1014830007701AC295D29422C297C296C295C2948B
:0E149300C29322D297D296D295D294D29322AF
:0D14A100D292C291C2A3C2B490009FE0FF9E
:1014AE00EF14605D14700302154D14700302158B5A
:1014BE001470030215C51470030215FF2405600392
:1014CE0002163C90009DE0FF6003B40406C297C272
:1014DE0096C293EF64016004EFB40506D297D296DC
:1014EE00D293EF64026004EFB40606C297D296C29E
:1014FE0093EF64036046EF6407600302163C021626
:10150E003690009DE0FF6003B40406D297C296C2E7
:10151E0093EF64016004EFB40506D297D296D2938E
:10152E00EF64026004EFB40606C297C296C293EF50
:10153E0064036008EF6407600302163C02163690DF
:10154E00009DE0FF6003B40406C297C296C293EFFB
:10155E0064016004EFB40506D297D296D293EF647D
:10156E00026004EFB40606D297C296C293EF6403EC
:10157E006008EF6407600302163C02163690009D69
:10158E00E0FF6003B40406C297C296D293EF6401E3
:10159E006004EFB40506D297D296D293EF64026040
:1015AE0004EFB40606C297C296C293EF64036005B9
:1015BE00EF64077079807190009DE0FF6003B404C2
:1015CE0006C297D296C293EF64016004EFB405068B
:1015DE00D297D296D293EF64026004EFB40606C29D
:1015EE0097C296C293EF64036005EF6407703F8065
:1015FE003790009DE0FF6003B40406C297C296C206
:10160E0093EF64016004EFB40506D297D296D2939D
:10161E00EF64026004EFB40606C297C296D293EF4F
:0F162E0064036004EFB40706D297D296D29322DA
:0C27750000000000000000000000000058
:0422F200410079002E
:10263F00E4900077F0A3F0900073F0A3F0A3F0A361
:10264F00F090007204F0900071F090007004F0228E
:100DC60078067C007D017BFF7A2779757E007F0C93
:100DD60012066690001212089F000000009000168E
:100DE60012089F00000000900077E0FEA3E0FF904D
:100DF6000075E0FCA3E0FDD39FEC9E50030211E6D4
:100E0600ED9FFFEC9EFED3EF9464EE940040030248
:100E160011DCE4FCFD900006120893E490006EF0ED
:100E2600900065E0FCA3E0FDA3E0FEA3E0FFA312B3
:100E36000893900061E0FCA3E0FDA3E0FEA3E0FFC1
:100E4600A3120893900006E0FCA3E0FDA3E0FEA336
:100E5600E0FF900061120893900065E0FCA3E0FDBE
:100E6600A3E0FEA3E0FF900061E0F8A3E0F9A3E0B1
:100E7600FAA3E0FBD31208824033900065E0F8A3A2
:100E8600E0F9A3E0FAA3E0FB900061E0FCA3E0FD3B
:100E9600A3E0FEA3E09BFFEE9AFEED99FDEC98FC25
:100EA600900006120893E490006DF0803190006186
:100EB600E0F8A3E0F9A3E0FAA3E0FBA3E0FCA3E0DB
:100EC600FDA3E0FEA3E0C39BFFEE9AFEED99FDECC9
:100ED60098FC90000612089390006D7401F0E47F70
:100EE60002FEFDFC900065E0F8A3E0F9A3E0FAA39A
:100EF600E0FB12074190000E120893900069E0FC97
:100F0600A3E0FDA3E0FEA3E0FF900061E0F8A3E00C
:100F1600F9A3E0FAA3E02FFFEA3EFEE93DFDE83C37
:100F2600FC90000EE0F8A3E0F9A3E0FAA3E0FBC30F
:100F3600120882504B900069E0FCA3E0FDA3E0FE9E
:100F4600A3E0FF900061E0F8A3E0F9A3E0FAA3E0D4
:100F56002FFFEA3EFEE93DFDE83CFC90000EE0F87E
:100F6600A3E0F9A3E0FAC3EF9BFFEE9AFEED99FD2D
:100F7600EC98FC90000E120893E490006FF0805DF0
:100F860090000EE0FCA3E0FDA3E0FEA3E0FFC0049A
:100F9600C005C006C007900069E0FCA3E0FDA3E021
:100FA600FEA3E0FF900061E0F8A3E0F9A3E0FAA356
:100FB600E02FFBEA3EFAE93DF9E83CF8D007D00617
:100FC600D005D004C3EF9BFFEE9AFEED99FDEC9899
:100FD600FC90000E12089390006F7401F090007060
:100FE600E0FFE4FCFDFE900006E0F8A3E0F9A3E0D4
:100FF600FAA3E0FB120741900006120893900071D5
:10100600E0FFE4FCFDFE900061E0F8A3E0F9A3E058
:10101600FAA3E0FB12074190000A120893900072AF
:10102600E0FFE4FCFDFE90000EE0F8A3E0F9A3E08B
:10103600FAA3E0FB12074190000E12089390006D90
:10104600E0702D900012E0FCA3E0FDA3E0FEA3E01B
:10105600FF900006E0F8A3E0F9A3E0FAA3E0FBEFB7
:101066002BFFEE3AFEED39FDEC38FC900012802B9A
:10107600900016E0FCA3E0FDA3E0FEA3E0FF9000D5
:1010860006E0F8A3E0F9A3E0FAA3E0FBEF2BFFEEFE
:101096003AFEED39FDEC38FC9000161208939000EC
:1010A6006EE0702E900012E0FCA3E0FDA3E0FEA32C
:1010B600E0FF900006E0F8A3E0F9A3E0FAA3E0FB66
:1010C600EF2BFFEE3AFEED39FDEC38FC90001212E4
:1010D600089390006FE0702B900012E0FCA3E0FDF7
:1010E600A3E0FEA3E0FF90000EE0F8A3E0F9A3E082
:1010F600FAA3E0FBEF2BFFEE3AFEED39FDEC38FCF0
:10110600A3802B900016E0FCA3E0FDA3E0FEA3E085
:10111600FF90000EE0F8A3E0F9A3E0FAA3E0FBEFEE
:101126002BFFEE3AFEED39FDEC38FC900016120866
:1011360093900012E0F8A3E0F9A3E0FAA3E0FB9095
:101146000073E0FEA3E0FFE4FCFDEB2FFFEA3EFEAA
:10115600ED39FDEC38FC900012120893900016E071
:10116600FCA3E0FDA3E0FEA3E0FF900012E0F8A3DD
:10117600E0F9A3E0FAA3E0FBD312088240629000F4
:1011860016E0F8A3E0F9A3E0FAA3E0FB900012E072
:10119600FCA3E0FDA3E0FEA3E09BFFEE9AFEED9923
:1011A600FDEC98FC900006120893E47F64FEFDFCBB
:1011B600900006E0F8A3E0F9A3E0FAA3E0FBC3126F
:1011C60008825012900006A3A3E0FFA3E0900073EC
:1011D600CFF0A3EFF022900073E4F0A37464F02242
:0711E600E4900073F0A3F098
:0111ED0022DF
:10000E000203CFE86480F8E933E83360110460F04E
:10001E00ED33EC337009E8FCE9FDEAFEEBFF220458
:10002E0060DED3EB9FEA9EE99DE8C2E78CF0C2F753
:10003E0095F0400CE8CCF8E9CDF9EACEFAEBCFFB1F
:10004E0012039A85D0F05804700320D5B3E80470DB
:10005E00075002B2D50203D992D5EC0460F7E4CC76
:10006E00C0E0C398F8603B94186008400DD0E0FBE8
:10007E000203B1E4FBFAC9FC8028E830E406E4C9C7
:10008E00FBE4CAFCE830E305E4C9CACBFCE854073C
:10009E006010F8C3E913F9EA13FAEB13FBEC13FC47
:1000AE00D8F130F52FC3E49CFCEF9BFFEE9AFEEDEA
:1000BE0099FDD0E0FBEF4E4D4C701222DB03020394
:1000CE00D6EC2CFCEF33FFEE33FEED33FDED30E7D7
:1000DE00EB0203B1EF2BFFEE3AFEED39FDD0E0FB64
:1000EE0050130BBB00030203D9ED13FDEE13FEEF0D
:0800FE0013FFEC13FC0203B137
:10010600EC4D6011E8497017ED33EC3304600DE4F3
:10011600FCFFFEFD22E933E8330470F80203CF1238
:10012600039A58046009E4CC248150062850090239
:1001360003D92840030203D6C0E0EB4A7044B980D5
:1001460006D0E0FB0203C5EF4E701CBD8008EBFF36
:10015600EAFEE9FD80EBE98DF0A4FEE5F00201EF91
:10016600E9CDF9EAFEEBFFEF89F0A4FCE5F0CE89D4
:10017600F0A42EFFE435F0CD89F0A42DFEE435F091
:100186008067EF4E7005BD80D780C3EF8BF0A4ACBF
:10019600F0EE8BF0A42CFCE435F0F8EF8AF0A42CFA
:1001A600E5F038FCE433CB8DF0A42CFCE5F03BF80D
:1001B600EE8AF0A42CFCE5F038F8E433CF89F0A4FD
:1001C6002CFCE5F038CF3400CE89F0A42FFFE5F003
:1001D6003EFEE433C98DF0A42EFEE5F039CD8AF05B
:1001E600A42FFFE5F03EFEE43DFD33D0E0FB5007D3
:1001F6000BBB000F0203D9EC2CFCEF33FFEE33FEF2
:06020600ED33FD0203B11F
:10020C000203D9EC5D046005E8590470030203CFC6
:10021C0012039A580460F6EC4860F2EC7004FDFE90
:10022C00FF22C860DB2481C85009C39860025006C5
:10023C000203D69850CAF582E9294B4A7005AB8265
:10024C000203C575F0007C1A7880C3EF9BEE9AED23
:10025C0099400DC3EF9BFFEE9AFEED99FDE842F03D
:10026C00DC23ACF0D0E0FFD0E0FED0E0FDAB822090
:10027C00E7101BEB60BAEC2CFCEF33FFEE33FEED1A
:10028C0033FD0203B1E803F830E705C0F075F00068
:10029C00EF2FFFEE33FEED33FD40B830E7C280AAFE
:1002AC0074F8CC6480CCC86480C8F58204604FC3F9
:1002BC00EB9FF5F0EA9E42F0E99D42F0E89C45F098
:1002CC00603C501DE5825FFFE582D313CB5BCBF422
:1002DC002B5582FB50280ABA002409B9002008804B
:1002EC001DE5825BFBE582D313CF5FCFF4C3132FE5
:1002FC005582FF50090EBE00050DBD00010CC3EB6D
:10030C009FF5F0EA9E42F0E99D42F0E89C45F060D2
:09031C0007CC4820E701B3EC22F4
:1003250075F020800E75F010800575F0087D007E53
:10033500007F003392D530D50312085EEC334010B0
:10034500EF33FFEE33FEED33FDEC33FCD5F0ED225C
:0E035500E5F0247EA2D513CC92E7CDCEFF2298
:10036300EDD2E7CD33EC3392D524814006E4FFFE92
:10037300FDFC22FCE4CFCECDCC24E0501174FF80F1
:10038300EDC3CC13CCCD13CDCE13CECF13CF04708E
:07039300F030D5DE02085E28
:10094300E50D2434F582E43400F583E0050D2290AF
:100953000031301003900034E475F0011208D00226
:10096300068C2009E97F2ED2098018EF540F2490BA
:10097300D43440D4FF300D0BEF24BFB41A0050031E
:100983002461FFE50E6002150E0511E511700205E5
:100993001030100E900031E475F0011208D0EF0210
:1009A30006D20227A97403D2108003E4C210F50D06
:1009B3009000311208E7E4F50EF510F511E50E602D
:1009C300077F2012098680F5750FFFC20AC209C28C
:1009D3000BC20CC20EC20FC211120952FF700D30AE
:1009E30010057F00120997AF11AE1022B4255FC224
:1009F300D5C20D120952FF24D0B40A00501A75F063
:100A03000A780E30D50508B6FF0106C6A426F620DF
:100A1300D5047002D20C80D924CFB41A00EF50044D
:100A2300C2E5D20D020C89D20A80C6D20980C0D297
:100A33000B80BCD2D580BAD20E80B47F2012098637
:100A4300200B077401B50E0040F1120943FF120990
:100A5300860209C0D211D20F8095120943FB1209F5
:100A630043FA120943F94A4B700679877A0D7BFFE3
:100A7300200B2EE50E602A7E008E827583001206FF
:100A8300A560060EEE650F70F0C2D5EBC0E0EAC0BC
:100A9300E0E9C0E0EE120CEAD0E0F9D0E0FAD0E0F1
:100AA300FB12068CFF60AAEBC0E0EAC0E0E9C0E0FD
:100AB300120986D0E02401F9D0E03400FAD0E0FB3B
:100AC300E50F0460DCD50FD98087D20B80A2120C0E
:100AD300CC60F7E50F7001041203E4A90F600DE584
:100AE3000F600914F50F120D74EF60F3EA30E7029B
:100AF300F404C3995079EAF4250F0430E701E404C0
:100B0300F50F800D120CCC60C1EA050F250F1203FF
:100B1300E4EA900060F030E701E4250F04D50F0408
:100B2300200E0114120CEAE4C0E0120D7490006070
:100B3300E0601320E70714F012096E802204F0D05E
:100B4300E014C0E07F0012096EE50F60071209652B
:100B5300150F800B300E03120965D0E00209C0D0D7
:100B6300E00480C4120CCC609EE50F041203E490F1
:100B73000060EAF0E50F200E026001042404120C69
:010B8300EA87
:100B840074FF04C0E0120D7412096EE50F200E020A
:100B94006003120965D0E0B50FE87F45120978902B
:100BA4000060E07F2B30E7047F2DF404C0E01209DD
:100BB40086D0E075F00A84C0F012096FD0E0120903
:100BC4006F0209C0791080027908C20FC21180082F
:100BD400D2D5790A8004790AC2D5E50F047002F5EA
:100BE4000FE4FAFDFEFF120943FC7B08200A1312EE
:100BF4000943FD7B1030090A120943FE120943FF21
:100C04007B20EC3382D592D55013C3E43009069F80
:100C1400FFE49EFEE4200A039DFDE49CFCE4CBF883
:100C2400C20AEC700CCFCECDCCE824F8F870F38077
:100C340017C3EF33FFEE33FEED33FDEC33FCEB3340
:100C4400FB994002FB0FD8E9EB300A05F8D0E0C469
:100C540048B20AC0E00AEC4D4E4F78207B0070C2C7
:100C6400EAB50F0040BCC0E0120CECD0F0D0E0209C
:100C74000A04C4C0E0C4B20AC0F012096FD0F0D5AF
:100C8400F0EB0209C01208F00A5D530BC8580A2E93
:100C94004C0A2A420BCC4F0BD4440BD4490A43438D
:100CA4000BDA550B07460B67450AD1470DA7500AC7
:100CB400322D0A362E0A592B0A3A230A57200D9050
:100CC4002A09F24800000A51E50FB4FF03750F0624
:100CD400120943FC120943FD120943FE120943FFA2
:100CE400900059020421790AA2D5200C14300E096F
:100CF400B910020404B9080104A2D5200F0250015E
:100D040004200B68920BB50E005034C0E07F2030F5
:100D14000C197F30A20B720F720E500F120D43C2CA
:100D24000BC20FC20EC2117F30800F300E03E9C018
:100D3400E0120986300E03D0E0F9D0E0B50ECC30D5
:100D44000E177F30B9100C1209867F58300D077FBB
:100D5400788003B90803120986300B057F2D020938
:100D6400867F202011F87F2B200FF322920B80CF57
:100D74007F00B40700500B2459F582E43400F58356
:100D8400E0FF22286E756C6C2900D20A12094330E8
:100D94000AF8C20A780E30D50108F60209F22D507D
:100DA4004349581209432403B405004001E4900D5B
:100DB400A293120977743A120977D20C750E0402C1
:020DC4000BC85A
:10039A00E9D2E7C933E833F892D5EDD2E7CD33ECA9
:0703AA0033FC5002B2D52222
:1003B100EC30E7100FBF000C0EBE00080DBD0004AD
:1003C1000BEB6014A2D5EB13FCED92E7FD2274FF59
:1003D100FCFDFEFF22E480F8A2D574FF13FC7D80B2
:0303E100E480EFC6
:1003E400F920E73624F950037907E4F42402FBE505
:1003F40082158270021583DBF6E024FB501BE96052
:1004040014E4F0E582158270021583E004F0B40A66
:0D04140008E4F0D9EE7401F00A22C2D522EE
:10042100ED33EC3392D5FA602AB4FF33EDC2E77BAA
:10043100FF60067A047946E4227A04794F20D504D4
:100441007A04794A224E614E002B494E46002D49CD
:100451004E4600E47A08F0A3DAFC7B00740722C060
:1004610083C082ECC0E0EDC0E0EEC0E0EFC0E0EAA6
:1004710075F010A4CAABF075F04DA42BFBE435F078
:10048100FCEA2410FAEB34C5FBEC34D9FCEDC2E7ED
:10049100FF75F056A4F42411C5F0F434C58FF0A40F
:1004A1002AE5F03BE43CF020E714120556D0E0FFCA
:1004B100D0E0FED0E0FDD0E0FC12020F8014F40485
:1004C100120556D0E0FFD0E0FED0E0FDD0E0FC12F6
:1004D1000106D082D083E0FAEDD2E7CD33EC3324AC
:1004E10082FBE4C3CF33CFCE33CECD33CD33DBF379
:1004F1007B0775F00A846004F0A31B0AE5F0F0A302
:100501008FF0740AA4FFACF08EF0740AA42CFEAC38
:10051100F050010C8DF0740AA42CFDE435F0F0A329
:05052100DBDE7407227F
:100526003F8000004120000042C80000447A0000DD
:10053600461C400047C35000497424004B1896805F
:100546004CBEBC205A0E1BCA6753C21C749DC5AE56
:10055600FB60065407601C2323120584EB543860A5
:100566000912057012057F120106ECF8EDF9EEFA94
:10057600EFCB22EB12057F80F1543803241C900543
:1005860026FE93FC0EEE93FD0EEE930ECE93FF2207
:10217900021EA6E493A3F8E493A34003F68001F2B8
:1021890008DFF48029E493A3F85407240CC8C33367
:10219900C4540F4420C8834004F456800146F6DF36
:1021A900E4800B0102040810204080902285E47E1F
:1021B900019360BCA3FF543F30E509541FFEE4932B
:1021C900A360010ECF54C025E060A840B8E493A3F2
:1021D900FAE493A3F8E493A3C8C582C8CAC583CA1D
:1021E900F0A3C8C582C8CAC583CADFE9DEE780BED5
:0122F60000E7
:10059600E709F608DFFA8046E709F208DFFA803E47
:1005A60088828C83E709F0A3DFFA8032E309F60834
:1005B600DFFA8078E309F208DFFA807088828C839C
:1005C600E309F0A3DFFA806489828A83E0A3F60850
:1005D600DFFA805889828A83E0A3F208DFFA804C2A
:1005E60080D280FA80C680D4806980F28033801001
:1005F60080A680EA809A80A880DA80E280CA80336A
:1006060089828A83ECFAE493A3C8C582C8CCC583E1
:10061600CCF0A3C8C582C8CCC583CCDFE9DEE780B1
:100626000D89828A83E493A3F608DFF9ECFAA9F030
:10063600EDFB2289828A83ECFAE0A3C8C582C8CC86
:10064600C583CCF0A3C8C582C8CCC583CCDFEADE9F
:10065600E880DB89828A83E493A3F208DFF980CC01
:1006660088F0EF60010E4E60C388F0ED2402B404FA
:100676000050B9F582EB2402B4040050AF232345A1
:0606860082239005E673DB
:10068C00BB010689828A83E0225002E722BBFE026C
:09069C00E32289828A83E493229F
:1006A500BB010CE58229F582E5833AF583E022500A
:1006B50006E92582F8E622BBFE06E92582F8E22254
:0D06C500E58229F582E5833AF583E493226E
:1006D200BB010689828A83F0225002F722BBFE0107
:0206E200F32201
:1006E400EF8DF0A4A8F0CF8CF0A428CE8DF0A42E2A
:0206F400FE22E4
:1006F600C5F0F8A3E028F0C5F0F8E582158270028F
:060706001583E038F0222B
:10070C00A3F8E0C5F025F0F0E582158270021583A0
:06071C00E0C838F0E822FD
:10072200BB010A89828A83F0E5F0A3F0225006F722
:0F07320009A7F01922BBFE06F3E5F009F319221F
:10074100E88FF0A4CC8BF0A42CFCE98EF0A42CFC57
:100751008AF0EDA42CFCEA8EF0A4CDA8F08BF0A4D5
:100761002DCC3825F0FDE98FF0A42CCD35F0FCEB34
:100771008EF0A4FEA9F0EB8FF0A4CFC5F02ECD39F9
:0F078100FEE43CFCEAA42DCE35F0FDE43CFC2266
:1007900075F008758200EF2FFFEE33FECD33CDCC20
:1007A00033CCC58233C5829BED9AEC99E5829840A3
:1007B0000CF582EE9BFEED9AFDEC99FC0FD5F0D680
:1007C000E4CEFBE4CDFAE4CCF9A88222B800C1B9AA
:1007D0000059BA002DEC8BF084CFCECDFCE5F0CBE8
:1007E000F97818EF2FFFEE33FEED33FDEC33FCEB21
:1007F00033FB10D703994004EB99FB0FD8E5E4F9DC
:10080000FA227818EF2FFFEE33FEED33FDEC33FCC8
:10081000C933C910D7059BE99A4007EC9BFCE99ABC
:10082000F90FD8E0E4C9FAE4CCFB2275F010EF2F01
:10083000FFEE33FEED33FDCC33CCC833C810D70701
:100840009BEC9AE899400AED9BFDEC9AFCE899F83C
:0E0850000FD5F0DAE4CDFBE4CCFAE4C8F922CF
:0E085E00C3E49FFFE49EFEE49DFDE49CFC22AB
:10086C00EB9FF5F0EA9E42F0E99D42F0EC6480C803
:06087C0064809845F022A3
:10088200EB9FF5F0EA9E42F0E99D42F0E89C45F0CC
:010892002243
:0C089300ECF0A3EDF0A3EEF0A3EFF022D8
:10089F00A8828583F0D083D0821208B61208B612D0
:1008AF0008B61208B6E473E493A3C583C5F0C583F5
:1008BF00C8C582C8F0A3C583C5F0C583C8C582C8A3
:0108CF002206
:1008D000F8E0FBA3A3E0F925F0F0E58215827002B1
:0708E0001583E0FA38F02255
:0908E700EBF0A3EAF0A3E9F02212
:1008F000D083D082F8E4937012740193700DA3A397
:1009000093F8740193F5828883E4737402936860AA
:06091000EFA3A3A380DFAA
:10091600EC8EF0A4CCC5F0CCCDF8EFA4CEC5F02D6E
:10092600FDE43CFCE8A42EC8C5F03DFDE43CFCEF2C
:0D093600A4FFE5F028FEE43DFDE43CFC22BA
:00000001FF
