:0300000002245681
:0C245600787FE4F6D8FD75812202249DF9
:10231800206B65795F7363616E0D0A000D0A3D3DA0
:102328003D3D3D3D3D3D3D3D3D3D3D3D3D3D3D3DD5
:102338003D3D3D3D3D3D3D3D3D3D3D3D3D3D3D3DC5
:102348000D0A00736B753A4B2564200D0A00736FF4
:1023580066742076657273696F6E3A2573200D0A6C
:1023680000312E30312E3030006761702025642016
:102378000D0A0074696D6572202564200D0A0049F4
:102388006E7075745F566F6C746167655F737464A3
:10239800203D2025640D0A003D3D3D3D3D3D3D3D30
:1023A8003D3D3D3D3D3D3D3D3D3D3D3D3D3D3D3D55
:0D23B8003D3D3D3D3D3D3D3D3D3D0D0A009F
:0D202C004200CB00004100CE004100CD007D
:101CB300E4900000F09000CDE0700A12256E9000D1
:101CC30000EFF08005E4900000F0900000E0640174
:101CD30070369000C4E070307BFF7A2379181209C4
:101CE300C6122B04EF700D7F01122B0A122AE8E4AF
:101CF300FF022A1AE4FF122B0A1224E21226EB90A7
:101D030000CE7401F0022AC6122B04EF6003021DF9
:101D13009B900000E0B40403122AC6900000E06424
:101D230002702A122AC69000AFE0C394045005E063
:101D330004F080069000AF7401F09000CE7401F0BF
:101D43001226EB9000AFE0FF122B22804890000098
:101D5300E064037043122AC69000B0E0C3940550B8
:101D630005E004F08005E49000B0F09000AFE0D30C
:101D730094014016A3E0FF70059000AE8009EFD3F5
:101D83009403400690009C7402F09000B0E0FF12B0
:081D93002B1C1224E21228F0BF
:011D9B002225
:0820EF00900006EEF0A3EFF0F3
:1020F700900081E06402706A9000C4E0640170623D
:10210700900006A3E0FFE4900081F09000B304F094
:10211700900062E0FED3940F4048EED39F400CE05E
:102127009F9000B1F0A37401F08016900062E0FE6A
:10213700C3EF9EFF9000B1F0122ABA9000B274026A
:10214700F09000B1E0FFC394024006EFD39414402F
:1021570007E49000B1F0A3F01228F07D027F02128D
:1021670029DD9000B2E0FDB401149000B1E0FF7EDC
:1021770000900006EE8FF012070EAFF0FE22EDB4CE
:1021870002189000B1E0FFC3900007E09FFF9000A6
:1021970006E09400FEF0A3EFF022900006E0FEA315
:0221A700E0FF57
:0121A9002213
:0C169C00900006ECF0A3EDF0AB07AA06EE
:1016A800E4A3F0A3F0A3F0A37428F0A31208B700F2
:1016B8000000009000101208B700000000C3EB946F
:1016C8005AEA94005003021760AE02AF03AD07ACAC
:1016D80006E4120342E4FBFA797A7844120227906E
:1016E800000C1208AB900006E0FCA3E0FDE4120336
:1016F80042E4FBFA797A7844120227900010120823
:10170800AB90000CE0F8A3E0F9A3E0FAA3E0FBA398
:10171800E0FCA3E0FDA3E0FEA3E0FF120029900097
:101728000CE0F8A3E0F9A3E0FAA3E0FB1202277BA0
:10173800007A80793B784412011E90000C1208ABA5
:10174800E4FFFEFDFC90000CE0F8A3E0F9A3E0FA4A
:10175800A3E0FB1202C450057E007FFF227F147EA7
:10176800AE7DC37C4290000CE0F8A3E0F9A3E0FA58
:10177800A3E0FB1202C4603F403D7F147EAE7DC3F0
:101788007CC290000CE0F8A3E0F9A3E0FAA3E0FB28
:1017980012002D7BCD7ACC79CC783E120227120329
:1017A8007B900008EEF0A3EFF090000BE02FF09094
:1017B800000AE03EF0803C90000CE0F8A3E0F9A3BA
:1017C800E0FAA3E0FB7F147EAE7DC37C42120029C1
:1017D8007BCD7ACC79CC783E12022712037B90001D
:1017E80008EEF0A3EFF0C390000BE09FF090000A22
:1017F800E09EF09000AFE0B4030E90000BE024FBF5
:10180800F090000AE034FFF090000AE0FEA3E0FF49
:0118180022AD
:101A8700E4900000F0A3F0A3F0A3F0A3F0A3F0907C
:101A970000CCE004F070069000CBE004F09000CB9F
:101AA700E0FEA3E0FFE4FCFD7B507AC3F9F8D31214
:101AB70008844003021BACE49000CBF0A3F07B0149
:101AC70090000904F0A37400F0A37404F07A00797D
:101AD70002121952900002E0FEA3E0FFA3E0FCA36C
:101AE700E0FD12169C900000EEF0A3EFF01220EF3D
:101AF700900000EEF0A3EFF0D3900003E0945A902B
:101B07000002E094005003021B99122B04EF705B54
:101B1700FF122B169000CEE0B40121E4F0D3900021
:101B270001E09432900000E094004006E49000A2A7
:101B370080059000A27401F09000A1F0900000E0F1
:101B4700FEA3E0FF7C007D0A1206FC900098EEF0F1
:101B5700A3EFF0120DDE9000B0E0FF122B1C9000F7
:101B6700AFE0FF122B2212272980219000C4E0B496
:101B7700010DE4FF122A1A122AF2122916800D7F8C
:101B870001122B16E4FF122A1A122AF2E49000CD52
:101B9700F022E49000C4F07FFF122B161227C390A7
:051BA70000CD7401F007
:011BAC002216
:101E7D00122ADE12289F1229BED2AF122A8B12000F
:101E8D000E12181912299E7FC87E0012295E7F023C
:101E9D00122AAD122875122AC6122AFB7FB07E04B3
:101EAD00122A327F06122B1C7F06122B227F587EA0
:101EBD0002122A32122AE8122AF21229FC7BFF7A28
:101ECD002379241209C67BFF7A23794B9000347451
:101EDD001FF0A374A8F01209C690003474FFF0A38C
:101EED007423F0A37469F07BFF7A2379561209C627
:101EFD007BFF7A2379719000AFE0FF900034E4F01E
:101F0D00A3EFF01209C67BFF7A23797B9000B0E036
:101F1D00FF900034E4F0A3EFF01209C67BFF7A23A3
:101F2D0079879000B8E0FFA3E0900034CFF0A3EFE5
:101F3D00F01209C67BFF7A2379A01209C6121A87FF
:081F4D00121CB3122B2880F5D1
:0A2ADE00758E5190FE917401F022F4
:102729007F649000B8E07004A3E06402700D90002B
:1027390094E0C313F0A3E013F07F329000A1E0B45A
:102749000102800C9000A1E07009900094A3E0FFC1
:03275900122A1A27
:01275C00225A
:1026EB009000AFE024FE601514601D1460252403D8
:1026FB00702B9000967401F0A374E0F0229000967A
:10270B007402F0A37458F0229000967402F0A37434
:0E271B00BCF0229000967403F0A37420F0220C
:1029FC00E4FFFE1223C5D3EF9440EE94069000B88A
:0D2A0C00E44006F0A37402F022F0A304F0F1
:012A1900229A
:0E2A9F00EF1F70011E144E6004000080F32231
:102A32007D407C03ED1D70011C144C70F7EF1F707C
:062A4200011E144E70EAB3
:012A4800226B
:1029BE0090FF037401F090FF07F090FF02F075B4E2
:0F29CE00817F507E00122A9F90FE9B7449F02259
:102A4900E4FFFE75B50743B440E5B430E5FB53B484
:052A5900DFAEB7AFB6CF
:012A5E002255
:102A5F00E4FFFE75B50343B440E5B430E5FB53B472
:052A6F00DFAEB7AFB6B9
:012A7400223F
:102A7500E4FFFE75B50243B440E5B430E5FB53B45D
:052A8500DFAEB7AFB6A3
:012A8A002229
:0B195200900006EBF0A3EAF0A3E9F020
:10195D0090000C1208B700000000E4900010F0F0A9
:10196D0090000CE0F8A3E0F9A3E0FAA3E0FB122A43
:10197D005FE4FCFDEB2FFFEA3EFEED39FDEC38FC9C
:10198D0090000C1208AB900010E004F0E0C3940539
:10199D0040CE90000CE0FCA3E0FDA3E0FEA3E0FF31
:1019AD00E47B05FAF9F81207E490000C1208ABE499
:1019BD007FA07E0FFDFC90000CE0F8A3E0F9A3E002
:1019CD00FAA3E0FB120759E47BFF7A0FF9F812072F
:1019DD00E4900006E0FBA3E0FAA3E0F9EE8FF0122D
:1019ED00073A7F147E00122A9F90000C1208B70050
:1019FD00000000E4900010F090000CE0F8A3E0F976
:101A0D00A3E0FAA3E0FB122A49E4FCFDEB2FFFEA69
:101A1D003EFEED39FDEC38FC90000C1208AB900049
:101A2D0010E004F0E0C3940540CE90000CE0FCA360
:101A3D00E0FDA3E0FEA3E0FFE47B05FAF9F8120751
:101A4D00E490000C1208ABE47FA07E0FFDFC90002B
:101A5D000CE0F8A3E0F9A3E0FAA3E0FB120759E4C8
:101A6D007BFF7A0FF9F81207E4900009E0FBA3E081
:0A1A7D00FAA3E0F9EE8FF002073A39
:1023C5009000001208B700000000E4900004F0F04F
:1023D500900000E0F8A3E0F9A3E0FAA3E0FB122ADD
:1023E50075E4FCFDEB2FFFEA3EFEED39FDEC38FC14
:1023F5009000001208AB900004E004F0E0C39405DF
:1024050040CE900000E0FCA3E0FDA3E0FEA3E0FFCA
:10241500E47B05FAF9F81207E49000001208ABE432
:102425007FA07E0FFDFC900000E0F8A3E0F9A3E09B
:10243500FAA3E0FB120759E4FB7A10F9F81207E456
:102445009000001208AB900000A3A3E0FEA3E0FFFC
:012455002264
:101BAD000D0A3D3D3D3D3D3D3D3D3D3D3D3D3D3DBB
:101BBD003D3D3D3D3D3D3D3D3D3D3D3D3D3D3D3D48
:101BCD003D3D3D3D3D3D3D3D3D3D0D0A00706F7739
:101BDD006572206F6E20666C617368206761703A64
:101BED002564202074696D65723A2564200D0A0004
:101BFD00706F776572206F6E20666C6173682076EA
:101C0D00616C75653A256420207369676E3A2564A9
:101C1D00200D0A003D3D3D3D3D3D3D3D3D3D3D3DA4
:101C2D003D3D3D3D3D3D3D3D3D3D3D3D3D3D3D3DD7
:101C3D003D3D3D3D3D3D3D3D3D3D3D3D0D0A003D67
:101C4D003D3D3D3D3D3D3D3D3D3D3D3D66697273F7
:101C5D007420696E697420646174613D3D3D3D3D44
:101C6D003D3D3D3D3D3D200D0A0030782530345839
:101C7D0020203078253034582020307825303458C5
:101C8D002020307825303458200D0A00666C6173A1
:101C9D0068206761703A2564202074696D65723A19
:061CAD002564200D0A0071
:102039004500AF00000000004400B4202005014124
:0820490000BA014200B80000DA
:062B04009000BAE0FF2280
:062B0A009000BAEFF0227A
:10293C00D310AF01C3C0D075FDF075FC0F8EFA8FAC
:10294C00F975FDD275FC2D75FDE175FC1ED0D0928C
:02295C00AF22A8
:1028C800D310AF01C3C0D08FFB75FDF075FC0FAE00
:1028D80004AF058EFA8FF975FDB475FC4B75FDE1F3
:0828E80075FC1ED0D092AF2256
:0C25F1007B017A0079AF7D057F047E3C01
:1025FD00D310AF01C3C0D0900008EEF0A3EFF0A34D
:0B260D00EDF0A3EBF0A3EAF0A3E9F06E
:10261800E4A3F0C2AFF090000AE0FF90000EE0C320
:102628009F502C90000BE0FBA3E475F001120724E7
:10263800A9F0FA1206A4FF900008E475F001120749
:1026480024ADF0FC1228C890000EE004F080C7D238
:01265800AFD2
:05265900D0D092AF2279
:040003008F828E83D7
:03000700E493FF80
:01000A0022D3
:1026AB00900008EEF0A3EFF0A3EBF0A3EAF0A3E9A0
:1026BB00F0AF051DEF6028900008E475F0011207DC
:1026CB002485F082F583E493FF90000AE0FBA3E4FA
:1026DB0075F001120724A9F0FAEF1206EA80D22254
:10275D00E4FDFCED2400FFE4343CFE12000374B4F0
:10276D002DF582E43400F583E0B507030C80037F7B
:10277D0000220DEDB404DCECC3940440037F012270
:02278D007F00CB
:01278F002227
:10181900E4900000F090FE927404F012275DEF70DE
:101829000790000004F0807C7BFF7A1B79AD1209D8
:10183900C67B017A0079AF7D057F047E3C1226AB19
:101849007BFF7A1B79DA9000AFE0FF900034E4F077
:10185900A3EFF09000B0E0FF900036E4F0A3EFF0C2
:101869001209C67BFF7A1B79FD9000B1E0FF900059
:1018790034E4F0A3EFF09000B2E0FF900036E4F01A
:10188900A3EFF01209C67BFF7A1C79211209C690D1
:1018990000AFE0D394045006A3E0940540069000FD
:1018A900007401F0900000E06401707A7BFF7A1CFB
:1018B900794C1209C69000AF7401F0A3F07F007E45
:1018C9003C12293CFB7A0079B47D041225FD1225CE
:1018D900F17B017A0079B47D047F007E3C1226AB4E
:1018E9007BFF7A1C79779000B4E0FF900034E4F034
:1018F900A3EFF09000B5E0FF900036E4F0A3EFF01D
:101909009000B6E0FF900038E4F0A3EFF09000B744
:10191900E0FF90003AE4F0A3EFF01209C67BFF7AEA
:101929001C79211209C67BFF7A1C79999000AFE0D6
:10193900FF900034E4F0A3EFF09000B0E0FF9000D6
:0919490036E4F0A3EFF00209C638
:1028F0007F047E3C12293C7B017A0079B47D047F01
:10290000001225FD1225F17B017A0079AF7D057F4C
:06291000047E3C0226AB30
:102051005E006300000000000000000000000000BE
:10206100000000000000000000000000000000006F
:0920710000410081004100620001
:10289F0090FF1674C1F090FF157460F090FFA07454
:1028AF0026F090FFA114F075CEFF75CD9875CC066C
:0928BF00759E02759810D2AC223E
:0C2ABA00C2AC8F993099FDC299D2AC22B9
:032B2C00022ABAC0
:0B27F10090000DEBF0A3EAF0A3E9F06C
:1027FC00E4FEEEC39D501A90000DE0FBA3E0FAA39B
:10280C00E0F98E827583001206BDFF122B2C0E8010
:01281C00E1DA
:01281D002298
:1029DD009000087455F0A3EFF0A3EDF0A3740DF083
:0F29ED00A3740AF07B017A0079087D050227F1B7
:062B1000AE07122ABA22F2
:0300230002265E54
:0D265E00C0E0C083C082C0D075D000C007AE
:10266B00E59830E030AF995398FE900081E014600C
:10267B0019047021EFB4551D900063F0900061E0D8
:10268B0004F09000817401F0800B900062EFF090E9
:05269B0000817402F053
:0B26A000D007D0D0D082D083D0E03231
:10207A004100C4004100BB004200BC00004100BE58
:0F208A00004200BF00004100C1014200C200003F
:10000E0090FF177460F090FF00F090FF01F090FFEA
:05001E001074C0F02287
:1021AA00E4900002F0A28133900001F09000BBE0BD
:1021BA0014602614604E14700302224D2403600337
:1021CA00022256900001E0600302225B9000BCF0FC
:1021DA00A3F09000BB04F08078900001E0706B904F
:1021EA0000BDE004F070069000BCE004F0C390006B
:1021FA00BDE094039000BCE09400403E9000BB74A4
:10220A0002F08036900001E0B40106A37404F08065
:10221A003B9000BDE004F070069000BCE004F0C3FF
:10222A009000BDE094C89000BCE09400400C90007F
:10223A00027405F09000BB7403F07F0A7E00122A34
:10224A0032800E900001E0B401078000E49000BBE8
:06225A00F0900002E0FF1D
:01226000225B
:10226100E4900002F0A28033900001F09000BEE003
:1022710014602614604E14700302230424036003C7
:1022810002230D900001E060030223129000BFF0D1
:10229100A3F09000BE04F08078900001E0706B9094
:1022A10000C0E004F070069000BFE004F0C39000AD
:1022B100C0E094039000BFE09400403E9000BE74E3
:1022C10002F08036900001E0B40106A37404F080AE
:1022D1003B9000C0E004F070069000BFE004F0C342
:1022E1009000C0E094909000BFE09401400C9000F9
:1022F100027406F09000BE7403F07F0A7E00122A79
:1023010032800E900001E0B401078000E49000BE2D
:06231100F0900002E0FF65
:0123170022A3
:10256E001221AABF05037F01229000C1E060122054
:10257E00810F7F327E00122A32E49000C1F07F0478
:10258E0022122261BF0621122B04BF01149000B348
:10259E00E0700E9000C404F09000B3F01228F080AA
:1025AE003FE49000C4F080389000C1E0602330A773
:1025BE000320801D9000C4E070177F32FE122A3275
:1025CE00E49000C1F020A7037F02222080127F0337
:1025DE002230A70C3080093081069000C17401F0C2
:0225EE007F006C
:0125F00022C8
:042099004100CF0033
:102A1A007E009000CFE0FD7C0012092EE47B64FA70
:072A2A00F9F81207E48FDF49
:012A31002282
:10295E00900000EEF0A3EFF090FF1D74C0F090FF1A
:10296E009C7435F09000CF74FFF0F5DE75DD972284
:0D2AAD0075BD17EF75F02BA490FEA0F02270
:042B280043BD102277
:102790007365742074696D65207365636F6E643A48
:1027A00025640D0A0074696D65207365636F6E643E
:1027B0003A2564200D0A0074696D65206F666620F5
:0327C0000D0A00FF
:10209D004200AA00004200A500004200AC00004131
:1020AD00009B0041009C004100AE004100A2004297
:1020BD00009D00004200A3000042009F000041006F
:0820CD00A1004300A700000080
:0C2AC6009000A77401F0E4A3F0A3F0223C
:0A2AE800E49000A7F0A3F0A3F02291
:10284A009000A7E0B40121D2A0A3E475F001120719
:10285A000EFED3E5F094DCEE9405400EC2A0E4909F
:0B286A0000A7F0A3F0A3F022C2A02200
:10297E009000A5EEF0A3EFF0E49000AAF0A3F07B98
:10298E00FF7A277990900034EEF0A3EFF00209C69B
:10281E009000A2E0B4012490009DE475F00112072F
:10282E000EFED3E5F0940EEE9401400FE49000A25C
:0C283E00F090009DF0A3F09000A1F022AB
:1024E200E49000AAF0A3F09000B0E0FF7008900022
:1024F200A5F0A3F08052EFB4010C9000A57407F090
:10250200A304F0E48042EFB4020D9000A5740EF033
:10251200A37410F0E48031EFB4030D9000A5741C95
:10252200F0A37420F0E48020EFB4040D9000A574B1
:1025320038F0A37440F0E4800FEFB405179000A5C3
:102542007470F0A37480F0E49000ACF0A3F09000FB
:10255200A3F0A3F07BFF7A2779A59000A5E0FFA363
:0C256200E0900034CFF0A3EFF00209C6B7
:102A8B00E490FE80F0F589758CF5758A9643A80263
:042A9B00438810223A
:03000B00021F557C
:101F5500C0E0C0F0C083C082C0D075D000C000C052
:101F650001C002C003C004C005C006C00712284A4C
:101F7500122B04EF706C9000ABE004F0700690003B
:101F8500AAE004F0C39000ABE094F49000AAE094BA
:101F950001407612281ED39000A6E094009000A57B
:101FA500E09400400EA3E024FFF09000A5E034FF8C
:101FB500F080299000B0E060237F01122B0A900089
:101FC500A5E4F0A3F09000ACF0A3F090009CF09095
:101FD50000AEF07BFF7A2779B71209C69000AAE414
:101FE50080249000C4E0B4012090009FE475F001C6
:101FF50012070EFED3E5F09460EE94EA400B9000D4
:10200500C4E4F090009FF0A3F0121D9CD007D00609
:10201500D005D004D003D002D001D000D0D0D082DA
:07202500D083D0F0D0E032BF
:1020D5004200C900004100C8004100C7004100C5D9
:0520E500004100C600EF
:1028750043D1E890FF62E04406F090FF61E0440830
:10288500F090FF60E04410F090FF6AE044F8F0C279
:0A28950097C296C295C294C2932226
:062B16009000C7EFF02261
:092AF2009000C974CEF0A3F0229B
:1027C3009000C5E070129000C974CEF0A3F0122AF5
:1027D300E89000C57401F0229000C5E0B4010E90AA
:0D27E30000C974FFF0122AC6E49000C5F092
:0127F00022C6
:102916009000C6E0FF700F9000C974CEF0A3F0904F
:1029260000C67401F022EFB4010B9000C97404F0E4
:05293600E49000C6F072
:01293B002279
:062B1C009000CAEFF02258
:062B22009000C9EFF02253
:092AFB009000C974CCF0A3F02294
:101D9C009000C7E0FF600EF4600B9000C4E064019B
:101DAC006003021E7243D1E89000C8E0B408004002
:101DBC0003021E6C901DC7F8282873021DDF021D3C
:101DCC00EF021E00021E13021E28021E38021E49BC
:101DDC00021E5C53D1EF1214B91212069000C87493
:101DEC0001F022C292D2911214BD1212069000C8B8
:101DFC007402F022C292C291D2A31214BF12120624
:101E0C009000C87403F022C292C291C2A3D2B41241
:101E1C0014C11212069000C87404F02243D110129F
:101E2C0014B91212069000C87405F022C292D29115
:101E3C001214BD1212069000C87406F022C292C28F
:101E4C0091D2A31214BF1212069000C87407F0228C
:101E5C00C292C291C2A3D2B41214C1121206800053
:101E6C00E49000C8F0229000C7E0B4010375D1687B
:011E7C002243
:051206009000C9E0FFAB
:10120B00EF12090812720112AA0212E203123A0437
:10121B00135205138A0613C10713FB081435091360
:10122B001A0A14AECC14A3CE146CFF000014B890A1
:10123B0000C8E0FF6003B40404C295C294EF6401DC
:10124B006004EFB40504D295D294EF64026004EF0E
:10125B00B40604D295D294EF64036008EF64076080
:10126B00030214B802149E9000C8E0FF6003B4049C
:10127B0004C295C294EF64016004EFB40504D295E7
:10128B00C294EF64026004EFB40604D295C294EFEB
:10129B0064036008EF640760030214B80213F6904E
:1012AB0000C8E0FF6003B40404D295C294EF64015C
:1012BB006004EFB40504D295C294EF64026004EFAE
:1012CB00B40604C295D294EF64036008EF64076020
:1012DB00030214B80214309000C8E0FF6003B4049A
:1012EB0004D295C294EF64016004EFB40504D29567
:1012FB00C294EF64026004EFB40604D295D294EF6B
:10130B0064036008EF640760030214B8021467906B
:10131B0000C8E0FF6003B40404C295C294EF6401FB
:10132B006004EFB40504D295D294EF64026004EF2D
:10133B00B40604D295D294EF64036008EF6407609F
:10134B00030214B80213F69000C8E0FF6003B40464
:10135B0004D295C294EF64016004EFB40504C29506
:10136B00D294EF64026004EFB40604D295D294EFEA
:10137B0064036008EF640760030214B802146790FB
:10138B0000C8E0FF6003B40404D295C294EF64017B
:10139B006004EFB40504C295D294EF64026004EFCD
:1013AB00B40604D295D294EF64036008EF6407602F
:1013BB00030214B8806F9000C8E0FF6003B404040C
:1013CB00D295C294EF64016004EFB40504D295C2C8
:1013DB0094EF64026004EFB40604D295C294EF64F8
:1013EB00036008EF640760030214B8C295C294222D
:1013FB009000C8E0FF6003B40404D295C294EF647C
:10140B00016004EFB40504D295D294EF640260043A
:10141B00EFB40604D295D294EF64036008EF64072F
:10142B0060030214B8D295D294229000C8E0FF60FA
:10143B0003B40404D295C294EF64016004EFB405C5
:10144B0004D295D294EF64026004EFB40604D295F3
:10145B00D294EF64036005EF64077051D295C29488
:10146B00229000C8E0FF6003B40404D295C294EF4D
:10147B0064016004EFB40504C295D294EF6402607A
:10148B0004EFB40604C295D294EF64036005EF64D5
:10149B0007701AC295D29422C297C296C295C29473
:0E14AB00C29322D297D296D295D294D2932297
:0D14B900D292C291C2A3C2B49000CAE0FF5B
:1014C600EFB40700400302169B9014D6F828287341
:1014D6000214EB0215290215670215A50215E20290
:1014E600161F02165E9000C8E0FF6003B40406C231
:1014F60097C296C293EF64016004EFB40506D297D3
:10150600D296D293EF64026004EFB40606C297D275
:1015160096C293EF64036046EF6407600302169B6E
:101526000216579000C8E0FF6003B40406D297C2C3
:1015360096C293EF64016004EFB40506D297D29683
:10154600D293EF64026004EFB40606C297C296C255
:1015560093EF64036008EF6407600302169B0216AC
:10156600579000C8E0FF6003B40406C297C296C253
:1015760093EF64016004EFB40506D297D296D29336
:10158600EF64026004EFB40606D297C296C293EFE8
:1015960064036008EF6407600302169B0216579007
:1015A60000C8E0FF6003B40406C297C296D293EF68
:1015B60064016004EFB40506D297D296D293EF6425
:1015C600026004EFB40606C297C296C293EF6403A4
:1015D6006008EF6407600302169B80759000C8E000
:1015E600FF6003B40406C297D296C293EF6401600B
:1015F60004EFB40506D297D296D293EF6402600444
:10160600EFB40606C297C296C293EF64036008EF72
:101616006407600302169B80389000C8E0FF6003F1
:10162600B40406C297C296C293EF64016004EFB495
:101636000506D297D296D293EF64026004EFB40601
:1016460006C297C296D293EF64036005EF640770F3
:1016560044D297D296D293229000C8E0FF6003B49A
:101666000406C297C296C293EF64016004EFB40504
:1016760006C297C296C293EF64026004EFB40606F0
:10168600C297C296C293EF64036004EFB40706C222
:0616960097C296C29322E8
:0C2AD200000000000000000000000000F8
:0420EA0041009A0017
:10299E00E4900098F0A3F0900094F0A3F0A3F0A3BD
:1029AE00F090009304F0900092F090009104F022C9
:100DDE0078067C007D017BFF7A2A79D27E007F0C1B
:100DEE0012067E9000121208B70000000090001646
:100DFE001208B700000000900098E0FEA3E0FF90FC
:100E0E000096E0FCA3E0FDD39FEC9E50030211FE82
:100E1E00ED9FFFEC9EFED3EF9464EE940040030230
:100E2E0011F4E4FCFD9000061208ABE490008FF084
:100E3E00900086E0FCA3E0FDA3E0FEA3E0FFA3127A
:100E4E0008AB900082E0FCA3E0FDA3E0FEA3E0FF70
:100E5E00A31208AB900006E0FCA3E0FDA3E0FEA306
:100E6E00E0FF9000821208AB900086E0FCA3E0FD4C
:100E7E00A3E0FEA3E0FF900082E0F8A3E0F9A3E078
:100E8E00FAA3E0FBD312089A4033900086E0F8A351
:100E9E00E0F9A3E0FAA3E0FB900082E0FCA3E0FD02
:100EAE00A3E0FEA3E09BFFEE9AFEED99FDEC98FC0D
:100EBE009000061208ABE490008EF0803190008214
:100ECE00E0F8A3E0F9A3E0FAA3E0FBA3E0FCA3E0C3
:100EDE00FDA3E0FEA3E0C39BFFEE9AFEED99FDECB1
:100EEE0098FC9000061208AB90008E7401F0E47F1F
:100EFE0002FEFDFC900086E0F8A3E0F9A3E0FAA361
:100F0E00E0FB12075990000E1208AB90008AE0FC2D
:100F1E00A3E0FDA3E0FEA3E0FF900082E0F8A3E0D3
:100F2E00F9A3E0FAA3E02FFFEA3EFEE93DFDE83C1F
:100F3E00FC90000EE0F8A3E0F9A3E0FAA3E0FBC3F7
:100F4E0012089A504B90008AE0FCA3E0FDA3E0FE4D
:100F5E00A3E0FF900082E0F8A3E0F9A3E0FAA3E09B
:100F6E002FFFEA3EFEE93DFDE83CFC90000EE0F866
:100F7E00A3E0F9A3E0FAC3EF9BFFEE9AFEED99FD15
:100F8E00EC98FC90000E1208ABE4900090F0805D9F
:100F9E0090000EE0FCA3E0FDA3E0FEA3E0FFC00482
:100FAE00C005C006C00790008AE0FCA3E0FDA3E0E8
:100FBE00FEA3E0FF900082E0F8A3E0F9A3E0FAA31D
:100FCE00E02FFBEA3EFAE93DF9E83CF8D007D006FF
:100FDE00D005D004C3EF9BFFEE9AFEED99FDEC9881
:100FEE00FC90000E1208AB9000907401F0900091EE
:100FFE00E0FFE4FCFDFE900006E0F8A3E0F9A3E0BC
:10100E00FAA3E0FB1207599000061208AB9000926B
:10101E00E0FFE4FCFDFE900082E0F8A3E0F9A3E01F
:10102E00FAA3E0FB12075990000A1208AB90009346
:10103E00E0FFE4FCFDFE90000EE0F8A3E0F9A3E073
:10104E00FAA3E0FB12075990000E1208AB90008E27
:10105E00E0702D900012E0FCA3E0FDA3E0FEA3E003
:10106E00FF900006E0F8A3E0F9A3E0FAA3E0FBEF9F
:10107E002BFFEE3AFEED39FDEC38FC900012802B82
:10108E00900016E0FCA3E0FDA3E0FEA3E0FF9000BD
:10109E0006E0F8A3E0F9A3E0FAA3E0FBEF2BFFEEE6
:1010AE003AFEED39FDEC38FC9000161208AB9000BC
:1010BE008FE0702E900012E0FCA3E0FDA3E0FEA3F3
:1010CE00E0FF900006E0F8A3E0F9A3E0FAA3E0FB4E
:1010DE00EF2BFFEE3AFEED39FDEC38FC90001212CC
:1010EE0008AB900090E0702B900012E0FCA3E0FDA6
:1010FE00A3E0FEA3E0FF90000EE0F8A3E0F9A3E06A
:10110E00FAA3E0FBEF2BFFEE3AFEED39FDEC38FCD7
:10111E00A3802B900016E0FCA3E0FDA3E0FEA3E06D
:10112E00FF90000EE0F8A3E0F9A3E0FAA3E0FBEFD6
:10113E002BFFEE3AFEED39FDEC38FC90001612084E
:10114E00AB900012E0F8A3E0F9A3E0FAA3E0FB9065
:10115E000094E0FEA3E0FFE4FCFDEB2FFFEA3EFE71
:10116E00ED39FDEC38FC9000121208AB900016E041
:10117E00FCA3E0FDA3E0FEA3E0FF900012E0F8A3C5
:10118E00E0F9A3E0FAA3E0FBD312089A40629000C4
:10119E0016E0F8A3E0F9A3E0FAA3E0FB900012E05A
:1011AE00FCA3E0FDA3E0FEA3E09BFFEE9AFEED990B
:1011BE00FDEC98FC9000061208ABE47F64FEFDFC8B
:1011CE00900006E0F8A3E0F9A3E0FAA3E0FBC31257
:1011DE00089A5012900006A3A3E0FFA3E09000949B
:1011EE00CFF0A3EFF022900094E4F0A37464F02209
:0711FE00E4900094F0A3F05F
:0112050022C6
:100026000203E7E86480F8E933E83360110460F01E
:10003600ED33EC337009E8FCE9FDEAFEEBFF220440
:1000460060DED3EB9FEA9EE99DE8C2E78CF0C2F73B
:1000560095F0400CE8CCF8E9CDF9EACEFAEBCFFB07
:100066001203B285D0F05804700320D5B3E80470AB
:10007600075002B2D50203F192D5EC0460F7E4CC46
:10008600C0E0C398F8603B94186008400DD0E0FBD0
:100096000203C9E4FBFAC9FC8028E830E406E4C997
:1000A600FBE4CAFCE830E305E4C9CACBFCE8540724
:1000B6006010F8C3E913F9EA13FAEB13FBEC13FC2F
:1000C600D8F130F52FC3E49CFCEF9BFFEE9AFEEDD2
:1000D60099FDD0E0FBEF4E4D4C701222DB0302037C
:1000E600EEEC2CFCEF33FFEE33FEED33FDED30E7A7
:1000F600EB0203C9EF2BFFEE3AFEED39FDD0E0FB34
:1001060050130BBB00030203F1ED13FDEE13FEEFDC
:0801160013FFEC13FC0203C906
:10011E00EC4D6011E8497017ED33EC3304600DE4DB
:10012E00FCFFFEFD22E933E8330470F80203E71208
:10013E0003B258046009E4CC248150062850090209
:10014E0003F12840030203EEC0E0EB4A7044B9808D
:10015E0006D0E0FB0203DDEF4E701CBD8008EBFF06
:10016E00EAFEE9FD80EBE98DF0A4FEE5F002020760
:10017E00E9CDF9EAFEEBFFEF89F0A4FCE5F0CE89BC
:10018E00F0A42EFFE435F0CD89F0A42DFEE435F079
:10019E008067EF4E7005BD80D780C3EF8BF0A4ACA7
:1001AE00F0EE8BF0A42CFCE435F0F8EF8AF0A42CE2
:1001BE00E5F038FCE433CB8DF0A42CFCE5F03BF8F5
:1001CE00EE8AF0A42CFCE5F038F8E433CF89F0A4E5
:1001DE002CFCE5F038CF3400CE89F0A42FFFE5F0EB
:1001EE003EFEE433C98DF0A42EFEE5F039CD8AF043
:1001FE00A42FFFE5F03EFEE43DFD33D0E0FB5007BB
:10020E000BBB000F0203F1EC2CFCEF33FFEE33FEC1
:06021E00ED33FD0203C9EF
:100224000203F1EC5D046005E8590470030203E77E
:100234001203B2580460F6EC4860F2EC7004FDFE60
:10024400FF22C860DB2481C85009C39860025006AD
:100254000203EE9850CAF582E9294B4A7005AB8235
:100264000203DD75F0007C1A7880C3EF9BEE9AEDF3
:1002740099400DC3EF9BFFEE9AFEED99FDE842F025
:10028400DC23ACF0D0E0FFD0E0FED0E0FDAB822078
:10029400E7101BEB60BAEC2CFCEF33FFEE33FEED02
:1002A40033FD0203C9E803F830E705C0F075F00038
:1002B400EF2FFFEE33FEED33FD40B830E7C280AAE6
:1002C40074F8CC6480CCC86480C8F58204604FC3E1
:1002D400EB9FF5F0EA9E42F0E99D42F0E89C45F080
:1002E400603C501DE5825FFFE582D313CB5BCBF40A
:1002F4002B5582FB50280ABA002409B90020088033
:100304001DE5825BFBE582D313CF5FCFF4C3132FCC
:100314005582FF50090EBE00050DBD00010CC3EB54
:100324009FF5F0EA9E42F0E99D42F0E89C45F060BA
:0903340007CC4820E701B3EC22DC
:10033D0075F020800E75F010800575F0087D007E3B
:10034D00007F003392D530D503120876EC33401080
:10035D00EF33FFEE33FEED33FDEC33FCD5F0ED2244
:0E036D00E5F0247EA2D513CC92E7CDCEFF2280
:10037B00EDD2E7CD33EC3392D524814006E4FFFE7A
:10038B00FDFC22FCE4CFCECDCC24E0501174FF80D9
:10039B00EDC3CC13CCCD13CDCE13CECF13CF047076
:0703AB00F030D5DE020876F8
:10095B00E50D2434F582E43400F583E0050D229097
:10096B000031301003900034E475F0011208E802F6
:10097B0006A42009E97F2ED2098018EF540F24908A
:10098B00D43440D4FF300D0BEF24BFB41A00500306
:10099B002461FFE50E6002150E0511E511700205CD
:1009AB001030100E900031E475F0011208E8EF02E0
:1009BB0006EA022B107403D2108003E4C210F50D6B
:1009CB009000311208FFE4F50EF510F511E50E60FD
:1009DB00077F2012099E80F5750FFFC20AC209C25C
:1009EB000BC20CC20EC20FC21112096AFF700D307E
:1009FB0010057F001209AFAF11AE1022B4255FC2F4
:100A0B00D5C20D12096AFF24D0B40A00501A75F032
:100A1B000A780E30D50508B6FF0106C6A426F620C7
:100A2B00D5047002D20C80D924CFB41A00EF500435
:100A3B00C2E5D20D020CA1D20A80C6D20980C0D267
:100A4B000B80BCD2D580BAD20E80B47F2012099E07
:100A5B00200B077401B50E0040F112095BFF120960
:100A6B009E0209D8D211D20F809512095BFB120995
:100A7B005BFA12095BF94A4B7006799F7A0D7BFF83
:100A8B00200B2EE50E602A7E008E827583001206E7
:100A9B00BD60060EEE650F70F0C2D5EBC0E0EAC08C
:100AAB00E0E9C0E0EE120D02D0E0F9D0E0FAD0E0C0
:100ABB00FB1206A4FF60AAEBC0E0EAC0E0E9C0E0CD
:100ACB0012099ED0E02401F9D0E03400FAD0E0FB0B
:100ADB00E50F0460DCD50FD98087D20B80A2120CF6
:100AEB00E460F7E50F7001041203FCA90F600DE53C
:100AFB000F600914F50F120D8CEF60F3EA30E7026B
:100B0B00F404C3995079EAF4250F0430E701E404A7
:100B1B00F50F800D120CE460C1EA050F250F1203CF
:100B2B00FCEA900060F030E701E4250F04D50F04D8
:100B3B00200E0114120D02E4C0E0120D8C90006027
:100B4B00E0601320E70714F0120986802204F0D02E
:100B5B00E014C0E07F00120986E50F600712097DE3
:100B6B00150F800B300E0312097DD0E00209D8D08F
:100B7B00E00480C4120CE4609EE50F041203FC90A9
:100B8B000060EAF0E50F200E026001042404120D50
:010B9B000257
:100B9C0074FF04C0E0120D8C120986E50F200E02C2
:100BAC00600312097DD0E0B50FE87F4512099090E3
:100BBC000060E07F2B30E7047F2DF404C0E01209C5
:100BCC009ED0E075F00A84C0F0120987D0E01209BB
:100BDC00870209D8791080027908C20FC2118008E7
:100BEC00D2D5790A8004790AC2D5E50F047002F5D2
:100BFC000FE4FAFDFEFF12095BFC7B08200A1312BE
:100C0C00095BFD7B1030090A12095BFE12095BFFC0
:100C1C007B20EC3382D592D55013C3E43009069F68
:100C2C00FFE49EFEE4200A039DFDE49CFCE4CBF86B
:100C3C00C20AEC700CCFCECDCCE824F8F870F3805F
:100C4C0017C3EF33FFEE33FEED33FDEC33FCEB3328
:100C5C00FB994002FB0FD8E9EB300A05F8D0E0C451
:100C6C0048B20AC0E00AEC4D4E4F78207B0070C2AF
:100C7C00EAB50F0040BCC0E0120D04D0F0D0E0206B
:100C8C000A04C4C0E0C4B20AC0F0120987D0F0D57F
:100C9C00F0EB0209D81209080A75530BE0580A4602
:100CAC004C0A42420BE44F0BEC440BEC490A5B43FD
:100CBC000BF2550B1F460B7F450AE9470DBF500A37
:100CCC004A2D0A4E2E0A712B0A52230A6F200DA8A8
:100CDC002A0A0A4800000A69E50FB4FF03750F06DB
:100CEC0012095BFC12095BFD12095BFE12095BFF2A
:100CFC00900059020439790AA2D5200C14300E093F
:100D0C00B910020404B9080104A2D5200F02500145
:100D1C0004200B68920BB50E005034C0E07F2030DD
:100D2C000C197F30A20B720F720E500F120D5BC29A
:100D3C000BC20FC20EC2117F30800F300E03E9C000
:100D4C00E012099E300E03D0E0F9D0E0B50ECC30A5
:100D5C000E177F30B9100C12099E7F58300D077F8B
:100D6C00788003B9080312099E300B057F2D020908
:100D7C009E7F202011F87F2B200FF322920B80CF27
:100D8C007F00B40700500B2459F582E43400F5833E
:100D9C00E0FF22286E756C6C2900D20A12095B30B8
:100DAC000AF8C20A780E30D50108F6020A0A2D504C
:100DBC0043495812095B2403B405004001E4900D2B
:100DCC00BA9312098F743A12098FD20C750E040261
:020DDC000BE02A
:1003B200E9D2E7C933E833F892D5EDD2E7CD33EC91
:0703C20033FC5002B2D5220A
:1003C900EC30E7100FBF000C0EBE00080DBD000495
:1003D9000BEB6014A2D5EB13FCED92E7FD2274FF41
:1003E900FCFDFEFF22E480F8A2D574FF13FC7D809A
:0303F900E480EFAE
:1003FC00F920E73624F950037907E4F42402FBE5ED
:10040C0082158270021583DBF6E024FB501BE96039
:10041C0014E4F0E582158270021583E004F0B40A4E
:0D042C0008E4F0D9EE7401F00A22C2D522D6
:10043900ED33EC3392D5FA602AB4FF33EDC2E77B92
:10044900FF60067A04795EE4227A04796720D5048C
:100459007A047962224E614E002B494E46002D499D
:100469004E4600E47A08F0A3DAFC7B00740722C048
:1004790083C082ECC0E0EDC0E0EEC0E0EFC0E0EA8E
:1004890075F010A4CAABF075F04DA42BFBE435F060
:10049900FCEA2410FAEB34C5FBEC34D9FCEDC2E7D5
:1004A900FF75F056A4F42411C5F0F434C58FF0A4F7
:1004B9002AE5F03BE43CF020E71412056ED0E0FF9A
:1004C900D0E0FED0E0FDD0E0FC1202278014F40455
:1004D90012056ED0E0FFD0E0FED0E0FDD0E0FC12C6
:1004E900011ED082D083E0FAEDD2E7CD33EC33247C
:1004F90082FBE4C3CF33CFCE33CECD33CD33DBF361
:100509007B0775F00A846004F0A31B0AE5F0F0A3E9
:100519008FF0740AA4FFACF08EF0740AA42CFEAC20
:10052900F050010C8DF0740AA42CFDE435F0F0A311
:05053900DBDE74072267
:10053E003F8000004120000042C80000447A0000C5
:10054E00461C400047C35000497424004B18968047
:10055E004CBEBC205A0E1BCA6753C21C749DC5AE3E
:10056E00FB60065407601C232312059CEB54386075
:10057E000912058812059712011EECF8EDF9EEFA34
:10058E00EFCB22EB12059780F1543803241C900513
:10059E003EFE93FC0EEE93FD0EEE930ECE93FF22D7
:10246200021E7DE493A3F8E493A34003F68001F2F5
:1024720008DFF48029E493A3F85407240CC8C3337B
:10248200C4540F4420C8834004F456800146F6DF4A
:10249200E4800B010204081020408090202CE47E8E
:1024A200019360BCA3FF543F30E509541FFEE4933F
:1024B200A360010ECF54C025E060A840B8E493A306
:1024C200FAE493A3F8E493A3C8C582C8CAC583CA31
:1024D200F0A3C8C582C8CAC583CADFE9DEE780BEE9
:0120EE0000F1
:1005AE00E709F608DFFA8046E709F208DFFA803E2F
:1005BE0088828C83E709F0A3DFFA8032E309F6081C
:1005CE00DFFA8078E309F208DFFA807088828C8384
:1005DE00E309F0A3DFFA806489828A83E0A3F60838
:1005EE00DFFA805889828A83E0A3F208DFFA804C12
:1005FE0080D280FA80C680D4806980F280338010E9
:10060E0080A680EA809A80A880DA80E280CA803351
:10061E0089828A83ECFAE493A3C8C582C8CCC583C9
:10062E00CCF0A3C8C582C8CCC583CCDFE9DEE78099
:10063E000D89828A83E493A3F608DFF9ECFAA9F018
:10064E00EDFB2289828A83ECFAE0A3C8C582C8CC6E
:10065E00C583CCF0A3C8C582C8CCC583CCDFEADE87
:10066E00E880DB89828A83E493A3F208DFF980CCE9
:10067E0088F0EF60010E4E60C388F0ED2402B404E2
:10068E000050B9F582EB2402B4040050AF23234589
:06069E0082239005FE73AB
:1006A400BB010689828A83E0225002E722BBFE0254
:0906B400E32289828A83E4932287
:1006BD00BB010CE58229F582E5833AF583E02250F2
:1006CD0006E92582F8E622BBFE06E92582F8E2223C
:0D06DD00E58229F582E5833AF583E4932256
:1006EA00BB010689828A83F0225002F722BBFE01EF
:0206FA00F322E9
:1006FC00EF8DF0A4A8F0CF8CF0A428CE8DF0A42E12
:02070C00FE22CB
:10070E00C5F0F8A3E028F0C5F0F8E5821582700276
:06071E001583E038F02213
:10072400A3F8E0C5F025F0F0E58215827002158388
:06073400E0C838F0E822E5
:10073A00BB010A89828A83F0E5F0A3F0225006F70A
:0F074A0009A7F01922BBFE06F3E5F009F3192207
:10075900E88FF0A4CC8BF0A42CFCE98EF0A42CFC3F
:100769008AF0EDA42CFCEA8EF0A4CDA8F08BF0A4BD
:100779002DCC3825F0FDE98FF0A42CCD35F0FCEB1C
:100789008EF0A4FEA9F0EB8FF0A4CFC5F02ECD39E1
:0F079900FEE43CFCEAA42DCE35F0FDE43CFC224E
:1007A80075F008758200EF2FFFEE33FECD33CDCC08
:1007B80033CCC58233C5829BED9AEC99E58298408B
:1007C8000CF582EE9BFEED9AFDEC99FC0FD5F0D668
:1007D800E4CEFBE4CDFAE4CCF9A88222B800C1B992
:1007E8000059BA002DEC8BF084CFCECDFCE5F0CBD0
:1007F800F97818EF2FFFEE33FEED33FDEC33FCEB09
:1008080033FB10D703994004EB99FB0FD8E5E4F9C3
:10081800FA227818EF2FFFEE33FEED33FDEC33FCB0
:10082800C933C910D7059BE99A4007EC9BFCE99AA4
:10083800F90FD8E0E4C9FAE4CCFB2275F010EF2FE9
:10084800FFEE33FEED33FDCC33CCC833C810D707E9
:100858009BEC9AE899400AED9BFDEC9AFCE899F824
:0E0868000FD5F0DAE4CDFBE4CCFAE4C8F922B7
:0E087600C3E49FFFE49EFEE49DFDE49CFC2293
:10088400EB9FF5F0EA9E42F0E99D42F0EC6480C8EB
:0608940064809845F0228B
:10089A00EB9FF5F0EA9E42F0E99D42F0E89C45F0B4
:0108AA00222B
:0C08AB00ECF0A3EDF0A3EEF0A3EFF022C0
:1008B700A8828583F0D083D0821208CE1208CE1288
:1008C70008CE1208CEE473E493A3C583C5F0C583AD
:1008D700C8C582C8F0A3C583C5F0C583C8C582C88B
:0108E70022EE
:1008E800F8E0FBA3A3E0F925F0F0E5821582700299
:0708F8001583E0FA38F0223D
:0908FF00EBF0A3EAF0A3E9F022FA
:10090800D083D082F8E4937012740193700DA3A37E
:1009180093F8740193F5828883E473740293686092
:06092800EFA3A3A380DF92
:10092E00EC8EF0A4CCC5F0CCCDF8EFA4CEC5F02D56
:10093E00FDE43CFCE8A42EC8C5F03DFDE43CFCEF14
:0D094E00A4FFE5F028FEE43DFDE43CFC22A2
:00000001FF
