:030000000224B720
:0C24B700787FE4F6D8FD7581220224FE37
:1021FD00206B65795F7363616E0D0A00204B455945
:10220D005F325F505245530D0A000D0A3D3D3D3D75
:10221D003D3D3D3D3D3D3D3D3D3D3D3D3D3D3D3DE1
:10222D003D3D3D3D3D3D3D3D3D3D3D3D3D3D0D0A34
:10223D0000736B753A4B2564200D0A00736F66743D
:10224D002076657273696F6E3A2573200D0A003121
:10225D002E30312E303000676170202564200D0A3C
:10226D000074696D6572202564200D0A00496E7039
:10227D0075745F566F6C746167655F737464203D30
:10228D002025640D0A003D3D3D3D3D3D3D3D3D3D1F
:10229D003D3D3D3D3D3D3D3D3D3D3D3D3D3D3D3D61
:0B22AD003D3D3D3D3D3D3D3D0D0A0027
:0D2085004200C800004100CB004100CA002D
:101ED600E4900000F09000CAE0700A1225CF90004E
:101EE60000EFF08005E4900000F0900000E064014F
:101EF60070319000C1E0702B7BFF7A2179FD1209C9
:101F0600C6122B10EF700A7F01122B16E4FF022A6D
:101F160041E4FF122B161225431227479000CB747B
:101F260001F022122B10EF6003021FB2900000E0B6
:101F3600640270307BFF7A2279091209C69000ACE0
:101F4600E0C394045005E004F080069000AC7401F0
:101F5600F09000CB7401F01227479000ACE0FF121E
:101F66002B2E8045900000E0640370409000ADE0A9
:101F7600C394055005E004F08005E49000ADF090B0
:101F860000ACE0D394014016A3E0FF70059000ABCF
:101F96008009EFD39403400690009C7402F09000F1
:0C1FA600ADE0FF122B281225431228F397
:011FB200220C
:08214200900006EEF0A3EFF09F
:10214A00900081E06402706A9000C1E064017062EC
:10215A00900006A3E0FFE4900081F09000B004F044
:10216A00900062E0FED3940F4048EED39F400CE00B
:10217A009F9000AEF0A37401F08016900062E0FE1A
:10218A00C3EF9EFF9000AEF0122ADC9000AF7402FB
:10219A00F09000AEE0FFC394024006EFD3941440DF
:1021AA0007E49000AEF0A3F01228F37D027F02123A
:1021BA0029E69000AFE0FDB401149000AEE0FF7E86
:1021CA0000900006EE8FF012070EAFF0FE22EDB47B
:1021DA0002189000AEE0FFC3900007E09FFF900056
:1021EA0006E09400FEF0A3EFF022900006E0FEA3C2
:0221FA00E0FF04
:0121FC0022C0
:0C169C00900006ECF0A3EDF0AB07AA06EE
:1016A800E4A3F0A3F0A3F0A37428F0A31208B700F2
:1016B8000000009000101208B700000000C3EB946F
:1016C8005AEA94005003021760AE02AF03AD07ACAC
:1016D80006E4120342E4FBFA797A7844120227906E
:1016E800000C1208AB900006E0FCA3E0FDE4120336
:1016F80042E4FBFA797A7844120227900010120823
:10170800AB90000CE0F8A3E0F9A3E0FAA3E0FBA398
:10171800E0FCA3E0FDA3E0FEA3E0FF120029900097
:101728000CE0F8A3E0F9A3E0FAA3E0FB1202277BA0
:10173800007A80793B784412011E90000C1208ABA5
:10174800E4FFFEFDFC90000CE0F8A3E0F9A3E0FA4A
:10175800A3E0FB1202C450057E007FFF227F147EA7
:10176800AE7DC37C4290000CE0F8A3E0F9A3E0FA58
:10177800A3E0FB1202C4603F403D7F147EAE7DC3F0
:101788007CC290000CE0F8A3E0F9A3E0FAA3E0FB28
:1017980012002D7BCD7ACC79CC783E120227120329
:1017A8007B900008EEF0A3EFF090000BE02FF09094
:1017B800000AE03EF0803C90000CE0F8A3E0F9A3BA
:1017C800E0FAA3E0FB7F147EAE7DC37C42120029C1
:1017D8007BCD7ACC79CC783E12022712037B90001D
:1017E80008EEF0A3EFF0C390000BE09FF090000A22
:1017F800E09EF09000ACE0B4030E90000BE024FBF8
:10180800F090000AE034FFF090000AE0FEA3E0FF49
:0118180022AD
:101BC900E4900000F0A3F0A3F0A3F0A3F0A3F09039
:101BD90000C9E004F070069000C8E004F09000C865
:101BE900E0FEA3E0FFE4FCFD7B507AC3F9F8D312D1
:101BF90008844003021CEEE49000C8F0A3F07B01C6
:101C090090000904F0A37400F0A37404F07A007939
:101C190002121A94900002E0FEA3E0FFA3E0FCA3E5
:101C2900E0FD12169C900000EEF0A3EFF0122142A5
:101C3900900000EEF0A3EFF0D3900003E0945A90E7
:101C49000002E094005003021CDB122B10EF705BC2
:101C5900FF122B229000CBE0B40121E4F0D39000D5
:101C690001E09432900000E094004006E49000A264
:101C790080059000A27401F09000A1F0900000E0AE
:101C8900FEA3E0FF7C007D0A1206FC900098EEF0AE
:101C9900A3EFF0120DDE9000ADE0FF122B289000AB
:101CA900ACE0FF122B2E12278580219000C1E0B4F1
:101CB900010DE4FF122A41122AFE12293F800D7FED
:101CC90001122B22E4FF122A41122AFEE49000CAD3
:101CD900F022E49000C1F07FFF122B221229199003
:051CE90000CA7401F0C7
:011CEE0022D3
:101FB300122AF41228A21229C7D2AF12000E122A33
:101FC300B212195B1229A77FC87E001229877F02EC
:101FD300122ACF122878122B077FB07E04122A59B7
:101FE3007F06122B287F06122B2E7F587E02122A81
:101FF30059122AFE122A057BFF7A2279171209C683
:102003007BFF7A22793E900034741FF0A374A8F00A
:102013001209C690003474FFF0A37422F0A3745C19
:10202300F07BFF7A2279491209C67BFF7A22796411
:102033009000ACE0FF900034E4F0A3EFF01209C687
:102043007BFF7A22796E9000ADE0FF900034E4F0DC
:10205300A3EFF01209C67BFF7A22797A9000B5E0EC
:10206300FFA3E0900034CFF0A3EFF01209C67BFF8B
:102073007A2279931209C6121BC9121ED6122B3467
:0220830080F5E6
:0A2AF400758E5190FE917401F022DE
:102785007F649000B5E07004A3E06402700D9000D2
:1027950094E0C313F0A3E013F07F329000A1E0B4FE
:1027A5000102800C9000A1E07009900094A3E0FF65
:0327B500122A41A4
:0127B80022FE
:102747009000ACE024FE601514601D14602524037E
:10275700702B9000967401F0A374E0F0229000961D
:102767007402F0A37458F0229000967402F0A374D8
:0E277700BCF0229000967403F0A37420F022B0
:102A0500E4FFFE122426D3EF9440EE94069000B521
:0D2A1500E44006F0A37402F022F0A304F0E8
:012A22002291
:0E2AC100EF1F70011E144E6004000080F3220F
:102A59007D407C03ED1D70011C144C70F7EF1F7055
:062A6900011E144E70EA8C
:012A6F002244
:1029C70090FF037401F090FF07F090FF02F075B4D9
:0F29D700817F507E00122AC190FE9B7449F0222E
:102A7000E4FFFE75B50743B440E5B430E5FB53B45D
:052A8000DFAEB7AFB6A8
:012A8500222E
:102A8600E4FFFE75B50343B440E5B430E5FB53B44B
:052A9600DFAEB7AFB692
:012A9B002218
:102A9C00E4FFFE75B50243B440E5B430E5FB53B436
:052AAC00DFAEB7AFB67C
:012AB1002202
:0B1A9400900006EBF0A3EAF0A3E9F0DD
:101A9F0090000C1208B700000000E4900010F0F066
:101AAF0090000CE0F8A3E0F9A3E0FAA3E0FB122A00
:101ABF0086E4FCFDEB2FFFEA3EFEED39FDEC38FC32
:101ACF0090000C1208AB900010E004F0E0C39405F6
:101ADF0040CE90000CE0FCA3E0FDA3E0FEA3E0FFEE
:101AEF00E47B05FAF9F81207E490000C1208ABE456
:101AFF007FA07E0FFDFC90000CE0F8A3E0F9A3E0BF
:101B0F00FAA3E0FB120759E47BFF7A0FF9F81207EB
:101B1F00E4900006E0FBA3E0FAA3E0F9EE8FF012E9
:101B2F00073A7F147E00122AC190000C1208B700EA
:101B3F00000000E4900010F090000CE0F8A3E0F932
:101B4F00A3E0FAA3E0FB122A70E4FCFDEB2FFFEAFF
:101B5F003EFEED39FDEC38FC90000C1208AB900006
:101B6F0010E004F0E0C3940540CE90000CE0FCA31D
:101B7F00E0FDA3E0FEA3E0FFE47B05FAF9F812070E
:101B8F00E490000C1208ABE47FA07E0FFDFC9000E8
:101B9F000CE0F8A3E0F9A3E0FAA3E0FB120759E485
:101BAF007BFF7A0FF9F81207E4900009E0FBA3E03E
:0A1BBF00FAA3E0F9EE8FF002073AF6
:102426009000001208B700000000E4900004F0F0ED
:10243600900000E0F8A3E0F9A3E0FAA3E0FB122A7B
:102446009CE4FCFDEB2FFFEA3EFEED39FDEC38FC8B
:102456009000001208AB900004E004F0E0C394057D
:1024660040CE900000E0FCA3E0FDA3E0FEA3E0FF69
:10247600E47B05FAF9F81207E49000001208ABE4D1
:102486007FA07E0FFDFC900000E0F8A3E0F9A3E03A
:10249600FAA3E0FB120759E4FB7A10F9F81207E4F5
:1024A6009000001208AB900000A3A3E0FEA3E0FF9B
:0124B6002203
:101CEF000D0A3D3D3D3D3D3D3D3D3D3D3D3D3D3D78
:101CFF003D3D3D3D3D3D3D3D3D3D3D3D3D3D3D3D05
:101D0F003D3D3D3D3D3D3D3D3D3D0D0A00706F77F5
:101D1F006572206F6E20666C617368206761703A20
:101D2F002564202074696D65723A2564200D0A00C0
:101D3F00706F776572206F6E20666C6173682076A6
:101D4F00616C75653A256420207369676E3A256466
:101D5F00200D0A003D3D3D3D3D3D3D3D3D3D3D3D61
:101D6F003D3D3D3D3D3D3D3D3D3D3D3D3D3D3D3D94
:101D7F003D3D3D3D3D3D3D3D3D3D3D3D0D0A003D24
:101D8F003D3D3D3D3D3D3D3D3D3D3D3D66697273B4
:101D9F007420696E697420646174613D3D3D3D3D01
:101DAF003D3D3D3D3D3D200D0A00307825303458F6
:101DBF002020307825303458202030782530345882
:101DCF002020307825303458200D0A00666C61735E
:101DDF0068206761703A2564202074696D65723AD6
:061DEF002564200D0A002E
:102092004500AC00000000004400B12020050141D1
:0820A20000B7014200B5000087
:062B10009000B7E0FF2277
:062B16009000B7EFF02271
:10296500D310AF01C3C0D075FDF075FC0F8EFA8F83
:10297500F975FDD275FC2D75FDE175FC1ED0D09263
:02298500AF227F
:1028CB00D310AF01C3C0D08FFB75FDF075FC0FAEFD
:1028DB0004AF058EFA8FF975FDB475FC4B75FDE1F0
:0828EB0075FC1ED0D092AF2253
:0C264D007B017A0079AC7D057F047E3CA7
:10265900D310AF01C3C0D0900008EEF0A3EFF0A3F0
:0B266900EDF0A3EBF0A3EAF0A3E9F012
:10267400E4A3F0C2AFF090000AE0FF90000EE0C3C4
:102684009F502C90000BE0FBA3E475F0011207248B
:10269400A9F0FA1206A4FF900008E475F0011207ED
:1026A40024ADF0FC1228CB90000EE004F080C7D2D9
:0126B400AF76
:0526B500D0D092AF221D
:040003008F828E83D7
:03000700E493FF80
:01000A0022D3
:10270700900008EEF0A3EFF0A3EBF0A3EAF0A3E943
:10271700F0AF051DEF6028900008E475F00112077F
:102727002485F082F583E493FF90000AE0FBA3E49D
:1027370075F001120724A9F0FAEF1206EA80D222F7
:1027B900E4FDFCED2400FFE4343CFE12000374B197
:1027C9002DF582E43400F583E0B507030C80037F1F
:1027D90000220DEDB404DCECC3940440037F012214
:0227E9007F006F
:0127EB0022CB
:10195B00E4900000F090FE927404F01227B9EF703F
:10196B000790000004F0807C7BFF7A1C79EF120952
:10197B00C67B017A0079AC7D057F047E3C1227077C
:10198B007BFF7A1D791C9000ACE0FF900034E4F0F3
:10199B00A3EFF09000ADE0FF900036E4F0A3EFF082
:1019AB001209C67BFF7A1D793F9000AEE0FF9000D5
:1019BB0034E4F0A3EFF09000AFE0FF900036E4F0DA
:1019CB00A3EFF01209C67BFF7A1D79631209C6904B
:1019DB0000ACE0D394045006A3E0940540069000BD
:1019EB00007401F0900000E06401707A7BFF7A1DB7
:1019FB00798E1209C69000AC7401F0A3F07F007EC3
:101A0B003C122965FB7A0079B17D04122659122606
:101A1B004D7B017A0079B17D047F007E3C12270754
:101A2B007BFF7A1D79B99000B1E0FF900034E4F0B0
:101A3B00A3EFF09000B2E0FF900036E4F0A3EFF0DC
:101A4B009000B3E0FF900038E4F0A3EFF09000B407
:101A5B00E0FF90003AE4F0A3EFF01209C67BFF7AA7
:101A6B001D79631209C67BFF7A1D79DB9000ACE010
:101A7B00FF900034E4F0A3EFF09000ADE0FF900096
:091A8B0036E4F0A3EFF00209C6F5
:1028F3007F047E3C1229657B017A0079B17D047FD8
:102903000012265912264D7B017A0079AC7D057F92
:06291300047E3C022707D0
:1020AA005E00630000000000000000000000000065
:1020BA000000000000000000000000000000000016
:0920CA00004100810041006200A8
:1028A20090FF1674C1F090FF157460F090FFA07451
:1028B20026F090FFA114F075CEFF75CD9875CC0669
:0928C200759E02759810D2AC223B
:0C2ADC00C2AC8F993099FDC299D2AC2297
:032B3800022ADC92
:0B281F0090000DEBF0A3EAF0A3E9F03D
:10282A00E4FEEEC39D501A90000DE0FBA3E0FAA36C
:10283A00E0F98E827583001206BDFF122B380E80D6
:01284A00E1AC
:01284B00226A
:1029E6009000087455F0A3EFF0A3EDF0A3740DF07A
:0F29F600A3740AF07B017A0079087D0502281F7F
:062B1C00AE07122ADC22C4
:030023000226BAF8
:0D26BA00C0E0C083C082C0D075D000C00752
:1026C700E59830E030AF995398FE900081E01460B0
:1026D70019047021EFB4551D900063F0900061E07C
:1026E70004F09000817401F0800B900062EFF0908D
:0526F70000817402F0F7
:0B26FC00D007D0D0D082D083D0E032D5
:1020D3004100C1004100B8004200B900004100BB0B
:0F20E300004200BC00004100BE014200BF0000EF
:0F2AB20090FF177460F090FF00F090FF01F0228A
:1022B800E4900002F0A28133900001F09000B8E0B1
:1022C80014602614604E14700302235B2403600319
:1022D800022364900001E060030223699000B9F0D2
:1022E800A3F09000B804F08078900001E0706B9043
:1022F80000BAE004F070069000B9E004F0C3900062
:10230800BAE094039000B9E09400403E9000B8749D
:1023180002F08036900001E0B40106A37404F08056
:102328003B9000BAE004F070069000B9E004F0C3F6
:102338009000BAE094C89000B9E09400400C900076
:10234800027405F09000B87403F07F0A7E00122A28
:1023580059800E900001E0B401078000E49000B8B5
:06236800F0900002E0FF0E
:01236E00224C
:10236F00E4900002F0A28033900001F09000BBE0F7
:10237F0014602614604E14700302241224036003A9
:10238F0002241B900001E060030224209000BCF0A7
:10239F00A3F09000BB04F08078900001E0706B9088
:1023AF0000BDE004F070069000BCE004F0C39000A4
:1023BF00BDE094039000BCE09400403E9000BB74DD
:1023CF0002F08036900001E0B40106A37404F0809F
:1023DF003B9000BDE004F070069000BCE004F0C339
:1023EF009000BDE094909000BCE09401400C9000F0
:1023FF00027406F09000BB7403F07F0A7E00122A6D
:10240F0059800E900001E0B401078000E49000BBFA
:06241F00F0900002E0FF56
:012425002294
:1025CF001222B8BF05037F012212236FBF0621120B
:1025DF002B10BF01149000B0E0700E9000C104F0FA
:1025EF009000B0F01228F3803CE49000C1F08035E9
:1025FF009000BEE0602330A70320801D9000C1E053
:10260F0070177F32FE122A59E49000BEF020A70304
:10261F007F022220800F7F032230A709308006908F
:10262F0000BE7401F0308113D39000C0E09401908C
:0D263F0000BFE094004004E4F0A3F07F0031
:01264C00226B
:0420F2004100CC00DD
:102A41007E009000CCE0FD7C0012092EE47B64FA4C
:072A5100F9F81207E48FDF22
:012A5800225B
:10298700900000EEF0A3EFF090FF1D74C0F090FFF1
:102997009C7435F09000CC74FFF0F5DE75DD97225E
:0D2ACF0075BD17EF75F02BA490FEA0F0224E
:042B340043BD10226B
:1027EC007365742074696D65207365636F6E643AEC
:1027FC0025640D0A0074696D65207365636F6E64E2
:10280C003A2564200D0A0074696D65206F66662098
:03281C000D0A00A2
:1020F6004200A700004200A500004200A9000041DE
:10210600009B0041009C004100AB004100A2004240
:10211600009D00004200A3000042009F0000410015
:02212600A10016
:102A23009000A5EEF0A3EFF0E4A3F0A3F07BFF7A10
:0E2A33002779EC900034EEF0A3EFF00209C614
:10284C009000A2E0B4012490009DE475F001120701
:10285C000EFED3E5F0940EEE9401400FE49000A22E
:0C286C00F090009DF0A3F09000A1F0227D
:10254300E49000A7F0A3F09000ADE0FF70089000C6
:10255300A5F0A3F08052EFB4010C9000A57407F02E
:10256300A304F0E48042EFB4020D9000A5740EF0D2
:10257300A37410F0E48031EFB4030D9000A5741C34
:10258300F0A37420F0E48020EFB4040D9000A57450
:1025930038F0A37440F0E4800FEFB405179000A562
:1025A3007470F0A37480F0E49000A9F0A3F090009D
:1025B300A3F0A3F07BFF7A2879019000A5E0FFA3A5
:0C25C300E0900034CFF0A3EFF00209C656
:10000E00E490FE80F0F589758CF5758A9643A8020A
:04001E0043881022E1
:03000B00021819BF
:10181900C0E0C0F0C083C082C0D075D000C000C095
:1018290001C002C003C004C005C006C007122B10C6
:10183900EF60030219169000A8E004F0700690000A
:10184900A7E004F0C39000A8E094F49000A7E09406
:1018590001500302193D12284C9000ABE0B4022D4F
:101869009000AAE004F070069000A9E004F0D3907B
:1018790000AAE094409000A9E0943840109000AB91
:10188900E4F09000A9F0A3F090009B04F0D390003D
:10189900A6E094009000A5E094004042A3E024FF54
:1018A900F09000A5E034FFF090009CE064027057CE
:1018B9009000AAE004F070069000A9E004F0D3902B
:1018C90000AAE094409000A9E09438403A90009B27
:1018D9007401F0A3E4F09000A9F0A3F0802990002E
:1018E900ADE060237F01122B169000A5E4F0A3F070
:1018F9009000A9F0A3F090009CF09000ABF07BFF62
:101909007A2879131209C69000A7E480249000C1AF
:10191900E0B4012090009FE475F00112070EFED398
:10192900E5F09460EE94EA400B9000C1E4F0900079
:101939009FF0A3F0121DF5D007D006D005D004D032
:1019490003D002D001D000D0D0D082D083D0F0D043
:02195900E0327A
:102128004200C600004100C5004100C4004100C291
:05213800004100C3009E
:1028780043D1E890FF62E04406F090FF61E044082D
:10288800F090FF60E04410F090FF6AE044F8F0C276
:0A28980097C296C295C294C2932223
:062B22009000C4EFF02258
:092AFE009000C674CEF0A3F02292
:102919009000C2E0FF700F9000C674CEF0A3F09053
:1029290000C27401F022EFB4010B9000C674FFF0ED
:05293900E49000C2F073
:01293E002276
:10293F009000C3E0FF700F9000C674CEF0A3F0902C
:10294F0000C37401F022EFB4010B9000C67404F0C1
:05295F00E49000C3F04C
:012964002250
:062B28009000C7EFF0224F
:062B2E009000C6EFF0224A
:092B07009000C674CCF0A3F0228A
:101DF5009000C4E0FF600EF4600B9000C1E0640148
:101E05006003021ECB43D1E89000C5E0B408004052
:101E150003021EC5901E20F8282873021E38021ED4
:101E250048021E59021E6C021E81021E91021EA24C
:101E3500021EB553D1EF1214B91212069000C574E3
:101E450001F022C292D2911214BD1212069000C561
:101E55007402F022C292C291D2A31214BF121206CA
:101E65009000C57403F022C292C291C2A3D2B412EB
:101E750014C11212069000C57404F02243D1101249
:101E850014B91212069000C57405F022C292D291BF
:101E95001214BD1212069000C57406F022C292C239
:101EA50091D2A31214BF1212069000C57407F02236
:101EB500C292C291C2A3D2B41214C11212068000FA
:101EC500E49000C5F0229000C4E0B4010375D16828
:011ED50022EA
:051206009000C6E0FFAE
:10120B00EF12090812720112AA0212E203123A0437
:10121B00135205138A0613C10713FB081435091360
:10122B001A0A14AECC14A3CE146CFF000014B890A1
:10123B0000C5E0FF6003B40404C295C294EF6401DF
:10124B006004EFB40504D295D294EF64026004EF0E
:10125B00B40604D295D294EF64036008EF64076080
:10126B00030214B802149E9000C5E0FF6003B4049F
:10127B0004C295C294EF64016004EFB40504D295E7
:10128B00C294EF64026004EFB40604D295C294EFEB
:10129B0064036008EF640760030214B80213F6904E
:1012AB0000C5E0FF6003B40404D295C294EF64015F
:1012BB006004EFB40504D295C294EF64026004EFAE
:1012CB00B40604C295D294EF64036008EF64076020
:1012DB00030214B80214309000C5E0FF6003B4049D
:1012EB0004D295C294EF64016004EFB40504D29567
:1012FB00C294EF64026004EFB40604D295D294EF6B
:10130B0064036008EF640760030214B8021467906B
:10131B0000C5E0FF6003B40404C295C294EF6401FE
:10132B006004EFB40504D295D294EF64026004EF2D
:10133B00B40604D295D294EF64036008EF6407609F
:10134B00030214B80213F69000C5E0FF6003B40467
:10135B0004D295C294EF64016004EFB40504C29506
:10136B00D294EF64026004EFB40604D295D294EFEA
:10137B0064036008EF640760030214B802146790FB
:10138B0000C5E0FF6003B40404D295C294EF64017E
:10139B006004EFB40504C295D294EF64026004EFCD
:1013AB00B40604D295D294EF64036008EF6407602F
:1013BB00030214B8806F9000C5E0FF6003B404040F
:1013CB00D295C294EF64016004EFB40504D295C2C8
:1013DB0094EF64026004EFB40604D295C294EF64F8
:1013EB00036008EF640760030214B8C295C294222D
:1013FB009000C5E0FF6003B40404D295C294EF647F
:10140B00016004EFB40504D295D294EF640260043A
:10141B00EFB40604D295D294EF64036008EF64072F
:10142B0060030214B8D295D294229000C5E0FF60FD
:10143B0003B40404D295C294EF64016004EFB405C5
:10144B0004D295D294EF64026004EFB40604D295F3
:10145B00D294EF64036005EF64077051D295C29488
:10146B00229000C5E0FF6003B40404D295C294EF50
:10147B0064016004EFB40504C295D294EF6402607A
:10148B0004EFB40604C295D294EF64036005EF64D5
:10149B0007701AC295D29422C297C296C295C29473
:0E14AB00C29322D297D296D295D294D2932297
:0D14B900D292C291C2A3C2B49000C7E0FF5E
:1014C600EFB40700400302169B9014D6F828287341
:1014D6000214EB0215290215670215A50215E20290
:1014E600161F02165E9000C5E0FF6003B40406C234
:1014F60097C296C293EF64016004EFB40506D297D3
:10150600D296D293EF64026004EFB40606C297D275
:1015160096C293EF64036046EF6407600302169B6E
:101526000216579000C5E0FF6003B40406D297C2C6
:1015360096C293EF64016004EFB40506D297D29683
:10154600D293EF64026004EFB40606C297C296C255
:1015560093EF64036008EF6407600302169B0216AC
:10156600579000C5E0FF6003B40406C297C296C256
:1015760093EF64016004EFB40506D297D296D29336
:10158600EF64026004EFB40606D297C296C293EFE8
:1015960064036008EF6407600302169B0216579007
:1015A60000C5E0FF6003B40406C297C296D293EF6B
:1015B60064016004EFB40506D297D296D293EF6425
:1015C600026004EFB40606C297C296C293EF6403A4
:1015D6006008EF6407600302169B80759000C5E003
:1015E600FF6003B40406C297D296C293EF6401600B
:1015F60004EFB40506D297D296D293EF6402600444
:10160600EFB40606C297C296C293EF64036008EF72
:101616006407600302169B80389000C5E0FF6003F4
:10162600B40406C297C296C293EF64016004EFB495
:101636000506D297D296D293EF64026004EFB40601
:1016460006C297C296D293EF64036005EF640770F3
:1016560044D297D296D293229000C5E0FF6003B49D
:101666000406C297C296C293EF64016004EFB40504
:1016760006C297C296C293EF64026004EFB40606F0
:10168600C297C296C293EF64036004EFB40706C222
:0616960097C296C29322E8
:0C2AE800000000000000000000000000E2
:04213D0041009A00C3
:1029A700E4900098F0A3F0900094F0A3F0A3F0A3B4
:1029B700F090009304F0900092F090009104F022C0
:100DDE0078067C007D017BFF7A2A79E87E007F0C05
:100DEE0012067E9000121208B70000000090001646
:100DFE001208B700000000900098E0FEA3E0FF90FC
:100E0E000096E0FCA3E0FDD39FEC9E50030211FE82
:100E1E00ED9FFFEC9EFED3EF9464EE940040030230
:100E2E0011F4E4FCFD9000061208ABE490008FF084
:100E3E00900086E0FCA3E0FDA3E0FEA3E0FFA3127A
:100E4E0008AB900082E0FCA3E0FDA3E0FEA3E0FF70
:100E5E00A31208AB900006E0FCA3E0FDA3E0FEA306
:100E6E00E0FF9000821208AB900086E0FCA3E0FD4C
:100E7E00A3E0FEA3E0FF900082E0F8A3E0F9A3E078
:100E8E00FAA3E0FBD312089A4033900086E0F8A351
:100E9E00E0F9A3E0FAA3E0FB900082E0FCA3E0FD02
:100EAE00A3E0FEA3E09BFFEE9AFEED99FDEC98FC0D
:100EBE009000061208ABE490008EF0803190008214
:100ECE00E0F8A3E0F9A3E0FAA3E0FBA3E0FCA3E0C3
:100EDE00FDA3E0FEA3E0C39BFFEE9AFEED99FDECB1
:100EEE0098FC9000061208AB90008E7401F0E47F1F
:100EFE0002FEFDFC900086E0F8A3E0F9A3E0FAA361
:100F0E00E0FB12075990000E1208AB90008AE0FC2D
:100F1E00A3E0FDA3E0FEA3E0FF900082E0F8A3E0D3
:100F2E00F9A3E0FAA3E02FFFEA3EFEE93DFDE83C1F
:100F3E00FC90000EE0F8A3E0F9A3E0FAA3E0FBC3F7
:100F4E0012089A504B90008AE0FCA3E0FDA3E0FE4D
:100F5E00A3E0FF900082E0F8A3E0F9A3E0FAA3E09B
:100F6E002FFFEA3EFEE93DFDE83CFC90000EE0F866
:100F7E00A3E0F9A3E0FAC3EF9BFFEE9AFEED99FD15
:100F8E00EC98FC90000E1208ABE4900090F0805D9F
:100F9E0090000EE0FCA3E0FDA3E0FEA3E0FFC00482
:100FAE00C005C006C00790008AE0FCA3E0FDA3E0E8
:100FBE00FEA3E0FF900082E0F8A3E0F9A3E0FAA31D
:100FCE00E02FFBEA3EFAE93DF9E83CF8D007D006FF
:100FDE00D005D004C3EF9BFFEE9AFEED99FDEC9881
:100FEE00FC90000E1208AB9000907401F0900091EE
:100FFE00E0FFE4FCFDFE900006E0F8A3E0F9A3E0BC
:10100E00FAA3E0FB1207599000061208AB9000926B
:10101E00E0FFE4FCFDFE900082E0F8A3E0F9A3E01F
:10102E00FAA3E0FB12075990000A1208AB90009346
:10103E00E0FFE4FCFDFE90000EE0F8A3E0F9A3E073
:10104E00FAA3E0FB12075990000E1208AB90008E27
:10105E00E0702D900012E0FCA3E0FDA3E0FEA3E003
:10106E00FF900006E0F8A3E0F9A3E0FAA3E0FBEF9F
:10107E002BFFEE3AFEED39FDEC38FC900012802B82
:10108E00900016E0FCA3E0FDA3E0FEA3E0FF9000BD
:10109E0006E0F8A3E0F9A3E0FAA3E0FBEF2BFFEEE6
:1010AE003AFEED39FDEC38FC9000161208AB9000BC
:1010BE008FE0702E900012E0FCA3E0FDA3E0FEA3F3
:1010CE00E0FF900006E0F8A3E0F9A3E0FAA3E0FB4E
:1010DE00EF2BFFEE3AFEED39FDEC38FC90001212CC
:1010EE0008AB900090E0702B900012E0FCA3E0FDA6
:1010FE00A3E0FEA3E0FF90000EE0F8A3E0F9A3E06A
:10110E00FAA3E0FBEF2BFFEE3AFEED39FDEC38FCD7
:10111E00A3802B900016E0FCA3E0FDA3E0FEA3E06D
:10112E00FF90000EE0F8A3E0F9A3E0FAA3E0FBEFD6
:10113E002BFFEE3AFEED39FDEC38FC90001612084E
:10114E00AB900012E0F8A3E0F9A3E0FAA3E0FB9065
:10115E000094E0FEA3E0FFE4FCFDEB2FFFEA3EFE71
:10116E00ED39FDEC38FC9000121208AB900016E041
:10117E00FCA3E0FDA3E0FEA3E0FF900012E0F8A3C5
:10118E00E0F9A3E0FAA3E0FBD312089A40629000C4
:10119E0016E0F8A3E0F9A3E0FAA3E0FB900012E05A
:1011AE00FCA3E0FDA3E0FEA3E09BFFEE9AFEED990B
:1011BE00FDEC98FC9000061208ABE47F64FEFDFC8B
:1011CE00900006E0F8A3E0F9A3E0FAA3E0FBC31257
:1011DE00089A5012900006A3A3E0FFA3E09000949B
:1011EE00CFF0A3EFF022900094E4F0A37464F02209
:0711FE00E4900094F0A3F05F
:0112050022C6
:100026000203E7E86480F8E933E83360110460F01E
:10003600ED33EC337009E8FCE9FDEAFEEBFF220440
:1000460060DED3EB9FEA9EE99DE8C2E78CF0C2F73B
:1000560095F0400CE8CCF8E9CDF9EACEFAEBCFFB07
:100066001203B285D0F05804700320D5B3E80470AB
:10007600075002B2D50203F192D5EC0460F7E4CC46
:10008600C0E0C398F8603B94186008400DD0E0FBD0
:100096000203C9E4FBFAC9FC8028E830E406E4C997
:1000A600FBE4CAFCE830E305E4C9CACBFCE8540724
:1000B6006010F8C3E913F9EA13FAEB13FBEC13FC2F
:1000C600D8F130F52FC3E49CFCEF9BFFEE9AFEEDD2
:1000D60099FDD0E0FBEF4E4D4C701222DB0302037C
:1000E600EEEC2CFCEF33FFEE33FEED33FDED30E7A7
:1000F600EB0203C9EF2BFFEE3AFEED39FDD0E0FB34
:1001060050130BBB00030203F1ED13FDEE13FEEFDC
:0801160013FFEC13FC0203C906
:10011E00EC4D6011E8497017ED33EC3304600DE4DB
:10012E00FCFFFEFD22E933E8330470F80203E71208
:10013E0003B258046009E4CC248150062850090209
:10014E0003F12840030203EEC0E0EB4A7044B9808D
:10015E0006D0E0FB0203DDEF4E701CBD8008EBFF06
:10016E00EAFEE9FD80EBE98DF0A4FEE5F002020760
:10017E00E9CDF9EAFEEBFFEF89F0A4FCE5F0CE89BC
:10018E00F0A42EFFE435F0CD89F0A42DFEE435F079
:10019E008067EF4E7005BD80D780C3EF8BF0A4ACA7
:1001AE00F0EE8BF0A42CFCE435F0F8EF8AF0A42CE2
:1001BE00E5F038FCE433CB8DF0A42CFCE5F03BF8F5
:1001CE00EE8AF0A42CFCE5F038F8E433CF89F0A4E5
:1001DE002CFCE5F038CF3400CE89F0A42FFFE5F0EB
:1001EE003EFEE433C98DF0A42EFEE5F039CD8AF043
:1001FE00A42FFFE5F03EFEE43DFD33D0E0FB5007BB
:10020E000BBB000F0203F1EC2CFCEF33FFEE33FEC1
:06021E00ED33FD0203C9EF
:100224000203F1EC5D046005E8590470030203E77E
:100234001203B2580460F6EC4860F2EC7004FDFE60
:10024400FF22C860DB2481C85009C39860025006AD
:100254000203EE9850CAF582E9294B4A7005AB8235
:100264000203DD75F0007C1A7880C3EF9BEE9AEDF3
:1002740099400DC3EF9BFFEE9AFEED99FDE842F025
:10028400DC23ACF0D0E0FFD0E0FED0E0FDAB822078
:10029400E7101BEB60BAEC2CFCEF33FFEE33FEED02
:1002A40033FD0203C9E803F830E705C0F075F00038
:1002B400EF2FFFEE33FEED33FD40B830E7C280AAE6
:1002C40074F8CC6480CCC86480C8F58204604FC3E1
:1002D400EB9FF5F0EA9E42F0E99D42F0E89C45F080
:1002E400603C501DE5825FFFE582D313CB5BCBF40A
:1002F4002B5582FB50280ABA002409B90020088033
:100304001DE5825BFBE582D313CF5FCFF4C3132FCC
:100314005582FF50090EBE00050DBD00010CC3EB54
:100324009FF5F0EA9E42F0E99D42F0E89C45F060BA
:0903340007CC4820E701B3EC22DC
:10033D0075F020800E75F010800575F0087D007E3B
:10034D00007F003392D530D503120876EC33401080
:10035D00EF33FFEE33FEED33FDEC33FCD5F0ED2244
:0E036D00E5F0247EA2D513CC92E7CDCEFF2280
:10037B00EDD2E7CD33EC3392D524814006E4FFFE7A
:10038B00FDFC22FCE4CFCECDCC24E0501174FF80D9
:10039B00EDC3CC13CCCD13CDCE13CECF13CF047076
:0703AB00F030D5DE020876F8
:10095B00E50D2434F582E43400F583E0050D229097
:10096B000031301003900034E475F0011208E802F6
:10097B0006A42009E97F2ED2098018EF540F24908A
:10098B00D43440D4FF300D0BEF24BFB41A00500306
:10099B002461FFE50E6002150E0511E511700205CD
:1009AB001030100E900031E475F0011208E8EF02E0
:1009BB0006EA022B1C7403D2108003E4C210F50D5F
:1009CB009000311208FFE4F50EF510F511E50E60FD
:1009DB00077F2012099E80F5750FFFC20AC209C25C
:1009EB000BC20CC20EC20FC21112096AFF700D307E
:1009FB0010057F001209AFAF11AE1022B4255FC2F4
:100A0B00D5C20D12096AFF24D0B40A00501A75F032
:100A1B000A780E30D50508B6FF0106C6A426F620C7
:100A2B00D5047002D20C80D924CFB41A00EF500435
:100A3B00C2E5D20D020CA1D20A80C6D20980C0D267
:100A4B000B80BCD2D580BAD20E80B47F2012099E07
:100A5B00200B077401B50E0040F112095BFF120960
:100A6B009E0209D8D211D20F809512095BFB120995
:100A7B005BFA12095BF94A4B7006799F7A0D7BFF83
:100A8B00200B2EE50E602A7E008E827583001206E7
:100A9B00BD60060EEE650F70F0C2D5EBC0E0EAC08C
:100AAB00E0E9C0E0EE120D02D0E0F9D0E0FAD0E0C0
:100ABB00FB1206A4FF60AAEBC0E0EAC0E0E9C0E0CD
:100ACB0012099ED0E02401F9D0E03400FAD0E0FB0B
:100ADB00E50F0460DCD50FD98087D20B80A2120CF6
:100AEB00E460F7E50F7001041203FCA90F600DE53C
:100AFB000F600914F50F120D8CEF60F3EA30E7026B
:100B0B00F404C3995079EAF4250F0430E701E404A7
:100B1B00F50F800D120CE460C1EA050F250F1203CF
:100B2B00FCEA900060F030E701E4250F04D50F04D8
:100B3B00200E0114120D02E4C0E0120D8C90006027
:100B4B00E0601320E70714F0120986802204F0D02E
:100B5B00E014C0E07F00120986E50F600712097DE3
:100B6B00150F800B300E0312097DD0E00209D8D08F
:100B7B00E00480C4120CE4609EE50F041203FC90A9
:100B8B000060EAF0E50F200E026001042404120D50
:010B9B000257
:100B9C0074FF04C0E0120D8C120986E50F200E02C2
:100BAC00600312097DD0E0B50FE87F4512099090E3
:100BBC000060E07F2B30E7047F2DF404C0E01209C5
:100BCC009ED0E075F00A84C0F0120987D0E01209BB
:100BDC00870209D8791080027908C20FC2118008E7
:100BEC00D2D5790A8004790AC2D5E50F047002F5D2
:100BFC000FE4FAFDFEFF12095BFC7B08200A1312BE
:100C0C00095BFD7B1030090A12095BFE12095BFFC0
:100C1C007B20EC3382D592D55013C3E43009069F68
:100C2C00FFE49EFEE4200A039DFDE49CFCE4CBF86B
:100C3C00C20AEC700CCFCECDCCE824F8F870F3805F
:100C4C0017C3EF33FFEE33FEED33FDEC33FCEB3328
:100C5C00FB994002FB0FD8E9EB300A05F8D0E0C451
:100C6C0048B20AC0E00AEC4D4E4F78207B0070C2AF
:100C7C00EAB50F0040BCC0E0120D04D0F0D0E0206B
:100C8C000A04C4C0E0C4B20AC0F0120987D0F0D57F
:100C9C00F0EB0209D81209080A75530BE0580A4602
:100CAC004C0A42420BE44F0BEC440BEC490A5B43FD
:100CBC000BF2550B1F460B7F450AE9470DBF500A37
:100CCC004A2D0A4E2E0A712B0A52230A6F200DA8A8
:100CDC002A0A0A4800000A69E50FB4FF03750F06DB
:100CEC0012095BFC12095BFD12095BFE12095BFF2A
:100CFC00900059020439790AA2D5200C14300E093F
:100D0C00B910020404B9080104A2D5200F02500145
:100D1C0004200B68920BB50E005034C0E07F2030DD
:100D2C000C197F30A20B720F720E500F120D5BC29A
:100D3C000BC20FC20EC2117F30800F300E03E9C000
:100D4C00E012099E300E03D0E0F9D0E0B50ECC30A5
:100D5C000E177F30B9100C12099E7F58300D077F8B
:100D6C00788003B9080312099E300B057F2D020908
:100D7C009E7F202011F87F2B200FF322920B80CF27
:100D8C007F00B40700500B2459F582E43400F5833E
:100D9C00E0FF22286E756C6C2900D20A12095B30B8
:100DAC000AF8C20A780E30D50108F6020A0A2D504C
:100DBC0043495812095B2403B405004001E4900D2B
:100DCC00BA9312098F743A12098FD20C750E040261
:020DDC000BE02A
:1003B200E9D2E7C933E833F892D5EDD2E7CD33EC91
:0703C20033FC5002B2D5220A
:1003C900EC30E7100FBF000C0EBE00080DBD000495
:1003D9000BEB6014A2D5EB13FCED92E7FD2274FF41
:1003E900FCFDFEFF22E480F8A2D574FF13FC7D809A
:0303F900E480EFAE
:1003FC00F920E73624F950037907E4F42402FBE5ED
:10040C0082158270021583DBF6E024FB501BE96039
:10041C0014E4F0E582158270021583E004F0B40A4E
:0D042C0008E4F0D9EE7401F00A22C2D522D6
:10043900ED33EC3392D5FA602AB4FF33EDC2E77B92
:10044900FF60067A04795EE4227A04796720D5048C
:100459007A047962224E614E002B494E46002D499D
:100469004E4600E47A08F0A3DAFC7B00740722C048
:1004790083C082ECC0E0EDC0E0EEC0E0EFC0E0EA8E
:1004890075F010A4CAABF075F04DA42BFBE435F060
:10049900FCEA2410FAEB34C5FBEC34D9FCEDC2E7D5
:1004A900FF75F056A4F42411C5F0F434C58FF0A4F7
:1004B9002AE5F03BE43CF020E71412056ED0E0FF9A
:1004C900D0E0FED0E0FDD0E0FC1202278014F40455
:1004D90012056ED0E0FFD0E0FED0E0FDD0E0FC12C6
:1004E900011ED082D083E0FAEDD2E7CD33EC33247C
:1004F90082FBE4C3CF33CFCE33CECD33CD33DBF361
:100509007B0775F00A846004F0A31B0AE5F0F0A3E9
:100519008FF0740AA4FFACF08EF0740AA42CFEAC20
:10052900F050010C8DF0740AA42CFDE435F0F0A311
:05053900DBDE74072267
:10053E003F8000004120000042C80000447A0000C5
:10054E00461C400047C35000497424004B18968047
:10055E004CBEBC205A0E1BCA6753C21C749DC5AE3E
:10056E00FB60065407601C232312059CEB54386075
:10057E000912058812059712011EECF8EDF9EEFA34
:10058E00EFCB22EB12059780F1543803241C900513
:10059E003EFE93FC0EEE93FD0EEE930ECE93FF22D7
:1024C300021FB3E493A3F8E493A34003F68001F25D
:1024D30008DFF48029E493A3F85407240CC8C3331A
:1024E300C4540F4420C8834004F456800146F6DFE9
:1024F300E4800B0102040810204080902085E47ED4
:10250300019360BCA3FF543F30E509541FFEE493DD
:10251300A360010ECF54C025E060A840B8E493A3A4
:10252300FAE493A3F8E493A3C8C582C8CAC583CACF
:10253300F0A3C8C582C8CAC583CADFE9DEE780BE87
:01214100009D
:1005AE00E709F608DFFA8046E709F208DFFA803E2F
:1005BE0088828C83E709F0A3DFFA8032E309F6081C
:1005CE00DFFA8078E309F208DFFA807088828C8384
:1005DE00E309F0A3DFFA806489828A83E0A3F60838
:1005EE00DFFA805889828A83E0A3F208DFFA804C12
:1005FE0080D280FA80C680D4806980F280338010E9
:10060E0080A680EA809A80A880DA80E280CA803351
:10061E0089828A83ECFAE493A3C8C582C8CCC583C9
:10062E00CCF0A3C8C582C8CCC583CCDFE9DEE78099
:10063E000D89828A83E493A3F608DFF9ECFAA9F018
:10064E00EDFB2289828A83ECFAE0A3C8C582C8CC6E
:10065E00C583CCF0A3C8C582C8CCC583CCDFEADE87
:10066E00E880DB89828A83E493A3F208DFF980CCE9
:10067E0088F0EF60010E4E60C388F0ED2402B404E2
:10068E000050B9F582EB2402B4040050AF23234589
:06069E0082239005FE73AB
:1006A400BB010689828A83E0225002E722BBFE0254
:0906B400E32289828A83E4932287
:1006BD00BB010CE58229F582E5833AF583E02250F2
:1006CD0006E92582F8E622BBFE06E92582F8E2223C
:0D06DD00E58229F582E5833AF583E4932256
:1006EA00BB010689828A83F0225002F722BBFE01EF
:0206FA00F322E9
:1006FC00EF8DF0A4A8F0CF8CF0A428CE8DF0A42E12
:02070C00FE22CB
:10070E00C5F0F8A3E028F0C5F0F8E5821582700276
:06071E001583E038F02213
:10072400A3F8E0C5F025F0F0E58215827002158388
:06073400E0C838F0E822E5
:10073A00BB010A89828A83F0E5F0A3F0225006F70A
:0F074A0009A7F01922BBFE06F3E5F009F3192207
:10075900E88FF0A4CC8BF0A42CFCE98EF0A42CFC3F
:100769008AF0EDA42CFCEA8EF0A4CDA8F08BF0A4BD
:100779002DCC3825F0FDE98FF0A42CCD35F0FCEB1C
:100789008EF0A4FEA9F0EB8FF0A4CFC5F02ECD39E1
:0F079900FEE43CFCEAA42DCE35F0FDE43CFC224E
:1007A80075F008758200EF2FFFEE33FECD33CDCC08
:1007B80033CCC58233C5829BED9AEC99E58298408B
:1007C8000CF582EE9BFEED9AFDEC99FC0FD5F0D668
:1007D800E4CEFBE4CDFAE4CCF9A88222B800C1B992
:1007E8000059BA002DEC8BF084CFCECDFCE5F0CBD0
:1007F800F97818EF2FFFEE33FEED33FDEC33FCEB09
:1008080033FB10D703994004EB99FB0FD8E5E4F9C3
:10081800FA227818EF2FFFEE33FEED33FDEC33FCB0
:10082800C933C910D7059BE99A4007EC9BFCE99AA4
:10083800F90FD8E0E4C9FAE4CCFB2275F010EF2FE9
:10084800FFEE33FEED33FDCC33CCC833C810D707E9
:100858009BEC9AE899400AED9BFDEC9AFCE899F824
:0E0868000FD5F0DAE4CDFBE4CCFAE4C8F922B7
:0E087600C3E49FFFE49EFEE49DFDE49CFC2293
:10088400EB9FF5F0EA9E42F0E99D42F0EC6480C8EB
:0608940064809845F0228B
:10089A00EB9FF5F0EA9E42F0E99D42F0E89C45F0B4
:0108AA00222B
:0C08AB00ECF0A3EDF0A3EEF0A3EFF022C0
:1008B700A8828583F0D083D0821208CE1208CE1288
:1008C70008CE1208CEE473E493A3C583C5F0C583AD
:1008D700C8C582C8F0A3C583C5F0C583C8C582C88B
:0108E70022EE
:1008E800F8E0FBA3A3E0F925F0F0E5821582700299
:0708F8001583E0FA38F0223D
:0908FF00EBF0A3EAF0A3E9F022FA
:10090800D083D082F8E4937012740193700DA3A37E
:1009180093F8740193F5828883E473740293686092
:06092800EFA3A3A380DF92
:10092E00EC8EF0A4CCC5F0CCCDF8EFA4CEC5F02D56
:10093E00FDE43CFCE8A42EC8C5F03DFDE43CFCEF14
:0D094E00A4FFE5F028FEE43DFDE43CFC22A2
:00000001FF
