:0300000002258C4A
:0C258C00787FE4F6D8FD7581220225D38B
:1020B300206B65795F7363616E0D0A00204B455990
:1020C3005F325F505245530D0A0044657465637473
:1020D300696F6E5F766F6C203D202564200D0A00CA
:1020E3000D0A3D3D3D3D3D3D3D3D3D3D3D3D3D3D80
:1020F3003D3D3D3D3D3D3D3D3D3D3D3D3D3D3D3D0D
:102103003D3D3D3D0D0A00736B753A4B2564200D33
:102113000A00736F66742076657273696F6E3A2571
:1021230073200D0A00312E30312E3030006761707C
:10213300202564200D0A0074696D657220256420D2
:102143000D0A00496E7075745F566F6C7461676534
:102153005F737464203D2025640D0A003D3D3D3DC1
:102163003D3D3D3D3D3D3D3D3D3D3D3D3D3D3D3D9C
:102173003D3D3D3D3D3D3D3D3D3D3D3D3D3D0D0AEF
:01218300005B
:0D2184004200D400004100D7004100D60009
:101F0400E4900000F09000D6E0700A1226A490003D
:101F140000EFF08005E4900000F0900000E0640120
:101F240070319000C8E0702B7BFF7A2079B31209DE
:101F3400C6122BFFEF700A7F01122C05E4FF022B5F
:101F44001AE4FF122C0512261812281C9000D774CC
:101F540001F022122BFFEF6003021FE0900000E06B
:101F6400640270307BFF7A2079BF1209C69000B3F7
:101F7400E0C394045005E004F080069000B37401BB
:101F8400F09000D77401F012281C9000B3E0FF1207
:101F94002C1D8045900000E0640370409000B4E084
:101FA400C394055005E004F08005E49000B4F0907B
:101FB40000B3E0D394014016A3E0FF70059000B293
:101FC4008009EFD3940340069000A37402F09000BC
:0C1FD400B4E0FF122C171226181229C8C6
:011FE00022DE
:08224100900008EEF0A3EFF09D
:10224900900088E06402706A9000C8E064017062DE
:10225900900008A3E0FFE4900088F09000B704F034
:10226900900069E0FED3940F4048EED39F400CE004
:102279009F9000B5F0A37401F08016900069E0FE0C
:10228900C3EF9EFF9000B5F0122BCB9000B67402FD
:10229900F09000B5E0FFC394024006EFD3941440D8
:1022A90007E49000B5F0A3F01229C87D027F02125D
:1022B9002ABF9000B6E0FDB401149000B5E0FF7E9E
:1022C90000900008EE8FF012070EAFF0FE22EDB479
:1022D90002189000B5E0FFC3900009E09FFF90004D
:1022E90008E09400FEF0A3EFF022900008E0FEA3BE
:0222F900E0FF04
:0122FB0022C0
:0C169C00900008ECF0A3EDF0AB07AA06EC
:1016A800E4A3F0A3F0A3F0A37428F0A31208B700F2
:1016B8000000009000121208B700000000C3EB946D
:1016C8005AEA94005003021760AE02AF03AD07ACAC
:1016D80006E4120342E4FBFA797A7844120227906E
:1016E800000E1208AB900008E0FCA3E0FDE4120332
:1016F80042E4FBFA797A7844120227900012120821
:10170800AB90000EE0F8A3E0F9A3E0FAA3E0FBA396
:10171800E0FCA3E0FDA3E0FEA3E0FF120029900097
:101728000EE0F8A3E0F9A3E0FAA3E0FB1202277B9E
:10173800007A80793B784412011E90000E1208ABA3
:10174800E4FFFEFDFC90000EE0F8A3E0F9A3E0FA48
:10175800A3E0FB1202C450057E007FFF227F147EA7
:10176800AE7DC37C4290000EE0F8A3E0F9A3E0FA56
:10177800A3E0FB1202C4603F403D7F147EAE7DC3F0
:101788007CC290000EE0F8A3E0F9A3E0FAA3E0FB26
:1017980012002D7BCD7ACC79CC783E120227120329
:1017A8007B90000AEEF0A3EFF090000DE02FF09090
:1017B800000CE03EF0803C90000EE0F8A3E0F9A3B6
:1017C800E0FAA3E0FB7F147EAE7DC37C42120029C1
:1017D8007BCD7ACC79CC783E12022712037B90001D
:1017E8000AEEF0A3EFF0C390000DE09FF090000C1C
:1017F800E09EF09000B3E0B4030E90000DE024FBEF
:10180800F090000CE034FFF090000CE0FEA3E0FF45
:0118180022AD
:10181900E4900000F0A3F0A3F0A3F0A3F0A3F0A3D9
:10182900F0A3F09000D5E004F070069000D4E00435
:10183900F09000D4E0FEA3E0FFE4FCFD7B507AC306
:10184900F9F8D3120884400302196CE49000D4F02B
:10185900A3F07B0190000B04F0A37400F0A37404BF
:10186900F07A007902121BE87BFF7A2079CD90008B
:1018790006E0FFA3E090003BCFF0A3EFF01209C60A
:10188900900002E0FEA3E0FFA3E0FCA3E0FD121636
:101899009C900000EEF0A3EFF0122241900000EEC0
:1018A900F0A3EFF0D3900007E09420900006E094B5
:1018B900034003021959D3900003E0945A9000029F
:1018C900E094005003021959122BFFEF705BFF12CD
:1018D9002C119000D7E0B40121E4F0D3900001E08D
:1018E9009432900000E094004006E49000A980053D
:1018F9009000A97401F09000A8F0900000E0FEA308
:10190900E0FF7C007D0A1206FC90009FEEF0A3EF39
:10191900F0120DDE9000B4E0FF122C179000B3E036
:10192900FF122C1D12285A80219000C8E0B4010D25
:10193900E4FF122B1A122BED122A14800D7F0112CB
:101949002C11E4FF122B1A122BEDE49000D6F02291
:10195900E49000C8F07FFF122C111229EE9000D6F6
:031969007401F016
:01196C002258
:101FE100122BE3122977122A3AD2AF12000E122BCA
:101FF100A1121AAF122A9F7FC87E00122A7F7F0288
:10200100122BBE12294D122BF67FB07E04122B32F9
:102011007F06122C177F06122C1D7F587E02122B71
:1020210032122BED122ADE7BFF7A2079E31209C6E8
:102031007BFF7A21790A90003B741FF0A374A8F00A
:102041001209C690003B74FFF0A37421F0A3742819
:10205100F07BFF7A2179151209C67BFF7A2179304D
:102061009000B3E0FF90003BE4F0A3EFF01209C64B
:102071007BFF7A21793A9000B4E0FF90003BE4F0D5
:10208100A3EFF01209C67BFF7A2179469000BCE0EC
:10209100FFA3E090003BCFF0A3EFF01209C67BFF56
:1020A1007A21795F1209C6121819121F04122C2302
:0220B10080F5B8
:0A2BE300758E5190FE917401F022EE
:10285A007F649000BCE07004A3E06402700D9000F5
:10286A009BE0C313F0A3E013F07F329000A8E0B41A
:10287A000102800C9000A8E0700990009BA3E0FF81
:03288A00122B1AF4
:01288D002228
:10281C009000B3E024FE601514601D1460252403A1
:10282C00702B90009D7401F0A374E0F02290009D39
:10283C007402F0A37458F02290009D7402F0A374FB
:0E284C00BCF02290009D7403F0A37420F022D3
:102ADE00E4FFFE12246AD3EF9440EE94069000BCFD
:0D2AEE00E44006F0A37402F022F0A304F00F
:012AFB0022B8
:0E2BB000EF1F70011E144E6004000080F3221F
:102B32007D407C03ED1D70011C144C70F7EF1F707B
:062B4200011E144E70EAB2
:012B4800226A
:102A3A0090FF037401F090FF07F090FF02F090FFFF
:102A4A0011F075B4817F507E00122BB090FE9B74FA
:032A5A0049F0221E
:102B4900E4FFFE75B50743B440E5B430E5FB53B483
:052B5900DFAEB7AFB6CE
:012B5E002254
:102B5F00E4FFFE75B50343B440E5B430E5FB53B471
:052B6F00DFAEB7AFB6B8
:012B7400223E
:102B7500E4FFFE75B50243B440E5B430E5FB53B45C
:052B8500DFAEB7AFB6A2
:012B8A002228
:102B8B00E4FFFE75B50943B440E5B430E5FB53B43F
:052B9B00DFAEB7AFB68C
:012BA0002212
:0B1BE800900008EBF0A3EAF0A3E9F086
:101BF30090000E1208B700000000E4900012F0F00D
:101C030090000EE0F8A3E0F9A3E0FAA3E0FB122BA7
:101C13005FE4FCFDEB2FFFEA3EFEED39FDEC38FC03
:101C230090000E1208AB900012E004F0E0C394059C
:101C330040CE90000EE0FCA3E0FDA3E0FEA3E0FF96
:101C4300E47B05FAF9F81207E490000E1208ABE4FE
:101C53007FA07E0FFDFC90000EE0F8A3E0F9A3E067
:101C6300FAA3E0FB120759E47BFF7A0FF9F8120796
:101C7300E4900008E0FBA3E0FAA3E0F9EE8FF01292
:101C8300073A7F147E00122BB090000E1208B700A3
:101C9300000000E4900012F090000EE0F8A3E0F9D9
:101CA300A3E0FAA3E0FB122B49E4FCFDEB2FFFEAD0
:101CB3003EFEED39FDEC38FC90000E1208AB9000AF
:101CC30012E004F0E0C3940540CE90000EE0FCA3C4
:101CD300E0FDA3E0FEA3E0FFE47B05FAF9F81207B9
:101CE300E490000E1208ABE47FA07E0FFDFC900091
:101CF3000EE0F8A3E0F9A3E0FAA3E0FB120759E42E
:101D03007BFF7A0FF9F81207E490000BE0FBA3E0E6
:0A1D1300FAA3E0F9EE8FF002073AA0
:10246A009000001208B700000000E4900004F0F0A9
:10247A00900000E0F8A3E0F9A3E0FAA3E0FB122B36
:10248A0075E4FCFDEB2FFFEA3EFEED39FDEC38FC6E
:10249A009000001208AB900004E004F0E0C3940539
:1024AA0040CE900000E0FCA3E0FDA3E0FEA3E0FF25
:1024BA00E47B05FAF9F81207E49000001208ABE48D
:1024CA007FA07E0FFDFC900000E0F8A3E0F9A3E0F6
:1024DA00FAA3E0FB120759E4FB7A10F9F81207E4B1
:1024EA009000001208AB900000A3A3E0FEA3E0FF57
:0124FA0022BF
:1024FB009000CF1208B700000000E49000D3F0F07A
:10250B009000CFE0F8A3E0F9A3E0FAA3E0FB122BD5
:10251B008BE4FCFDEB2FFFEA3EFEED39FDEC38FCC6
:10252B009000CF1208AB9000D3E004F0E0C3940509
:10253B0040CE9000CFE0FCA3E0FDA3E0FEA3E0FFC4
:10254B00E47B05FAF9F81207E49000CF1208ABE42C
:10255B007FA07E0FFDFC9000CFE0F8A3E0F9A3E095
:10256B00FAA3E0FB120759E4FB7A10F9F81207E41F
:10257B009000CF1208AB9000CFA3A3E0FEA3E0FF27
:01258B00222D
:101D1D000D0A3D3D3D3D3D3D3D3D3D3D3D3D3D3D49
:101D2D003D3D3D3D3D3D3D3D3D3D3D3D3D3D3D3DD6
:101D3D003D3D3D3D3D3D3D3D3D3D0D0A00706F77C7
:101D4D006572206F6E20666C617368206761703AF2
:101D5D002564202074696D65723A2564200D0A0092
:101D6D00706F776572206F6E20666C617368207678
:101D7D00616C75653A256420207369676E3A256438
:101D8D00200D0A003D3D3D3D3D3D3D3D3D3D3D3D33
:101D9D003D3D3D3D3D3D3D3D3D3D3D3D3D3D3D3D66
:101DAD003D3D3D3D3D3D3D3D3D3D3D3D0D0A003DF6
:101DBD003D3D3D3D3D3D3D3D3D3D3D3D6669727386
:101DCD007420696E697420646174613D3D3D3D3DD3
:101DDD003D3D3D3D3D3D200D0A00307825303458C8
:101DED002020307825303458202030782530345854
:101DFD002020307825303458200D0A00666C617330
:101E0D0068206761703A2564202074696D65723AA7
:061E1D002564200D0A00FF
:102191004500B300000000004400B82020050141C3
:0821A10000BE014200BC000079
:062BFF009000BEE0FF2281
:062C05009000BEEFF0227A
:102A5D00D310AF01C3C0D075FDF075FC0F8EFA8F8A
:102A6D00F975FDD275FC2D75FDE175FC1ED0D0926A
:022A7D00AF2286
:1029A000D310AF01C3C0D08FFB75FDF075FC0FAE27
:1029B00004AF058EFA8FF975FDB475FC4B75FDE11A
:0829C00075FC1ED0D092AF227D
:0C2722007B017A0079B37D057F047E3CCA
:10272E00D310AF01C3C0D090000AEEF0A3EFF0A318
:0B273E00EDF0A3EBF0A3EAF0A3E9F03C
:10274900E4A3F0C2AFF090000CE0FF900010E0C3EA
:102759009F502C90000DE0FBA3E475F001120724B3
:10276900A9F0FA1206A4FF90000AE475F001120715
:1027790024ADF0FC1229A0900010E004F080C7D22B
:01278900AFA0
:05278A00D0D092AF2247
:040003008F828E83D7
:03000700E493FF80
:01000A0022D3
:1027DC0090000AEEF0A3EFF0A3EBF0A3EAF0A3E96C
:1027EC00F0AF051DEF602890000AE475F0011207A8
:1027FC002485F082F583E493FF90000CE0FBA3E4C6
:10280C0075F001120724A9F0FAEF1206EA80D22221
:10288E00E4FDFCED2400FFE4343CFE12000374B8BA
:10289E002DF582E43400F583E0B507030C80037F49
:1028AE0000220DEDB404DCECC3940440037F01223E
:0228BE007F0099
:0128C00022F5
:101AAF00E4900000F090FE927404F012288EEF7014
:101ABF000790000004F0807C7BFF7A1D791D1209CE
:101ACF00C67B017A0079B37D057F047E3C1227DC4B
:101ADF007BFF7A1D794A9000B3E0FF90003BE4F062
:101AEF00A3EFF09000B4E0FF90003DE4F0A3EFF01F
:101AFF001209C67BFF7A1D796D9000B5E0FF90004B
:101B0F003BE4F0A3EFF09000B6E0FF90003DE4F06F
:101B1F00A3EFF01209C67BFF7A1D79911209C690C7
:101B2F0000B3E0D394045006A3E094054006900060
:101B3F00007401F0900000E06401707A7BFF7A1D61
:101B4F0079BC1209C69000B37401F0A3F07F007E38
:101B5F003C122A5DFB7A0079B87D0412272E1227DA
:101B6F00227B017A0079B87D047F007E3C1227DC4E
:101B7F007BFF7A1D79E79000B8E0FF90003BE4F01F
:101B8F00A3EFF09000B9E0FF90003DE4F0A3EFF079
:101B9F009000BAE0FF90003FE4F0A3EFF09000BB9D
:101BAF00E0FF900041E4F0A3EFF01209C67BFF7A4B
:101BBF001D79911209C67BFF7A1E79099000B3E057
:101BCF00FF90003BE4F0A3EFF09000B4E0FF900033
:091BDF003DE4F0A3EFF00209C699
:1029C8007F047E3C122A5D7B017A0079B87D047F02
:1029D8000012272E1227227B017A0079B37D057F0A
:0629E800047E3C0227DC26
:1021A9005E006A000000000000000000000000005E
:1021B9000000000000000000000000000000000016
:0921C9000041008800410069009A
:1029770090FF1674C1F090FF157460F090FFA0747B
:1029870026F090FFA114F075CEFF75CD9875CC0693
:09299700759E02759810D2AC2265
:0C2BCB00C2AC8F993099FDC299D2AC22A7
:032C2700022BCBB2
:0B28F40090000FEBF0A3EAF0A3E9F066
:1028FF00E4FEEEC39D501A90000FE0FBA3E0FAA395
:10290F00E0F98E827583001206BDFF122C270E8010
:01291F00E1D6
:012920002294
:102ABF0090000A7455F0A3EFF0A3EDF0A3740DF09E
:0F2ACF00A3740AF07B017A00790A7D050228F4CE
:062C0B00AE07122BCB22E4
:0300230002278F22
:0D278F00C0E0C083C082C0D075D000C0077C
:10279C00E59830E030AF995398FE900088E01460D3
:1027AC0019047021EFB4551D90006AF0900068E098
:1027BC0004F09000887401F0800B900069EFF090A9
:0527CC0000887402F01A
:0B27D100D007D0D0D082D083D0E032FF
:1021D2004100C8004100BF004200C000004100C2EF
:0F21E200004200C300004100C5014200C60000DA
:0F2BA10090FF177460F090FF00F090FF01F0229A
:1022FC00E4900002F0A28133900001F09000BFE066
:10230C0014602614604E14700302239F2403600390
:10231C000223A8900001E060030223AD9000C0F0FE
:10232C00A3F09000BF04F08078900001E0706B90F7
:10233C0000C1E004F070069000C0E004F0C390000F
:10234C00C1E094039000C0E09400403E9000BF7444
:10235C0002F08036900001E0B40106A37404F08012
:10236C003B9000C1E004F070069000C0E004F0C3A4
:10237C009000C1E094C89000C0E09400400C900024
:10238C00027405F09000BF7403F07F0A7E00122BDC
:10239C0032800E900001E0B401078000E49000BF91
:0623AC00F0900002E0FFCA
:0123B2002208
:1023B300E4900002F0A28033900001F09000C2E0AC
:1023C30014602614604E1470030224562403600321
:1023D30002245F900001E060030224649000C3F0D4
:1023E300A3F09000C204F08078900001E0706B903D
:1023F30000C4E004F070069000C3E004F0C3900052
:10240300C4E094039000C3E09400403E9000C27483
:1024130002F08036900001E0B40106A37404F0805A
:102423003B9000C4E004F070069000C3E004F0C3E6
:102433009000C4E094909000C3E09401400C90009D
:10244300027406F09000C27403F07F0A7E00122B20
:1024530032800E900001E0B401078000E49000C2D6
:06246300F0900002E0FF12
:012469002250
:1026A4001222FCBF05037F01221223B3BF062112AD
:1026B4002BFFBF01149000B7E0700E9000C804F027
:1026C4009000B7F01229C8803CE49000C8F080352F
:1026D4009000C5E0602330A70320801D9000C8E06F
:1026E40070177F32FE122B32E49000C5F020A7034E
:1026F4007F022220800F7F032230A70930800690BA
:1027040000C57401F0308113D39000C7E0940190A8
:0D27140000C6E094004004E4F0A3F07F0054
:012721002295
:0421F1004100D800D1
:102B1A007E009000D8E0FD7C0012092EE47B64FA66
:072B2A00F9F81207E48FDF48
:012B31002281
:102A7F00900000EEF0A3EFF090FF1D74C0F090FFF8
:102A8F009C7435F09000D874FFF0F5DE75DD972259
:0D2BBE0075BD17EF75F02BA490FEA0F0225E
:042C230043BD10227B
:1028C1007365742074696D65207365636F6E643A16
:1028D10025640D0A0074696D65207365636F6E640C
:1028E1003A2564200D0A0074696D65206F666620C3
:0328F1000D0A00CD
:1021F5004200AE00004200AC00004200B0000041C9
:1022050000A2004100A3004100B2004100A9004224
:1022150000A400004200AA00004200A60000410000
:02222500A8000F
:102AFC009000ACEEF0A3EFF0E4A3F0A3F07BFF7A30
:0E2B0C002879C190003BEEF0A3EFF00209C65D
:102921009000A9E0B401249000A4E475F00112071D
:102931000EFED3E5F0940EEE9401400FE49000A951
:0C294100F09000A4F0A3F09000A8F02299
:10261800E49000AEF0A3F09000B4E0FF70089000E2
:10262800ACF0A3F08052EFB4010C9000AC7407F04A
:10263800A304F0E48042EFB4020D9000AC740EF0F5
:10264800A37410F0E48031EFB4030D9000AC741C57
:10265800F0A37420F0E48020EFB4040D9000AC7473
:1026680038F0A37440F0E4800FEFB405179000AC85
:102678007470F0A37480F0E49000B0F0A3F09000C0
:10268800AAF0A3F07BFF7A2879D69000ACE0FFA3EC
:0C269800E090003BCFF0A3EFF00209C679
:10000E00E490FE80F0F589758CF5758A9643A8020A
:04001E0043881022E1
:03000B0002196D6A
:10196D00C0E0C0F0C083C082C0D075D000C000C040
:10197D0001C002C003C004C005C006C007122BFF82
:10198D00EF6003021A6A9000AFE004F07006900059
:10199D00AEE004F0C39000AFE094F49000AEE0949C
:1019AD00015003021A911229219000B2E0B4022DC8
:1019BD009000B1E004F070069000B0E004F0D39018
:1019CD0000B1E094409000B0E0943840109000B227
:1019DD00E4F09000B0F0A3F09000A204F0D39000DA
:1019ED00ADE094009000ACE094004042A3E024FFF1
:1019FD00F09000ACE034FFF09000A3E0640270576B
:101A0D009000B1E004F070069000B0E004F0D390C7
:101A1D0000B1E094409000B0E09438403A9000A2BC
:101A2D007401F0A3E4F09000B0F0A3F080299000D1
:101A3D00B4E060237F01122C059000ACE4F0A3F01C
:101A4D009000B0F0A3F09000A3F09000B2F07BFFF7
:101A5D007A2879E81209C69000AEE480249000C877
:101A6D00E0B401209000A6E475F00112070EFED33C
:101A7D00E5F09460EE94EA400B9000C8E4F090001D
:101A8D00A6F0A3F0121E23D007D006D005D004D0A7
:101A9D0003D002D001D000D0D0D082D083D0F0D0EE
:021AAD00E03225
:102227004200CD00004100CC004100CB004100C975
:05223700004100CA0097
:10294D0043D1E890FF62E04406F090FF61E0440857
:10295D00F090FF60E04410F090FF6AE044F8F0C2A0
:0A296D0097C296C295C294C293224D
:062C11009000CBEFF02261
:092BED009000CD74CEF0A3F0229B
:1029EE009000C9E0FF700F9000CD74CEF0A3F09070
:1029FE0000C97401F022EFB4010B9000CD74FFF00A
:052A0E00E49000C9F096
:012A130022A0
:102A14009000CAE0FF700F9000CD74CEF0A3F09048
:102A240000CA7401F022EFB4010B9000CD7404F0DD
:052A3400E49000CAF06F
:012A3900227A
:062C17009000CEEFF02258
:062C1D009000CDEFF02253
:092BF6009000CD74CCF0A3F02294
:101E23009000CBE0FF600EF4600B9000C8E064010B
:101E33006003021EF943D1E89000CCE0B4080040EF
:101E430003021EF3901E4EF8282873021E66021E1C
:101E530076021E87021E9A021EAF021EBF021ED00A
:101E6300021EE353D1EF1214B91212069000CC7480
:101E730001F022C292D2911214BD1212069000CC2C
:101E83007402F022C292C291D2A31214BF1212069C
:101E93009000CC7403F022C292C291C2A3D2B412B6
:101EA30014C11212069000CC7404F02243D1101214
:101EB30014B91212069000CC7405F022C292D2918A
:101EC3001214BD1212069000CC7406F022C292C204
:101ED30091D2A31214BF1212069000CC7407F02201
:101EE300C292C291C2A3D2B41214C11212068000CC
:101EF300E49000CCF0229000CBE0B4010375D168EC
:011F030022BB
:051206009000CDE0FFA7
:10120B00EF12090812720112AA0212E203123A0437
:10121B00135205138A0613C10713FB081435091360
:10122B001A0A14AECC14A3CE146CFF000014B890A1
:10123B0000CCE0FF6003B40404C295C294EF6401D8
:10124B006004EFB40504D295D294EF64026004EF0E
:10125B00B40604D295D294EF64036008EF64076080
:10126B00030214B802149E9000CCE0FF6003B40498
:10127B0004C295C294EF64016004EFB40504D295E7
:10128B00C294EF64026004EFB40604D295C294EFEB
:10129B0064036008EF640760030214B80213F6904E
:1012AB0000CCE0FF6003B40404D295C294EF640158
:1012BB006004EFB40504D295C294EF64026004EFAE
:1012CB00B40604C295D294EF64036008EF64076020
:1012DB00030214B80214309000CCE0FF6003B40496
:1012EB0004D295C294EF64016004EFB40504D29567
:1012FB00C294EF64026004EFB40604D295D294EF6B
:10130B0064036008EF640760030214B8021467906B
:10131B0000CCE0FF6003B40404C295C294EF6401F7
:10132B006004EFB40504D295D294EF64026004EF2D
:10133B00B40604D295D294EF64036008EF6407609F
:10134B00030214B80213F69000CCE0FF6003B40460
:10135B0004D295C294EF64016004EFB40504C29506
:10136B00D294EF64026004EFB40604D295D294EFEA
:10137B0064036008EF640760030214B802146790FB
:10138B0000CCE0FF6003B40404D295C294EF640177
:10139B006004EFB40504C295D294EF64026004EFCD
:1013AB00B40604D295D294EF64036008EF6407602F
:1013BB00030214B8806F9000CCE0FF6003B4040408
:1013CB00D295C294EF64016004EFB40504D295C2C8
:1013DB0094EF64026004EFB40604D295C294EF64F8
:1013EB00036008EF640760030214B8C295C294222D
:1013FB009000CCE0FF6003B40404D295C294EF6478
:10140B00016004EFB40504D295D294EF640260043A
:10141B00EFB40604D295D294EF64036008EF64072F
:10142B0060030214B8D295D294229000CCE0FF60F6
:10143B0003B40404D295C294EF64016004EFB405C5
:10144B0004D295D294EF64026004EFB40604D295F3
:10145B00D294EF64036005EF64077051D295C29488
:10146B00229000CCE0FF6003B40404D295C294EF49
:10147B0064016004EFB40504C295D294EF6402607A
:10148B0004EFB40604C295D294EF64036005EF64D5
:10149B0007701AC295D29422C297C296C295C29473
:0E14AB00C29322D297D296D295D294D2932297
:0D14B900D292C291C2A3C2B49000CEE0FF57
:1014C600EFB40700400302169B9014D6F828287341
:1014D6000214EB0215290215670215A50215E20290
:1014E600161F02165E9000CCE0FF6003B40406C22D
:1014F60097C296C293EF64016004EFB40506D297D3
:10150600D296D293EF64026004EFB40606C297D275
:1015160096C293EF64036046EF6407600302169B6E
:101526000216579000CCE0FF6003B40406D297C2BF
:1015360096C293EF64016004EFB40506D297D29683
:10154600D293EF64026004EFB40606C297C296C255
:1015560093EF64036008EF6407600302169B0216AC
:10156600579000CCE0FF6003B40406C297C296C24F
:1015760093EF64016004EFB40506D297D296D29336
:10158600EF64026004EFB40606D297C296C293EFE8
:1015960064036008EF6407600302169B0216579007
:1015A60000CCE0FF6003B40406C297C296D293EF64
:1015B60064016004EFB40506D297D296D293EF6425
:1015C600026004EFB40606C297C296C293EF6403A4
:1015D6006008EF6407600302169B80759000CCE0FC
:1015E600FF6003B40406C297D296C293EF6401600B
:1015F60004EFB40506D297D296D293EF6402600444
:10160600EFB40606C297C296C293EF64036008EF72
:101616006407600302169B80389000CCE0FF6003ED
:10162600B40406C297C296C293EF64016004EFB495
:101636000506D297D296D293EF64026004EFB40601
:1016460006C297C296D293EF64036005EF640770F3
:1016560044D297D296D293229000CCE0FF6003B496
:101666000406C297C296C293EF64016004EFB40504
:1016760006C297C296C293EF64026004EFB40606F0
:10168600C297C296C293EF64036004EFB40706C222
:0616960097C296C29322E8
:0C2BD700000000000000000000000000F2
:04223C004100A100BC
:102A9F00E490009FF0A3F090009BF0A3F0A3F0A3AD
:102AAF00F090009A04F0900099F090009804F022B2
:100DDE0078087C007D017BFF7A2B79D77E007F0C13
:100DEE0012067E9000141208B70000000090001842
:100DFE001208B70000000090009FE0FEA3E0FF90F5
:100E0E00009DE0FCA3E0FDD39FEC9E50030211FE7B
:100E1E00ED9FFFEC9EFED3EF9464EE940040030230
:100E2E0011F4E4FCFD9000081208ABE4900096F07B
:100E3E0090008DE0FCA3E0FDA3E0FEA3E0FFA31273
:100E4E0008AB900089E0FCA3E0FDA3E0FEA3E0FF69
:100E5E00A31208AB900008E0FCA3E0FDA3E0FEA304
:100E6E00E0FF9000891208AB90008DE0FCA3E0FD3E
:100E7E00A3E0FEA3E0FF900089E0F8A3E0F9A3E071
:100E8E00FAA3E0FBD312089A403390008DE0F8A34A
:100E9E00E0F9A3E0FAA3E0FB900089E0FCA3E0FDFB
:100EAE00A3E0FEA3E09BFFEE9AFEED99FDEC98FC0D
:100EBE009000081208ABE4900095F0803190008904
:100ECE00E0F8A3E0F9A3E0FAA3E0FBA3E0FCA3E0C3
:100EDE00FDA3E0FEA3E0C39BFFEE9AFEED99FDECB1
:100EEE0098FC9000081208AB9000957401F0E47F16
:100EFE0002FEFDFC90008DE0F8A3E0F9A3E0FAA35A
:100F0E00E0FB1207599000101208AB900091E0FC24
:100F1E00A3E0FDA3E0FEA3E0FF900089E0F8A3E0CC
:100F2E00F9A3E0FAA3E02FFFEA3EFEE93DFDE83C1F
:100F3E00FC900010E0F8A3E0F9A3E0FAA3E0FBC3F5
:100F4E0012089A504B900091E0FCA3E0FDA3E0FE46
:100F5E00A3E0FF900089E0F8A3E0F9A3E0FAA3E094
:100F6E002FFFEA3EFEE93DFDE83CFC900010E0F864
:100F7E00A3E0F9A3E0FAC3EF9BFFEE9AFEED99FD15
:100F8E00EC98FC9000101208ABE4900097F0805D96
:100F9E00900010E0FCA3E0FDA3E0FEA3E0FFC00480
:100FAE00C005C006C007900091E0FCA3E0FDA3E0E1
:100FBE00FEA3E0FF900089E0F8A3E0F9A3E0FAA316
:100FCE00E02FFBEA3EFAE93DF9E83CF8D007D006FF
:100FDE00D005D004C3EF9BFFEE9AFEED99FDEC9881
:100FEE00FC9000101208AB9000977401F0900098DE
:100FFE00E0FFE4FCFDFE900008E0F8A3E0F9A3E0BA
:10100E00FAA3E0FB1207599000081208AB90009962
:10101E00E0FFE4FCFDFE900089E0F8A3E0F9A3E018
:10102E00FAA3E0FB12075990000C1208AB90009A3D
:10103E00E0FFE4FCFDFE900010E0F8A3E0F9A3E071
:10104E00FAA3E0FB1207599000101208AB9000951E
:10105E00E0702D900014E0FCA3E0FDA3E0FEA3E001
:10106E00FF900008E0F8A3E0F9A3E0FAA3E0FBEF9D
:10107E002BFFEE3AFEED39FDEC38FC900014802B80
:10108E00900018E0FCA3E0FDA3E0FEA3E0FF9000BB
:10109E0008E0F8A3E0F9A3E0FAA3E0FBEF2BFFEEE4
:1010AE003AFEED39FDEC38FC9000181208AB9000BA
:1010BE0096E0702E900014E0FCA3E0FDA3E0FEA3EA
:1010CE00E0FF900008E0F8A3E0F9A3E0FAA3E0FB4C
:1010DE00EF2BFFEE3AFEED39FDEC38FC90001412CA
:1010EE0008AB900097E0702B900014E0FCA3E0FD9D
:1010FE00A3E0FEA3E0FF900010E0F8A3E0F9A3E068
:10110E00FAA3E0FBEF2BFFEE3AFEED39FDEC38FCD7
:10111E00A3802B900018E0FCA3E0FDA3E0FEA3E06B
:10112E00FF900010E0F8A3E0F9A3E0FAA3E0FBEFD4
:10113E002BFFEE3AFEED39FDEC38FC90001812084C
:10114E00AB900014E0F8A3E0F9A3E0FAA3E0FB9063
:10115E00009BE0FEA3E0FFE4FCFDEB2FFFEA3EFE6A
:10116E00ED39FDEC38FC9000141208AB900018E03D
:10117E00FCA3E0FDA3E0FEA3E0FF900014E0F8A3C3
:10118E00E0F9A3E0FAA3E0FBD312089A40629000C4
:10119E0018E0F8A3E0F9A3E0FAA3E0FB900014E056
:1011AE00FCA3E0FDA3E0FEA3E09BFFEE9AFEED990B
:1011BE00FDEC98FC9000081208ABE47F64FEFDFC89
:1011CE00900008E0F8A3E0F9A3E0FAA3E0FBC31255
:1011DE00089A5012900008A3A3E0FFA3E090009B92
:1011EE00CFF0A3EFF02290009BE4F0A37464F02202
:0711FE00E490009BF0A3F058
:0112050022C6
:100026000203E7E86480F8E933E83360110460F01E
:10003600ED33EC337009E8FCE9FDEAFEEBFF220440
:1000460060DED3EB9FEA9EE99DE8C2E78CF0C2F73B
:1000560095F0400CE8CCF8E9CDF9EACEFAEBCFFB07
:100066001203B285D0F05804700320D5B3E80470AB
:10007600075002B2D50203F192D5EC0460F7E4CC46
:10008600C0E0C398F8603B94186008400DD0E0FBD0
:100096000203C9E4FBFAC9FC8028E830E406E4C997
:1000A600FBE4CAFCE830E305E4C9CACBFCE8540724
:1000B6006010F8C3E913F9EA13FAEB13FBEC13FC2F
:1000C600D8F130F52FC3E49CFCEF9BFFEE9AFEEDD2
:1000D60099FDD0E0FBEF4E4D4C701222DB0302037C
:1000E600EEEC2CFCEF33FFEE33FEED33FDED30E7A7
:1000F600EB0203C9EF2BFFEE3AFEED39FDD0E0FB34
:1001060050130BBB00030203F1ED13FDEE13FEEFDC
:0801160013FFEC13FC0203C906
:10011E00EC4D6011E8497017ED33EC3304600DE4DB
:10012E00FCFFFEFD22E933E8330470F80203E71208
:10013E0003B258046009E4CC248150062850090209
:10014E0003F12840030203EEC0E0EB4A7044B9808D
:10015E0006D0E0FB0203DDEF4E701CBD8008EBFF06
:10016E00EAFEE9FD80EBE98DF0A4FEE5F002020760
:10017E00E9CDF9EAFEEBFFEF89F0A4FCE5F0CE89BC
:10018E00F0A42EFFE435F0CD89F0A42DFEE435F079
:10019E008067EF4E7005BD80D780C3EF8BF0A4ACA7
:1001AE00F0EE8BF0A42CFCE435F0F8EF8AF0A42CE2
:1001BE00E5F038FCE433CB8DF0A42CFCE5F03BF8F5
:1001CE00EE8AF0A42CFCE5F038F8E433CF89F0A4E5
:1001DE002CFCE5F038CF3400CE89F0A42FFFE5F0EB
:1001EE003EFEE433C98DF0A42EFEE5F039CD8AF043
:1001FE00A42FFFE5F03EFEE43DFD33D0E0FB5007BB
:10020E000BBB000F0203F1EC2CFCEF33FFEE33FEC1
:06021E00ED33FD0203C9EF
:100224000203F1EC5D046005E8590470030203E77E
:100234001203B2580460F6EC4860F2EC7004FDFE60
:10024400FF22C860DB2481C85009C39860025006AD
:100254000203EE9850CAF582E9294B4A7005AB8235
:100264000203DD75F0007C1A7880C3EF9BEE9AEDF3
:1002740099400DC3EF9BFFEE9AFEED99FDE842F025
:10028400DC23ACF0D0E0FFD0E0FED0E0FDAB822078
:10029400E7101BEB60BAEC2CFCEF33FFEE33FEED02
:1002A40033FD0203C9E803F830E705C0F075F00038
:1002B400EF2FFFEE33FEED33FD40B830E7C280AAE6
:1002C40074F8CC6480CCC86480C8F58204604FC3E1
:1002D400EB9FF5F0EA9E42F0E99D42F0E89C45F080
:1002E400603C501DE5825FFFE582D313CB5BCBF40A
:1002F4002B5582FB50280ABA002409B90020088033
:100304001DE5825BFBE582D313CF5FCFF4C3132FCC
:100314005582FF50090EBE00050DBD00010CC3EB54
:100324009FF5F0EA9E42F0E99D42F0E89C45F060BA
:0903340007CC4820E701B3EC22DC
:10033D0075F020800E75F010800575F0087D007E3B
:10034D00007F003392D530D503120876EC33401080
:10035D00EF33FFEE33FEED33FDEC33FCD5F0ED2244
:0E036D00E5F0247EA2D513CC92E7CDCEFF2280
:10037B00EDD2E7CD33EC3392D524814006E4FFFE7A
:10038B00FDFC22FCE4CFCECDCC24E0501174FF80D9
:10039B00EDC3CC13CCCD13CDCE13CECF13CF047076
:0703AB00F030D5DE020876F8
:10095B00E50D243BF582E43400F583E0050D229090
:10096B00003830100390003BE475F0011208E802E8
:10097B0006A42009E97F2ED2098018EF540F24908A
:10098B00D43440D4FF300D0BEF24BFB41A00500306
:10099B002461FFE50E6002150E0511E511700205CD
:1009AB001030100E900038E475F0011208E8EF02D9
:1009BB0006EA022C0B7403D2108003E4C210F50D6F
:1009CB009000381208FFE4F50EF510F511E50E60F6
:1009DB00077F2012099E80F5750FFFC20AC209C25C
:1009EB000BC20CC20EC20FC21112096AFF700D307E
:1009FB0010057F001209AFAF11AE1022B4255FC2F4
:100A0B00D5C20D12096AFF24D0B40A00501A75F032
:100A1B000A780E30D50508B6FF0106C6A426F620C7
:100A2B00D5047002D20C80D924CFB41A00EF500435
:100A3B00C2E5D20D020CA1D20A80C6D20980C0D267
:100A4B000B80BCD2D580BAD20E80B47F2012099E07
:100A5B00200B077401B50E0040F112095BFF120960
:100A6B009E0209D8D211D20F809512095BFB120995
:100A7B005BFA12095BF94A4B7006799F7A0D7BFF83
:100A8B00200B2EE50E602A7E008E827583001206E7
:100A9B00BD60060EEE650F70F0C2D5EBC0E0EAC08C
:100AAB00E0E9C0E0EE120D02D0E0F9D0E0FAD0E0C0
:100ABB00FB1206A4FF60AAEBC0E0EAC0E0E9C0E0CD
:100ACB0012099ED0E02401F9D0E03400FAD0E0FB0B
:100ADB00E50F0460DCD50FD98087D20B80A2120CF6
:100AEB00E460F7E50F7001041203FCA90F600DE53C
:100AFB000F600914F50F120D8CEF60F3EA30E7026B
:100B0B00F404C3995079EAF4250F0430E701E404A7
:100B1B00F50F800D120CE460C1EA050F250F1203CF
:100B2B00FCEA900067F030E701E4250F04D50F04D1
:100B3B00200E0114120D02E4C0E0120D8C90006720
:100B4B00E0601320E70714F0120986802204F0D02E
:100B5B00E014C0E07F00120986E50F600712097DE3
:100B6B00150F800B300E0312097DD0E00209D8D08F
:100B7B00E00480C4120CE4609EE50F041203FC90A9
:100B8B000067EAF0E50F200E026001042404120D49
:010B9B000257
:100B9C0074FF04C0E0120D8C120986E50F200E02C2
:100BAC00600312097DD0E0B50FE87F4512099090E3
:100BBC000067E07F2B30E7047F2DF404C0E01209BE
:100BCC009ED0E075F00A84C0F0120987D0E01209BB
:100BDC00870209D8791080027908C20FC2118008E7
:100BEC00D2D5790A8004790AC2D5E50F047002F5D2
:100BFC000FE4FAFDFEFF12095BFC7B08200A1312BE
:100C0C00095BFD7B1030090A12095BFE12095BFFC0
:100C1C007B20EC3382D592D55013C3E43009069F68
:100C2C00FFE49EFEE4200A039DFDE49CFCE4CBF86B
:100C3C00C20AEC700CCFCECDCCE824F8F870F3805F
:100C4C0017C3EF33FFEE33FEED33FDEC33FCEB3328
:100C5C00FB994002FB0FD8E9EB300A05F8D0E0C451
:100C6C0048B20AC0E00AEC4D4E4F78207B0070C2AF
:100C7C00EAB50F0040BCC0E0120D04D0F0D0E0206B
:100C8C000A04C4C0E0C4B20AC0F0120987D0F0D57F
:100C9C00F0EB0209D81209080A75530BE0580A4602
:100CAC004C0A42420BE44F0BEC440BEC490A5B43FD
:100CBC000BF2550B1F460B7F450AE9470DBF500A37
:100CCC004A2D0A4E2E0A712B0A52230A6F200DA8A8
:100CDC002A0A0A4800000A69E50FB4FF03750F06DB
:100CEC0012095BFC12095BFD12095BFE12095BFF2A
:100CFC00900060020439790AA2D5200C14300E0938
:100D0C00B910020404B9080104A2D5200F02500145
:100D1C0004200B68920BB50E005034C0E07F2030DD
:100D2C000C197F30A20B720F720E500F120D5BC29A
:100D3C000BC20FC20EC2117F30800F300E03E9C000
:100D4C00E012099E300E03D0E0F9D0E0B50ECC30A5
:100D5C000E177F30B9100C12099E7F58300D077F8B
:100D6C00788003B9080312099E300B057F2D020908
:100D7C009E7F202011F87F2B200FF322920B80CF27
:100D8C007F00B40700500B2460F582E43400F58337
:100D9C00E0FF22286E756C6C2900D20A12095B30B8
:100DAC000AF8C20A780E30D50108F6020A0A2D504C
:100DBC0043495812095B2403B405004001E4900D2B
:100DCC00BA9312098F743A12098FD20C750E040261
:020DDC000BE02A
:1003B200E9D2E7C933E833F892D5EDD2E7CD33EC91
:0703C20033FC5002B2D5220A
:1003C900EC30E7100FBF000C0EBE00080DBD000495
:1003D9000BEB6014A2D5EB13FCED92E7FD2274FF41
:1003E900FCFDFEFF22E480F8A2D574FF13FC7D809A
:0303F900E480EFAE
:1003FC00F920E73624F950037907E4F42402FBE5ED
:10040C0082158270021583DBF6E024FB501BE96039
:10041C0014E4F0E582158270021583E004F0B40A4E
:0D042C0008E4F0D9EE7401F00A22C2D522D6
:10043900ED33EC3392D5FA602AB4FF33EDC2E77B92
:10044900FF60067A04795EE4227A04796720D5048C
:100459007A047962224E614E002B494E46002D499D
:100469004E4600E47A08F0A3DAFC7B00740722C048
:1004790083C082ECC0E0EDC0E0EEC0E0EFC0E0EA8E
:1004890075F010A4CAABF075F04DA42BFBE435F060
:10049900FCEA2410FAEB34C5FBEC34D9FCEDC2E7D5
:1004A900FF75F056A4F42411C5F0F434C58FF0A4F7
:1004B9002AE5F03BE43CF020E71412056ED0E0FF9A
:1004C900D0E0FED0E0FDD0E0FC1202278014F40455
:1004D90012056ED0E0FFD0E0FED0E0FDD0E0FC12C6
:1004E900011ED082D083E0FAEDD2E7CD33EC33247C
:1004F90082FBE4C3CF33CFCE33CECD33CD33DBF361
:100509007B0775F00A846004F0A31B0AE5F0F0A3E9
:100519008FF0740AA4FFACF08EF0740AA42CFEAC20
:10052900F050010C8DF0740AA42CFDE435F0F0A311
:05053900DBDE74072267
:10053E003F8000004120000042C80000447A0000C5
:10054E00461C400047C35000497424004B18968047
:10055E004CBEBC205A0E1BCA6753C21C749DC5AE3E
:10056E00FB60065407601C232312059CEB54386075
:10057E000912058812059712011EECF8EDF9EEFA34
:10058E00EFCB22EB12059780F1543803241C900513
:10059E003EFE93FC0EEE93FD0EEE930ECE93FF22D7
:10259800021FE1E493A3F8E493A34003F68001F259
:1025A80008DFF48029E493A3F85407240CC8C33344
:1025B800C4540F4420C8834004F456800146F6DF13
:1025C800E4800B0102040810204080902184E47EFE
:1025D800019360BCA3FF543F30E509541FFEE49308
:1025E800A360010ECF54C025E060A840B8E493A3CF
:1025F800FAE493A3F8E493A3C8C582C8CAC583CAFA
:10260800F0A3C8C582C8CAC583CADFE9DEE780BEB1
:01224000009D
:1005AE00E709F608DFFA8046E709F208DFFA803E2F
:1005BE0088828C83E709F0A3DFFA8032E309F6081C
:1005CE00DFFA8078E309F208DFFA807088828C8384
:1005DE00E309F0A3DFFA806489828A83E0A3F60838
:1005EE00DFFA805889828A83E0A3F208DFFA804C12
:1005FE0080D280FA80C680D4806980F280338010E9
:10060E0080A680EA809A80A880DA80E280CA803351
:10061E0089828A83ECFAE493A3C8C582C8CCC583C9
:10062E00CCF0A3C8C582C8CCC583CCDFE9DEE78099
:10063E000D89828A83E493A3F608DFF9ECFAA9F018
:10064E00EDFB2289828A83ECFAE0A3C8C582C8CC6E
:10065E00C583CCF0A3C8C582C8CCC583CCDFEADE87
:10066E00E880DB89828A83E493A3F208DFF980CCE9
:10067E0088F0EF60010E4E60C388F0ED2402B404E2
:10068E000050B9F582EB2402B4040050AF23234589
:06069E0082239005FE73AB
:1006A400BB010689828A83E0225002E722BBFE0254
:0906B400E32289828A83E4932287
:1006BD00BB010CE58229F582E5833AF583E02250F2
:1006CD0006E92582F8E622BBFE06E92582F8E2223C
:0D06DD00E58229F582E5833AF583E4932256
:1006EA00BB010689828A83F0225002F722BBFE01EF
:0206FA00F322E9
:1006FC00EF8DF0A4A8F0CF8CF0A428CE8DF0A42E12
:02070C00FE22CB
:10070E00C5F0F8A3E028F0C5F0F8E5821582700276
:06071E001583E038F02213
:10072400A3F8E0C5F025F0F0E58215827002158388
:06073400E0C838F0E822E5
:10073A00BB010A89828A83F0E5F0A3F0225006F70A
:0F074A0009A7F01922BBFE06F3E5F009F3192207
:10075900E88FF0A4CC8BF0A42CFCE98EF0A42CFC3F
:100769008AF0EDA42CFCEA8EF0A4CDA8F08BF0A4BD
:100779002DCC3825F0FDE98FF0A42CCD35F0FCEB1C
:100789008EF0A4FEA9F0EB8FF0A4CFC5F02ECD39E1
:0F079900FEE43CFCEAA42DCE35F0FDE43CFC224E
:1007A80075F008758200EF2FFFEE33FECD33CDCC08
:1007B80033CCC58233C5829BED9AEC99E58298408B
:1007C8000CF582EE9BFEED9AFDEC99FC0FD5F0D668
:1007D800E4CEFBE4CDFAE4CCF9A88222B800C1B992
:1007E8000059BA002DEC8BF084CFCECDFCE5F0CBD0
:1007F800F97818EF2FFFEE33FEED33FDEC33FCEB09
:1008080033FB10D703994004EB99FB0FD8E5E4F9C3
:10081800FA227818EF2FFFEE33FEED33FDEC33FCB0
:10082800C933C910D7059BE99A4007EC9BFCE99AA4
:10083800F90FD8E0E4C9FAE4CCFB2275F010EF2FE9
:10084800FFEE33FEED33FDCC33CCC833C810D707E9
:100858009BEC9AE899400AED9BFDEC9AFCE899F824
:0E0868000FD5F0DAE4CDFBE4CCFAE4C8F922B7
:0E087600C3E49FFFE49EFEE49DFDE49CFC2293
:10088400EB9FF5F0EA9E42F0E99D42F0EC6480C8EB
:0608940064809845F0228B
:10089A00EB9FF5F0EA9E42F0E99D42F0E89C45F0B4
:0108AA00222B
:0C08AB00ECF0A3EDF0A3EEF0A3EFF022C0
:1008B700A8828583F0D083D0821208CE1208CE1288
:1008C70008CE1208CEE473E493A3C583C5F0C583AD
:1008D700C8C582C8F0A3C583C5F0C583C8C582C88B
:0108E70022EE
:1008E800F8E0FBA3A3E0F925F0F0E5821582700299
:0708F8001583E0FA38F0223D
:0908FF00EBF0A3EAF0A3E9F022FA
:10090800D083D082F8E4937012740193700DA3A37E
:1009180093F8740193F5828883E473740293686092
:06092800EFA3A3A380DF92
:10092E00EC8EF0A4CCC5F0CCCDF8EFA4CEC5F02D56
:10093E00FDE43CFCE8A42EC8C5F03DFDE43CFCEF14
:0D094E00A4FFE5F028FEE43DFDE43CFC22A2
:00000001FF
