:0300000002245F78
:0C245F00787FE4F6D8FD7581220224A6E7
:1021A500206B65795F7363616E0D0A00204B45599D
:1021B5005F325F505245530D0A000D0A3D3D3D3DCE
:1021C5003D3D3D3D3D3D3D3D3D3D3D3D3D3D3D3D3A
:1021D5003D3D3D3D3D3D3D3D3D3D3D3D3D3D0D0A8D
:1021E50000736B753A4B2564200D0A00736F667496
:1021F5002076657273696F6E3A2573200D0A00317A
:102205002E30312E303000676170202564200D0A94
:102215000074696D6572202564200D0A00496E7091
:1022250075745F566F6C746167655F737464203D88
:102235002025640D0A003D3D3D3D3D3D3D3D3D3D77
:102245003D3D3D3D3D3D3D3D3D3D3D3D3D3D3D3DB9
:0B2255003D3D3D3D3D3D3D3D0D0A007F
:0D202D004200C800004100CB004100CA0085
:101E8F00E4900000F09000CAE0700A1225779000ED
:101E9F0000EFF08005E4900000F0900000E0640196
:101EAF0070319000C1E0702B7BFF7A2179A5120968
:101EBF00C6122AB8EF700A7F01122ABEE4FF022968
:101ECF00E9E4FF122ABE1224EB1226EF9000CB7426
:101EDF0001F022122AB8EF6003021F6B900000E09E
:101EEF00640270307BFF7A2179B11209C69000AC81
:101EFF00E0C394045005E004F080069000AC740138
:101F0F00F09000CB7401F01226EF9000ACE0FF12BE
:101F1F002AD68045900000E0640370409000ADE049
:101F2F00C394055005E004F08005E49000ADF090F7
:101F3F0000ACE0D394014016A3E0FF70059000AB16
:101F4F008009EFD39403400690009C7402F0900038
:0C1F5F00ADE0FF122AD01224EB12289BE8
:011F6B002253
:0820EA00900006EEF0A3EFF0F8
:1020F200900081E06402706A9000C1E06401706245
:10210200900006A3E0FFE4900081F09000B004F09C
:10211200900062E0FED3940F4048EED39F400CE063
:102122009F9000AEF0A37401F08016900062E0FE72
:10213200C3EF9EFF9000AEF0122A849000AF7402AB
:10214200F09000AEE0FFC394024006EFD394144037
:1021520007E49000AEF0A3F012289B7D027F0212EA
:10216200298E9000AFE0FDB401149000AEE0FF7E36
:1021720000900006EE8FF012070EAFF0FE22EDB4D3
:1021820002189000AEE0FFC3900007E09FFF9000AE
:1021920006E09400FEF0A3EFF022900006E0FEA31A
:0221A200E0FF5C
:0121A4002218
:0C165500900006ECF0A3EDF0AB07AA0635
:10166100E4A3F0A3F0A3F0A37428F0A31208B70039
:101671000000009000101208B700000000C3EB94B6
:101681005AEA94005003021719AE02AF03AD07AC3A
:1016910006E4120342E4FBFA797A784412022790B5
:1016A100000C1208AB900006E0FCA3E0FDE412037D
:1016B10042E4FBFA797A784412022790001012086A
:1016C100AB90000CE0F8A3E0F9A3E0FAA3E0FBA3E0
:1016D100E0FCA3E0FDA3E0FEA3E0FF1200299000DF
:1016E1000CE0F8A3E0F9A3E0FAA3E0FB1202277BE8
:1016F100007A80793B784412011E90000C1208ABED
:10170100E4FFFEFDFC90000CE0F8A3E0F9A3E0FA91
:10171100A3E0FB1202C450057E007FFF227F147EEE
:10172100AE7DC37C4290000CE0F8A3E0F9A3E0FA9F
:10173100A3E0FB1202C4603F403D7F147EAE7DC337
:101741007CC290000CE0F8A3E0F9A3E0FAA3E0FB6F
:1017510012002D7BCD7ACC79CC783E120227120370
:101761007B900008EEF0A3EFF090000BE02FF090DB
:10177100000AE03EF0803C90000CE0F8A3E0F9A301
:10178100E0FAA3E0FB7F147EAE7DC37C4212002908
:101791007BCD7ACC79CC783E12022712037B900064
:1017A10008EEF0A3EFF0C390000BE09FF090000A69
:1017B100E09EF09000ACE0B4030E90000BE024FB3F
:1017C100F090000AE034FFF090000AE0FEA3E0FF91
:0117D10022F5
:101B8200E4900000F0A3F0A3F0A3F0A3F0A3F09080
:101B920000C9E004F070069000C8E004F09000C8AC
:101BA200E0FEA3E0FFE4FCFD7B507AC3F9F8D31218
:101BB20008844003021CA7E49000C8F0A3F07B0154
:101BC20090000904F0A37400F0A37404F07A007981
:101BD20002121A4D900002E0FEA3E0FFA3E0FCA374
:101BE200E0FD121655900000EEF0A3EFF01220EA8D
:101BF200900000EEF0A3EFF0D3900003E0945A902F
:101C02000002E094005003021C94122AB8EF705BA9
:101C1200FF122ACA9000CBE0B40121E4F0D3900075
:101C220001E09432900000E094004006E49000A2AB
:101C320080059000A27401F09000A1F0900000E0F5
:101C4200FEA3E0FF7C007D0A1206FC900098EEF0F5
:101C5200A3EFF0120DDE9000ADE0FF122AD090004B
:101C6200ACE0FF122AD612272D80219000C1E0B4E9
:101C7200010DE4FF1229E9122AA61228E7800D7F3E
:101C820001122ACAE4FF1229E9122AA6E49000CA24
:101C9200F022E49000C1F07FFF122ACA1228C190FC
:051CA20000CA7401F00E
:011CA700221A
:101F6C00122A9C12284A12296FD2AF12000E122A82
:101F7C005A12191412294F7FC87E0012292F7F0282
:101F8C00122A77122820122AAF7FB07E04122A015F
:101F9C00122AA61229AD7BFF7A2179BF1209C67BC2
:101FAC00FF7A2179E6900034741FF0A374A8F01224
:101FBC0009C690003474FFF0A37422F0A37404F0EB
:101FCC007BFF7A2179F11209C67BFF7A22790C907A
:101FDC0000ACE0FF900034E4F0A3EFF01209C67BF4
:101FEC00FF7A2279169000ADE0FF900034E4F0A364
:101FFC00EFF01209C67BFF7A2279229000B5E0FF40
:10200C00A3E0900034CFF0A3EFF01209C67BFF7A67
:10201C0022793B1209C6121B82121E8F122ADC80F7
:01202C00F5BE
:0A2A9C00758E5190FE917401F02236
:10272D007F649000B5E07004A3E06402700D90002A
:10273D0094E0C313F0A3E013F07F329000A1E0B456
:10274D000102800C9000A1E07009900094A3E0FFBD
:03275D001229E955
:012760002256
:1026EF009000ACE024FE601514601D1460252403D7
:1026FF00702B9000967401F0A374E0F02290009676
:10270F007402F0A37458F0229000967402F0A37430
:0E271F00BCF0229000967403F0A37420F02208
:1029AD00E4FFFE1223CED3EF9440EE94069000B5D3
:0D29BD00E44006F0A37402F022F0A304F041
:0129CA0022EA
:0E2A6900EF1F70011E144E6004000080F32267
:102A01007D407C03ED1D70011C144C70F7EF1F70AD
:062A1100011E144E70EAE4
:012A1700229C
:10296F0090FF037401F090FF07F090FF02F075B431
:0F297F00817F507E00122A6990FE9B7449F022DE
:102A1800E4FFFE75B50743B440E5B430E5FB53B4B5
:052A2800DFAEB7AFB600
:012A2D002286
:102A2E00E4FFFE75B50343B440E5B430E5FB53B4A3
:052A3E00DFAEB7AFB6EA
:012A43002270
:102A4400E4FFFE75B50243B440E5B430E5FB53B48E
:052A5400DFAEB7AFB6D4
:012A5900225A
:0B1A4D00900006EBF0A3EAF0A3E9F024
:101A580090000C1208B700000000E4900010F0F0AD
:101A680090000CE0F8A3E0F9A3E0FAA3E0FB122A47
:101A78002EE4FCFDEB2FFFEA3EFEED39FDEC38FCD1
:101A880090000C1208AB900010E004F0E0C394053D
:101A980040CE90000CE0FCA3E0FDA3E0FEA3E0FF35
:101AA800E47B05FAF9F81207E490000C1208ABE49D
:101AB8007FA07E0FFDFC90000CE0F8A3E0F9A3E006
:101AC800FAA3E0FB120759E47BFF7A0FF9F8120733
:101AD800E4900006E0FBA3E0FAA3E0F9EE8FF01231
:101AE800073A7F147E00122A6990000C1208B7008A
:101AF800000000E4900010F090000CE0F8A3E0F97A
:101B0800A3E0FAA3E0FB122A18E4FCFDEB2FFFEA9E
:101B18003EFEED39FDEC38FC90000C1208AB90004D
:101B280010E004F0E0C3940540CE90000CE0FCA364
:101B3800E0FDA3E0FEA3E0FFE47B05FAF9F8120755
:101B4800E490000C1208ABE47FA07E0FFDFC90002F
:101B58000CE0F8A3E0F9A3E0FAA3E0FB120759E4CC
:101B68007BFF7A0FF9F81207E4900009E0FBA3E085
:0A1B7800FAA3E0F9EE8FF002073A3D
:1023CE009000001208B700000000E4900004F0F046
:1023DE00900000E0F8A3E0F9A3E0FAA3E0FB122AD4
:1023EE0044E4FCFDEB2FFFEA3EFEED39FDEC38FC3C
:1023FE009000001208AB900004E004F0E0C39405D6
:10240E0040CE900000E0FCA3E0FDA3E0FEA3E0FFC1
:10241E00E47B05FAF9F81207E49000001208ABE429
:10242E007FA07E0FFDFC900000E0F8A3E0F9A3E092
:10243E00FAA3E0FB120759E4FB7A10F9F81207E44D
:10244E009000001208AB900000A3A3E0FEA3E0FFF3
:01245E00225B
:101CA8000D0A3D3D3D3D3D3D3D3D3D3D3D3D3D3DBF
:101CB8003D3D3D3D3D3D3D3D3D3D3D3D3D3D3D3D4C
:101CC8003D3D3D3D3D3D3D3D3D3D0D0A00706F773D
:101CD8006572206F6E20666C617368206761703A68
:101CE8002564202074696D65723A2564200D0A0008
:101CF800706F776572206F6E20666C6173682076EE
:101D0800616C75653A256420207369676E3A2564AD
:101D1800200D0A003D3D3D3D3D3D3D3D3D3D3D3DA8
:101D28003D3D3D3D3D3D3D3D3D3D3D3D3D3D3D3DDB
:101D38003D3D3D3D3D3D3D3D3D3D3D3D0D0A003D6B
:101D48003D3D3D3D3D3D3D3D3D3D3D3D66697273FB
:101D58007420696E697420646174613D3D3D3D3D48
:101D68003D3D3D3D3D3D200D0A003078253034583D
:101D780020203078253034582020307825303458C9
:101D88002020307825303458200D0A00666C6173A5
:101D980068206761703A2564202074696D65723A1D
:061DA8002564200D0A0075
:10203A004500AC00000000004400B1202005014129
:08204A0000B7014200B50000DF
:062AB8009000B7E0FF22D0
:062ABE009000B7EFF022CA
:10290D00D310AF01C3C0D075FDF075FC0F8EFA8FDB
:10291D00F975FDD275FC2D75FDE175FC1ED0D092BB
:02292D00AF22D7
:10287300D310AF01C3C0D08FFB75FDF075FC0FAE55
:1028830004AF058EFA8FF975FDB475FC4B75FDE148
:0828930075FC1ED0D092AF22AB
:0C25F5007B017A0079AC7D057F047E3C00
:10260100D310AF01C3C0D0900008EEF0A3EFF0A348
:0B261100EDF0A3EBF0A3EAF0A3E9F06A
:10261C00E4A3F0C2AFF090000AE0FF90000EE0C31C
:10262C009F502C90000BE0FBA3E475F001120724E3
:10263C00A9F0FA1206A4FF900008E475F001120745
:10264C0024ADF0FC12287390000EE004F080C7D289
:01265C00AFCE
:05265D00D0D092AF2275
:040003008F828E83D7
:03000700E493FF80
:01000A0022D3
:1026AF00900008EEF0A3EFF0A3EBF0A3EAF0A3E99C
:1026BF00F0AF051DEF6028900008E475F0011207D8
:1026CF002485F082F583E493FF90000AE0FBA3E4F6
:1026DF0075F001120724A9F0FAEF1206EA80D22250
:10276100E4FDFCED2400FFE4343CFE12000374B1EF
:102771002DF582E43400F583E0B507030C80037F77
:1027810000220DEDB404DCECC3940440037F01226C
:022791007F00C7
:012793002223
:10191400E4900000F090FE927404F0122761EF70DE
:101924000790000004F0807C7BFF7A1C79A81209E0
:10193400C67B017A0079AC7D057F047E3C1226AF1C
:101944007BFF7A1C79D59000ACE0FF900034E4F082
:10195400A3EFF09000ADE0FF900036E4F0A3EFF0C9
:101964001209C67BFF7A1C79F89000AEE0FF900064
:1019740034E4F0A3EFF09000AFE0FF900036E4F021
:10198400A3EFF01209C67BFF7A1D791C1209C690D9
:1019940000ACE0D394045006A3E094054006900004
:1019A400007401F0900000E06401707A7BFF7A1DFE
:1019B40079471209C69000AC7401F0A3F07F007E51
:1019C4003C12290DFB7A0079B17D041226011225FF
:1019D400F57B017A0079B17D047F007E3C1226AF4D
:1019E4007BFF7A1D79729000B1E0FF900034E4F03F
:1019F400A3EFF09000B2E0FF900036E4F0A3EFF024
:101A04009000B3E0FF900038E4F0A3EFF09000B44E
:101A1400E0FF90003AE4F0A3EFF01209C67BFF7AEE
:101A24001D791C1209C67BFF7A1D79949000ACE0E5
:101A3400FF900034E4F0A3EFF09000ADE0FF9000DD
:091A440036E4F0A3EFF00209C63C
:10289B007F047E3C12290D7B017A0079B17D047F88
:1028AB00001226011225F57B017A0079AC7D057F9C
:0628BB00047E3C0226AF82
:102052005E006300000000000000000000000000BD
:10206200000000000000000000000000000000006E
:0920720000410081004100620000
:10284A0090FF1674C1F090FF157460F090FFA074A9
:10285A0026F090FFA114F075CEFF75CD9875CC06C1
:09286A00759E02759810D2AC2293
:0C2A8400C2AC8F993099FDC299D2AC22EF
:032AE000022A8443
:0B27C70090000DEBF0A3EAF0A3E9F096
:1027D200E4FEEEC39D501A90000DE0FBA3E0FAA3C5
:1027E200E0F98E827583001206BDFF122AE00E8088
:0127F200E105
:0127F30022C3
:10298E009000087455F0A3EFF0A3EDF0A3740DF0D2
:0F299E00A3740AF07B017A0079087D050227C730
:062AC400AE07122A842275
:0300230002266250
:0D266200C0E0C083C082C0D075D000C007AA
:10266F00E59830E030AF995398FE900081E0146008
:10267F0019047021EFB4551D900063F0900061E0D4
:10268F0004F09000817401F0800B900062EFF090E5
:05269F0000817402F04F
:0B26A400D007D0D0D082D083D0E0322D
:10207B004100C1004100B8004200B900004100BB63
:0F208B00004200BC00004100BE014200BF000047
:0F2A5A0090FF177460F090FF00F090FF01F022E2
:10226000E4900002F0A28133900001F09000B8E009
:1022700014602614604E14700302230324036003C9
:1022800002230C900001E060030223119000B9F0DA
:10229000A3F09000B804F08078900001E0706B909B
:1022A00000BAE004F070069000B9E004F0C39000BA
:1022B000BAE094039000B9E09400403E9000B874F6
:1022C00002F08036900001E0B40106A37404F080AF
:1022D0003B9000BAE004F070069000B9E004F0C34F
:1022E0009000BAE094C89000B9E09400400C9000CF
:1022F000027405F09000B87403F07F0A7E00122A81
:1023000001800E900001E0B401078000E49000B865
:06231000F0900002E0FF66
:0123160022A4
:10231700E4900002F0A28033900001F09000BBE04F
:1023270014602614604E1470030223BA240360035A
:102337000223C3900001E060030223C89000BCF0B1
:10234700A3F09000BB04F08078900001E0706B90E0
:1023570000BDE004F070069000BCE004F0C39000FC
:10236700BDE094039000BCE09400403E9000BB7435
:1023770002F08036900001E0B40106A37404F080F7
:102387003B9000BDE004F070069000BCE004F0C391
:102397009000BDE094909000BCE09401400C900048
:1023A700027406F09000BB7403F07F0A7E00122AC5
:1023B70001800E900001E0B401078000E49000BBAB
:0623C700F0900002E0FFAF
:0123CD0022ED
:10257700122260BF05037F0122122317BF06211213
:102587002AB8BF01149000B0E0700E9000C104F0AB
:102597009000B0F012289B803CE49000C1F0803599
:1025A7009000BEE0602330A70320801D9000C1E0AB
:1025B70070177F32FE122A01E49000BEF020A703B5
:1025C7007F022220800F7F032230A70930800690E8
:1025D70000BE7401F0308113D39000C0E0940190E5
:0D25E70000BFE094004004E4F0A3F07F008A
:0125F40022C4
:04209A004100CC0035
:1029E9007E009000CCE0FD7C0012092EE47B64FAA5
:0729F900F9F81207E48FDF7B
:012A000022B3
:10292F00900000EEF0A3EFF090FF1D74C0F090FF49
:10293F009C7435F09000CC74FFF0F5DE75DD9722B6
:0D2A770075BD17EF75F02BA490FEA0F022A6
:042ADC0043BD1022C4
:102794007365742074696D65207365636F6E643A44
:1027A40025640D0A0074696D65207365636F6E643A
:1027B4003A2564200D0A0074696D65206F666620F1
:0327C4000D0A00FB
:10209E004200A700004200A500004200A900004136
:1020AE00009B0041009C004100AB004100A2004299
:1020BE00009D00004200A3000042009F000041006E
:0220CE00A1006F
:1029CB009000A5EEF0A3EFF0E4A3F0A3F07BFF7A69
:0E29DB00277994900034EEF0A3EFF00209C6C5
:1027F4009000A2E0B4012490009DE475F00112075A
:102804000EFED3E5F0940EEE9401400FE49000A286
:0C281400F090009DF0A3F09000A1F022D5
:1024EB00E49000A7F0A3F09000ADE0FF700890001F
:1024FB00A5F0A3F08052EFB4010C9000A57407F087
:10250B00A304F0E48042EFB4020D9000A5740EF02A
:10251B00A37410F0E48031EFB4030D9000A5741C8C
:10252B00F0A37420F0E48020EFB4040D9000A574A8
:10253B0038F0A37440F0E4800FEFB405179000A5BA
:10254B007470F0A37480F0E49000A9F0A3F09000F5
:10255B00A3F0A3F07BFF7A2779A99000A5E0FFA356
:0C256B00E0900034CFF0A3EFF00209C6AE
:10000E00E490FE80F0F589758CF5758A9643A8020A
:04001E0043881022E1
:03000B000217D207
:1017D200C0E0C0F0C083C082C0D075D000C000C0DD
:1017E20001C002C003C004C005C006C007122AB867
:1017F200EF60030218CF9000A8E004F0700690009A
:10180200A7E004F0C39000A8E094F49000A7E0944D
:101812000150030218F61227F49000ABE0B4022D37
:101822009000AAE004F070069000A9E004F0D390C2
:1018320000AAE094409000A9E0943840109000ABD8
:10184200E4F09000A9F0A3F090009B04F0D3900084
:10185200A6E094009000A5E094004042A3E024FF9B
:10186200F09000A5E034FFF090009CE06402705715
:101872009000AAE004F070069000A9E004F0D39072
:1018820000AAE094409000A9E09438403A90009B6E
:101892007401F0A3E4F09000A9F0A3F08029900075
:1018A200ADE060237F01122ABE9000A5E4F0A3F010
:1018B2009000A9F0A3F090009CF09000ABF07BFFA9
:1018C2007A2779BB1209C69000A7E480249000C150
:1018D200E0B4012090009FE475F00112070EFED3E0
:1018E200E5F09460EE94EA400B9000C1E4F09000C1
:1018F2009FF0A3F0121DAED007D006D005D004D0C1
:1019020003D002D001D000D0D0D082D083D0F0D08A
:02191200E032C1
:1020D0004200C600004100C5004100C4004100C2EA
:0520E000004100C300F7
:1028200043D1E890FF62E04406F090FF61E0440885
:10283000F090FF60E04410F090FF6AE044F8F0C2CE
:0A28400097C296C295C294C293227B
:062ACA009000C4EFF022B1
:092AA6009000C674CEF0A3F022EA
:1028C1009000C2E0FF700F9000C674CEF0A3F090AC
:1028D10000C27401F022EFB4010B9000C674FFF046
:0528E100E49000C2F0CC
:0128E60022CF
:1028E7009000C3E0FF700F9000C674CEF0A3F09085
:1028F70000C37401F022EFB4010B9000C67404F01A
:05290700E49000C3F0A4
:01290C0022A8
:062AD0009000C7EFF022A8
:062AD6009000C6EFF022A3
:092AAF009000C674CCF0A3F022E3
:101DAE009000C4E0FF600EF4600B9000C1E064018F
:101DBE006003021E8443D1E89000C5E0B4080040E1
:101DCE0003021E7E901DD9F8282873021DF1021EF3
:101DDE0001021E12021E25021E3A021E4A021E5B3E
:101DEE00021E6E53D1EF1214B91212069000C57472
:101DFE0001F022C292D2911214BD1212069000C5A9
:101E0E007402F022C292C291D2A31214BF12120611
:101E1E009000C57403F022C292C291C2A3D2B41232
:101E2E0014C11212069000C57404F02243D1101290
:101E3E0014B91212069000C57405F022C292D29106
:101E4E001214BD1212069000C57406F022C292C280
:101E5E0091D2A31214BF1212069000C57407F0227D
:101E6E00C292C291C2A3D2B41214C1121206800041
:101E7E00E49000C5F0229000C4E0B4010375D1686F
:011E8E002231
:051206009000C6E0FFAE
:10120B00EF12090812720112AA0212E203123A0437
:10121B00135205138A0613C10713FB081435091360
:10122B001A0A14AECC14A3CE146CFF000014B890A1
:10123B0000C5E0FF6003B40404C295C294EF6401DF
:10124B006004EFB40504D295D294EF64026004EF0E
:10125B00B40604D295D294EF64036008EF64076080
:10126B00030214B802149E9000C5E0FF6003B4049F
:10127B0004C295C294EF64016004EFB40504D295E7
:10128B00C294EF64026004EFB40604D295C294EFEB
:10129B0064036008EF640760030214B80213F6904E
:1012AB0000C5E0FF6003B40404D295C294EF64015F
:1012BB006004EFB40504D295C294EF64026004EFAE
:1012CB00B40604C295D294EF64036008EF64076020
:1012DB00030214B80214309000C5E0FF6003B4049D
:1012EB0004D295C294EF64016004EFB40504D29567
:1012FB00C294EF64026004EFB40604D295D294EF6B
:10130B0064036008EF640760030214B8021467906B
:10131B0000C5E0FF6003B40404C295C294EF6401FE
:10132B006004EFB40504D295D294EF64026004EF2D
:10133B00B40604D295D294EF64036008EF6407609F
:10134B00030214B80213F69000C5E0FF6003B40467
:10135B0004D295C294EF64016004EFB40504C29506
:10136B00D294EF64026004EFB40604D295D294EFEA
:10137B0064036008EF640760030214B802146790FB
:10138B0000C5E0FF6003B40404D295C294EF64017E
:10139B006004EFB40504C295D294EF64026004EFCD
:1013AB00B40604D295D294EF64036008EF6407602F
:1013BB00030214B8806F9000C5E0FF6003B404040F
:1013CB00D295C294EF64016004EFB40504D295C2C8
:1013DB0094EF64026004EFB40604D295C294EF64F8
:1013EB00036008EF640760030214B8C295C294222D
:1013FB009000C5E0FF6003B40404D295C294EF647F
:10140B00016004EFB40504D295D294EF640260043A
:10141B00EFB40604D295D294EF64036008EF64072F
:10142B0060030214B8D295D294229000C5E0FF60FD
:10143B0003B40404D295C294EF64016004EFB405C5
:10144B0004D295D294EF64026004EFB40604D295F3
:10145B00D294EF64036005EF64077051D295C29488
:10146B00229000C5E0FF6003B40404D295C294EF50
:10147B0064016004EFB40504C295D294EF6402607A
:10148B0004EFB40604C295D294EF64036005EF64D5
:10149B0007701AC295D29422C297C296C295C29473
:0E14AB00C29322D297D296D295D294D2932297
:0D14B900D292C291C2A3C2B49000C7E0FF5E
:1014C600EF14605D1470030215651470030215A312
:1014D6001470030215DD1470030216172405600349
:1014E6000216549000C5E0FF6003B40406C297C21A
:1014F60096C293EF64016004EFB40506D297D296C4
:10150600D293EF64026004EFB40606C297D296C285
:1015160093EF64036046EF640760030216540216F5
:101526004E9000C5E0FF6003B40406D297C296C28F
:1015360093EF64016004EFB40506D297D296D29376
:10154600EF64026004EFB40606C297C296C293EF38
:1015560064036008EF6407600302165402164E9097
:1015660000C5E0FF6003B40406C297C296C293EFBB
:1015760064016004EFB40506D297D296D293EF6465
:10158600026004EFB40606D297C296C293EF6403D4
:101596006008EF6407600302165402164E9000C5F9
:1015A600E0FF6003B40406C297C296D293EF6401CB
:1015B6006004EFB40506D297D296D293EF64026028
:1015C60004EFB40606C297C296C293EF64036005A1
:1015D600EF6407707980719000C5E0FF6003B40482
:1015E60006C297D296C293EF64016004EFB4050673
:1015F600D297D296D293EF64026004EFB40606C285
:1016060097C296C293EF64036005EF6407703F804C
:10161600379000C5E0FF6003B40406C297C296C2C5
:1016260093EF64016004EFB40506D297D296D29385
:10163600EF64026004EFB40606C297C296D293EF37
:0F16460064036004EFB40706D297D296D29322C2
:0C2A90000000000000000000000000003A
:0420E50041009A001C
:10294F00E4900098F0A3F0900094F0A3F0A3F0A30C
:10295F00F090009304F0900092F090009104F02218
:100DDE0078067C007D017BFF7A2A79907E007F0C5D
:100DEE0012067E9000121208B70000000090001646
:100DFE001208B700000000900098E0FEA3E0FF90FC
:100E0E000096E0FCA3E0FDD39FEC9E50030211FE82
:100E1E00ED9FFFEC9EFED3EF9464EE940040030230
:100E2E0011F4E4FCFD9000061208ABE490008FF084
:100E3E00900086E0FCA3E0FDA3E0FEA3E0FFA3127A
:100E4E0008AB900082E0FCA3E0FDA3E0FEA3E0FF70
:100E5E00A31208AB900006E0FCA3E0FDA3E0FEA306
:100E6E00E0FF9000821208AB900086E0FCA3E0FD4C
:100E7E00A3E0FEA3E0FF900082E0F8A3E0F9A3E078
:100E8E00FAA3E0FBD312089A4033900086E0F8A351
:100E9E00E0F9A3E0FAA3E0FB900082E0FCA3E0FD02
:100EAE00A3E0FEA3E09BFFEE9AFEED99FDEC98FC0D
:100EBE009000061208ABE490008EF0803190008214
:100ECE00E0F8A3E0F9A3E0FAA3E0FBA3E0FCA3E0C3
:100EDE00FDA3E0FEA3E0C39BFFEE9AFEED99FDECB1
:100EEE0098FC9000061208AB90008E7401F0E47F1F
:100EFE0002FEFDFC900086E0F8A3E0F9A3E0FAA361
:100F0E00E0FB12075990000E1208AB90008AE0FC2D
:100F1E00A3E0FDA3E0FEA3E0FF900082E0F8A3E0D3
:100F2E00F9A3E0FAA3E02FFFEA3EFEE93DFDE83C1F
:100F3E00FC90000EE0F8A3E0F9A3E0FAA3E0FBC3F7
:100F4E0012089A504B90008AE0FCA3E0FDA3E0FE4D
:100F5E00A3E0FF900082E0F8A3E0F9A3E0FAA3E09B
:100F6E002FFFEA3EFEE93DFDE83CFC90000EE0F866
:100F7E00A3E0F9A3E0FAC3EF9BFFEE9AFEED99FD15
:100F8E00EC98FC90000E1208ABE4900090F0805D9F
:100F9E0090000EE0FCA3E0FDA3E0FEA3E0FFC00482
:100FAE00C005C006C00790008AE0FCA3E0FDA3E0E8
:100FBE00FEA3E0FF900082E0F8A3E0F9A3E0FAA31D
:100FCE00E02FFBEA3EFAE93DF9E83CF8D007D006FF
:100FDE00D005D004C3EF9BFFEE9AFEED99FDEC9881
:100FEE00FC90000E1208AB9000907401F0900091EE
:100FFE00E0FFE4FCFDFE900006E0F8A3E0F9A3E0BC
:10100E00FAA3E0FB1207599000061208AB9000926B
:10101E00E0FFE4FCFDFE900082E0F8A3E0F9A3E01F
:10102E00FAA3E0FB12075990000A1208AB90009346
:10103E00E0FFE4FCFDFE90000EE0F8A3E0F9A3E073
:10104E00FAA3E0FB12075990000E1208AB90008E27
:10105E00E0702D900012E0FCA3E0FDA3E0FEA3E003
:10106E00FF900006E0F8A3E0F9A3E0FAA3E0FBEF9F
:10107E002BFFEE3AFEED39FDEC38FC900012802B82
:10108E00900016E0FCA3E0FDA3E0FEA3E0FF9000BD
:10109E0006E0F8A3E0F9A3E0FAA3E0FBEF2BFFEEE6
:1010AE003AFEED39FDEC38FC9000161208AB9000BC
:1010BE008FE0702E900012E0FCA3E0FDA3E0FEA3F3
:1010CE00E0FF900006E0F8A3E0F9A3E0FAA3E0FB4E
:1010DE00EF2BFFEE3AFEED39FDEC38FC90001212CC
:1010EE0008AB900090E0702B900012E0FCA3E0FDA6
:1010FE00A3E0FEA3E0FF90000EE0F8A3E0F9A3E06A
:10110E00FAA3E0FBEF2BFFEE3AFEED39FDEC38FCD7
:10111E00A3802B900016E0FCA3E0FDA3E0FEA3E06D
:10112E00FF90000EE0F8A3E0F9A3E0FAA3E0FBEFD6
:10113E002BFFEE3AFEED39FDEC38FC90001612084E
:10114E00AB900012E0F8A3E0F9A3E0FAA3E0FB9065
:10115E000094E0FEA3E0FFE4FCFDEB2FFFEA3EFE71
:10116E00ED39FDEC38FC9000121208AB900016E041
:10117E00FCA3E0FDA3E0FEA3E0FF900012E0F8A3C5
:10118E00E0F9A3E0FAA3E0FBD312089A40629000C4
:10119E0016E0F8A3E0F9A3E0FAA3E0FB900012E05A
:1011AE00FCA3E0FDA3E0FEA3E09BFFEE9AFEED990B
:1011BE00FDEC98FC9000061208ABE47F64FEFDFC8B
:1011CE00900006E0F8A3E0F9A3E0FAA3E0FBC31257
:1011DE00089A5012900006A3A3E0FFA3E09000949B
:1011EE00CFF0A3EFF022900094E4F0A37464F02209
:0711FE00E4900094F0A3F05F
:0112050022C6
:100026000203E7E86480F8E933E83360110460F01E
:10003600ED33EC337009E8FCE9FDEAFEEBFF220440
:1000460060DED3EB9FEA9EE99DE8C2E78CF0C2F73B
:1000560095F0400CE8CCF8E9CDF9EACEFAEBCFFB07
:100066001203B285D0F05804700320D5B3E80470AB
:10007600075002B2D50203F192D5EC0460F7E4CC46
:10008600C0E0C398F8603B94186008400DD0E0FBD0
:100096000203C9E4FBFAC9FC8028E830E406E4C997
:1000A600FBE4CAFCE830E305E4C9CACBFCE8540724
:1000B6006010F8C3E913F9EA13FAEB13FBEC13FC2F
:1000C600D8F130F52FC3E49CFCEF9BFFEE9AFEEDD2
:1000D60099FDD0E0FBEF4E4D4C701222DB0302037C
:1000E600EEEC2CFCEF33FFEE33FEED33FDED30E7A7
:1000F600EB0203C9EF2BFFEE3AFEED39FDD0E0FB34
:1001060050130BBB00030203F1ED13FDEE13FEEFDC
:0801160013FFEC13FC0203C906
:10011E00EC4D6011E8497017ED33EC3304600DE4DB
:10012E00FCFFFEFD22E933E8330470F80203E71208
:10013E0003B258046009E4CC248150062850090209
:10014E0003F12840030203EEC0E0EB4A7044B9808D
:10015E0006D0E0FB0203DDEF4E701CBD8008EBFF06
:10016E00EAFEE9FD80EBE98DF0A4FEE5F002020760
:10017E00E9CDF9EAFEEBFFEF89F0A4FCE5F0CE89BC
:10018E00F0A42EFFE435F0CD89F0A42DFEE435F079
:10019E008067EF4E7005BD80D780C3EF8BF0A4ACA7
:1001AE00F0EE8BF0A42CFCE435F0F8EF8AF0A42CE2
:1001BE00E5F038FCE433CB8DF0A42CFCE5F03BF8F5
:1001CE00EE8AF0A42CFCE5F038F8E433CF89F0A4E5
:1001DE002CFCE5F038CF3400CE89F0A42FFFE5F0EB
:1001EE003EFEE433C98DF0A42EFEE5F039CD8AF043
:1001FE00A42FFFE5F03EFEE43DFD33D0E0FB5007BB
:10020E000BBB000F0203F1EC2CFCEF33FFEE33FEC1
:06021E00ED33FD0203C9EF
:100224000203F1EC5D046005E8590470030203E77E
:100234001203B2580460F6EC4860F2EC7004FDFE60
:10024400FF22C860DB2481C85009C39860025006AD
:100254000203EE9850CAF582E9294B4A7005AB8235
:100264000203DD75F0007C1A7880C3EF9BEE9AEDF3
:1002740099400DC3EF9BFFEE9AFEED99FDE842F025
:10028400DC23ACF0D0E0FFD0E0FED0E0FDAB822078
:10029400E7101BEB60BAEC2CFCEF33FFEE33FEED02
:1002A40033FD0203C9E803F830E705C0F075F00038
:1002B400EF2FFFEE33FEED33FD40B830E7C280AAE6
:1002C40074F8CC6480CCC86480C8F58204604FC3E1
:1002D400EB9FF5F0EA9E42F0E99D42F0E89C45F080
:1002E400603C501DE5825FFFE582D313CB5BCBF40A
:1002F4002B5582FB50280ABA002409B90020088033
:100304001DE5825BFBE582D313CF5FCFF4C3132FCC
:100314005582FF50090EBE00050DBD00010CC3EB54
:100324009FF5F0EA9E42F0E99D42F0E89C45F060BA
:0903340007CC4820E701B3EC22DC
:10033D0075F020800E75F010800575F0087D007E3B
:10034D00007F003392D530D503120876EC33401080
:10035D00EF33FFEE33FEED33FDEC33FCD5F0ED2244
:0E036D00E5F0247EA2D513CC92E7CDCEFF2280
:10037B00EDD2E7CD33EC3392D524814006E4FFFE7A
:10038B00FDFC22FCE4CFCECDCC24E0501174FF80D9
:10039B00EDC3CC13CCCD13CDCE13CECF13CF047076
:0703AB00F030D5DE020876F8
:10095B00E50D2434F582E43400F583E0050D229097
:10096B000031301003900034E475F0011208E802F6
:10097B0006A42009E97F2ED2098018EF540F24908A
:10098B00D43440D4FF300D0BEF24BFB41A00500306
:10099B002461FFE50E6002150E0511E511700205CD
:1009AB001030100E900031E475F0011208E8EF02E0
:1009BB0006EA022AC47403D2108003E4C210F50DB8
:1009CB009000311208FFE4F50EF510F511E50E60FD
:1009DB00077F2012099E80F5750FFFC20AC209C25C
:1009EB000BC20CC20EC20FC21112096AFF700D307E
:1009FB0010057F001209AFAF11AE1022B4255FC2F4
:100A0B00D5C20D12096AFF24D0B40A00501A75F032
:100A1B000A780E30D50508B6FF0106C6A426F620C7
:100A2B00D5047002D20C80D924CFB41A00EF500435
:100A3B00C2E5D20D020CA1D20A80C6D20980C0D267
:100A4B000B80BCD2D580BAD20E80B47F2012099E07
:100A5B00200B077401B50E0040F112095BFF120960
:100A6B009E0209D8D211D20F809512095BFB120995
:100A7B005BFA12095BF94A4B7006799F7A0D7BFF83
:100A8B00200B2EE50E602A7E008E827583001206E7
:100A9B00BD60060EEE650F70F0C2D5EBC0E0EAC08C
:100AAB00E0E9C0E0EE120D02D0E0F9D0E0FAD0E0C0
:100ABB00FB1206A4FF60AAEBC0E0EAC0E0E9C0E0CD
:100ACB0012099ED0E02401F9D0E03400FAD0E0FB0B
:100ADB00E50F0460DCD50FD98087D20B80A2120CF6
:100AEB00E460F7E50F7001041203FCA90F600DE53C
:100AFB000F600914F50F120D8CEF60F3EA30E7026B
:100B0B00F404C3995079EAF4250F0430E701E404A7
:100B1B00F50F800D120CE460C1EA050F250F1203CF
:100B2B00FCEA900060F030E701E4250F04D50F04D8
:100B3B00200E0114120D02E4C0E0120D8C90006027
:100B4B00E0601320E70714F0120986802204F0D02E
:100B5B00E014C0E07F00120986E50F600712097DE3
:100B6B00150F800B300E0312097DD0E00209D8D08F
:100B7B00E00480C4120CE4609EE50F041203FC90A9
:100B8B000060EAF0E50F200E026001042404120D50
:010B9B000257
:100B9C0074FF04C0E0120D8C120986E50F200E02C2
:100BAC00600312097DD0E0B50FE87F4512099090E3
:100BBC000060E07F2B30E7047F2DF404C0E01209C5
:100BCC009ED0E075F00A84C0F0120987D0E01209BB
:100BDC00870209D8791080027908C20FC2118008E7
:100BEC00D2D5790A8004790AC2D5E50F047002F5D2
:100BFC000FE4FAFDFEFF12095BFC7B08200A1312BE
:100C0C00095BFD7B1030090A12095BFE12095BFFC0
:100C1C007B20EC3382D592D55013C3E43009069F68
:100C2C00FFE49EFEE4200A039DFDE49CFCE4CBF86B
:100C3C00C20AEC700CCFCECDCCE824F8F870F3805F
:100C4C0017C3EF33FFEE33FEED33FDEC33FCEB3328
:100C5C00FB994002FB0FD8E9EB300A05F8D0E0C451
:100C6C0048B20AC0E00AEC4D4E4F78207B0070C2AF
:100C7C00EAB50F0040BCC0E0120D04D0F0D0E0206B
:100C8C000A04C4C0E0C4B20AC0F0120987D0F0D57F
:100C9C00F0EB0209D81209080A75530BE0580A4602
:100CAC004C0A42420BE44F0BEC440BEC490A5B43FD
:100CBC000BF2550B1F460B7F450AE9470DBF500A37
:100CCC004A2D0A4E2E0A712B0A52230A6F200DA8A8
:100CDC002A0A0A4800000A69E50FB4FF03750F06DB
:100CEC0012095BFC12095BFD12095BFE12095BFF2A
:100CFC00900059020439790AA2D5200C14300E093F
:100D0C00B910020404B9080104A2D5200F02500145
:100D1C0004200B68920BB50E005034C0E07F2030DD
:100D2C000C197F30A20B720F720E500F120D5BC29A
:100D3C000BC20FC20EC2117F30800F300E03E9C000
:100D4C00E012099E300E03D0E0F9D0E0B50ECC30A5
:100D5C000E177F30B9100C12099E7F58300D077F8B
:100D6C00788003B9080312099E300B057F2D020908
:100D7C009E7F202011F87F2B200FF322920B80CF27
:100D8C007F00B40700500B2459F582E43400F5833E
:100D9C00E0FF22286E756C6C2900D20A12095B30B8
:100DAC000AF8C20A780E30D50108F6020A0A2D504C
:100DBC0043495812095B2403B405004001E4900D2B
:100DCC00BA9312098F743A12098FD20C750E040261
:020DDC000BE02A
:1003B200E9D2E7C933E833F892D5EDD2E7CD33EC91
:0703C20033FC5002B2D5220A
:1003C900EC30E7100FBF000C0EBE00080DBD000495
:1003D9000BEB6014A2D5EB13FCED92E7FD2274FF41
:1003E900FCFDFEFF22E480F8A2D574FF13FC7D809A
:0303F900E480EFAE
:1003FC00F920E73624F950037907E4F42402FBE5ED
:10040C0082158270021583DBF6E024FB501BE96039
:10041C0014E4F0E582158270021583E004F0B40A4E
:0D042C0008E4F0D9EE7401F00A22C2D522D6
:10043900ED33EC3392D5FA602AB4FF33EDC2E77B92
:10044900FF60067A04795EE4227A04796720D5048C
:100459007A047962224E614E002B494E46002D499D
:100469004E4600E47A08F0A3DAFC7B00740722C048
:1004790083C082ECC0E0EDC0E0EEC0E0EFC0E0EA8E
:1004890075F010A4CAABF075F04DA42BFBE435F060
:10049900FCEA2410FAEB34C5FBEC34D9FCEDC2E7D5
:1004A900FF75F056A4F42411C5F0F434C58FF0A4F7
:1004B9002AE5F03BE43CF020E71412056ED0E0FF9A
:1004C900D0E0FED0E0FDD0E0FC1202278014F40455
:1004D90012056ED0E0FFD0E0FED0E0FDD0E0FC12C6
:1004E900011ED082D083E0FAEDD2E7CD33EC33247C
:1004F90082FBE4C3CF33CFCE33CECD33CD33DBF361
:100509007B0775F00A846004F0A31B0AE5F0F0A3E9
:100519008FF0740AA4FFACF08EF0740AA42CFEAC20
:10052900F050010C8DF0740AA42CFDE435F0F0A311
:05053900DBDE74072267
:10053E003F8000004120000042C80000447A0000C5
:10054E00461C400047C35000497424004B18968047
:10055E004CBEBC205A0E1BCA6753C21C749DC5AE3E
:10056E00FB60065407601C232312059CEB54386075
:10057E000912058812059712011EECF8EDF9EEFA34
:10058E00EFCB22EB12059780F1543803241C900513
:10059E003EFE93FC0EEE93FD0EEE930ECE93FF22D7
:10246B00021F6CE493A3F8E493A34003F68001F2FC
:10247B0008DFF48029E493A3F85407240CC8C33372
:10248B00C4540F4420C8834004F456800146F6DF41
:10249B00E4800B010204081020408090202DE47E84
:1024AB00019360BCA3FF543F30E509541FFEE49336
:1024BB00A360010ECF54C025E060A840B8E493A3FD
:1024CB00FAE493A3F8E493A3C8C582C8CAC583CA28
:1024DB00F0A3C8C582C8CAC583CADFE9DEE780BEE0
:0120E90000F6
:1005AE00E709F608DFFA8046E709F208DFFA803E2F
:1005BE0088828C83E709F0A3DFFA8032E309F6081C
:1005CE00DFFA8078E309F208DFFA807088828C8384
:1005DE00E309F0A3DFFA806489828A83E0A3F60838
:1005EE00DFFA805889828A83E0A3F208DFFA804C12
:1005FE0080D280FA80C680D4806980F280338010E9
:10060E0080A680EA809A80A880DA80E280CA803351
:10061E0089828A83ECFAE493A3C8C582C8CCC583C9
:10062E00CCF0A3C8C582C8CCC583CCDFE9DEE78099
:10063E000D89828A83E493A3F608DFF9ECFAA9F018
:10064E00EDFB2289828A83ECFAE0A3C8C582C8CC6E
:10065E00C583CCF0A3C8C582C8CCC583CCDFEADE87
:10066E00E880DB89828A83E493A3F208DFF980CCE9
:10067E0088F0EF60010E4E60C388F0ED2402B404E2
:10068E000050B9F582EB2402B4040050AF23234589
:06069E0082239005FE73AB
:1006A400BB010689828A83E0225002E722BBFE0254
:0906B400E32289828A83E4932287
:1006BD00BB010CE58229F582E5833AF583E02250F2
:1006CD0006E92582F8E622BBFE06E92582F8E2223C
:0D06DD00E58229F582E5833AF583E4932256
:1006EA00BB010689828A83F0225002F722BBFE01EF
:0206FA00F322E9
:1006FC00EF8DF0A4A8F0CF8CF0A428CE8DF0A42E12
:02070C00FE22CB
:10070E00C5F0F8A3E028F0C5F0F8E5821582700276
:06071E001583E038F02213
:10072400A3F8E0C5F025F0F0E58215827002158388
:06073400E0C838F0E822E5
:10073A00BB010A89828A83F0E5F0A3F0225006F70A
:0F074A0009A7F01922BBFE06F3E5F009F3192207
:10075900E88FF0A4CC8BF0A42CFCE98EF0A42CFC3F
:100769008AF0EDA42CFCEA8EF0A4CDA8F08BF0A4BD
:100779002DCC3825F0FDE98FF0A42CCD35F0FCEB1C
:100789008EF0A4FEA9F0EB8FF0A4CFC5F02ECD39E1
:0F079900FEE43CFCEAA42DCE35F0FDE43CFC224E
:1007A80075F008758200EF2FFFEE33FECD33CDCC08
:1007B80033CCC58233C5829BED9AEC99E58298408B
:1007C8000CF582EE9BFEED9AFDEC99FC0FD5F0D668
:1007D800E4CEFBE4CDFAE4CCF9A88222B800C1B992
:1007E8000059BA002DEC8BF084CFCECDFCE5F0CBD0
:1007F800F97818EF2FFFEE33FEED33FDEC33FCEB09
:1008080033FB10D703994004EB99FB0FD8E5E4F9C3
:10081800FA227818EF2FFFEE33FEED33FDEC33FCB0
:10082800C933C910D7059BE99A4007EC9BFCE99AA4
:10083800F90FD8E0E4C9FAE4CCFB2275F010EF2FE9
:10084800FFEE33FEED33FDCC33CCC833C810D707E9
:100858009BEC9AE899400AED9BFDEC9AFCE899F824
:0E0868000FD5F0DAE4CDFBE4CCFAE4C8F922B7
:0E087600C3E49FFFE49EFEE49DFDE49CFC2293
:10088400EB9FF5F0EA9E42F0E99D42F0EC6480C8EB
:0608940064809845F0228B
:10089A00EB9FF5F0EA9E42F0E99D42F0E89C45F0B4
:0108AA00222B
:0C08AB00ECF0A3EDF0A3EEF0A3EFF022C0
:1008B700A8828583F0D083D0821208CE1208CE1288
:1008C70008CE1208CEE473E493A3C583C5F0C583AD
:1008D700C8C582C8F0A3C583C5F0C583C8C582C88B
:0108E70022EE
:1008E800F8E0FBA3A3E0F925F0F0E5821582700299
:0708F8001583E0FA38F0223D
:0908FF00EBF0A3EAF0A3E9F022FA
:10090800D083D082F8E4937012740193700DA3A37E
:1009180093F8740193F5828883E473740293686092
:06092800EFA3A3A380DF92
:10092E00EC8EF0A4CCC5F0CCCDF8EFA4CEC5F02D56
:10093E00FDE43CFCE8A42EC8C5F03DFDE43CFCEF14
:0D094E00A4FFE5F028FEE43DFDE43CFC22A2
:00000001FF
